:020000040800F2
:10000000D04700202D3F0008A93E0008AB3E000865
:10001000AD3E0008AF3E0008B13E00080000000001
:100020000000000000000000000000003115000882
:10003000B33E000800000000D91400083910000881
:100040008D3F0008913F0008953F0008993F000848
:100050009D3F0008A13F0008A53F0008A93F0008F8
:10006000AD3F0008B13F0008B53F0008B93F0008A8
:10007000BD3F0008C13F0008C53F0008C93F000858
:10008000CD3F0008D13F0008D53F0008D93F000808
:10009000DD3F0008E13F0008E53F0008E93F0008B8
:1000A000ED3F0008B53E0008F13F0008F53F0008AD
:1000B000F93F0008FD3F0008014000080540000826
:1000C000094000080D4000081140000815400008D4
:1000D000194000081D400008214000082540000884
:1000E000294000082D400008314000083540000834
:1000F000394000083D4000084140000845400008E4
:10010000494000084D400008514000085540000893
:10011000594000085D400008614000086540000843
:10012000694000086D4000087140000875400008F3
:10013000794000087D4000088140000885400008A3
:10014000894000088D400008914000089540000853
:10015000994000089D400008A1400008A540000803
:10016000A9400008AD400008B1400008B5400008B3
:10017000B9400008BD400008C14000080000000070
:10018000C5400008C940000878B585B005000B9847
:10019000002807D1502080F31188BFF34F8FBFF3A1
:1001A0006F8FFEE70C9C002C07D1502080F3118844
:1001B000BFF34F8FBFF36F8FFEE754260096009E6C
:1001C000542E07D0502080F31188BFF34F8FBFF318
:1001D0006F8FFEE7009E002C13D0002811D0206303
:1001E000022084F8510000200390029404A801909A
:1001F0000A980090280000F042F8200000F09AF8D9
:1002000001E000200490049806B070BD2DE9F84389
:1002100084B00700884616009946300080B28000FE
:1002200000F0C2FC0500002D0BD0542000F0BCFCF7
:100230000400002C01D0256304E0280000F042FDFA
:1002400000E00024002C15D0002084F8510000208C
:10025000039002940D9801900C9800904B46B6B212
:1002600032004146380000F00AF8200000F062F841
:10027000012001E05FF0FF3005B0BDE8F0832DE91B
:10028000F84305001E000A9F386B00EB8200B0F1B6
:1002900004085FEAD8085FEAC80818F007000028D9
:1002A00007D0502080F31188BFF34F8FBFF36F8FBB
:1002B000FEE7002910D0002200E0521C102A07D2CD
:1002C000885C07EB020383F83400885C0028F4D1D3
:1002D000002087F8430002E0002087F83400DDF8B2
:1002E0002090B9F1070F01D35FF00609099CC7F808
:1002F0002C90C7F844900020B864381D00F09FFD92
:1003000017F1180000F09BFD3F61D9F10709C7F80C
:1003100018907F620020F864002087F850003200B7
:100320002900404600F0C8FD3860002C00D027604E
:10033000BDE8F18338B5040000F04EFEDFF8541636
:100340000868401C0860DFF850562868002806D16D
:100350002C60086801280DD100F03AFB0AE0DFF8B4
:100360003C060068002805D1E06A2968C96A88420D
:1003700000D32C60DFF828060168491C0160DFF813
:1003800024160A680123E06A83401A430A60211D8B
:10039000DFF83826E36A1420434302EB030000F041
:1003A00051FD00F033FEDFF8F405006800280DD0A1
:1003B0002868C06AE16A884208D25FF08050DFF89E
:1003C00014170860BFF34F8FBFF36F8F31BD10B5A7
:1003D00004000020002C14D0DFF8880600680028F4
:1003E00007D0502080F31188BFF34F8FBFF36F8F7A
:1003F000FEE700F06AF90021200000F087FB00F022
:100400006AF9002808D15FF08050DFF8C81608604C
:10041000BFF34F8FBFF36F8F10BD70B5040000F0B6
:10042000DBFD002C03D1DFF870050468FFE7201D19
:1004300000F02FFD00280FD1DFF89015E26A14209C
:1004400042438858002807D1DFF858150A6801236D
:10045000E06A83409A430A60A06A002803D014F13E
:10046000180000F016FDDFF87056211D280000F07E
:10047000E9FC94F85000012802D1002084F85000D3
:1004800000F0C4FDDFF814653068002805D000F0E6
:10049000A3FD00F00AFB00F0B9FDDFF8FC140868CA
:1004A000844224D13068002816D0DFF8B8050068EF
:1004B000002807D0502080F31188BFF34F8FBFF37F
:1004C0006F8FFEE75FF08050DFF808160860BFF31B
:1004D0004F8FBFF36F8F0AE02868DFF8B8241268E7
:1004E000904202D10020086001E000F0E0F970BD08
:1004F000010000200A00002907D1502080F3118854
:10050000BFF34F8FBFF36F8FFEE75169DFF8C83538
:10051000994208D1916ADFF8C835994203D0916AAF
:10052000002900D10120704738B50400002807D108
:10053000502080F31188BFF34F8FBFF36F8FFEE71A
:10054000DFF85454286884422DD0002C2BD000F0C2
:1005500043FD2000FFF7CCFF002822D0201D00F033
:1005600098FCDFF840140A680123E06A83401A43CC
:100570000A60211DDFF85424E36A1420434302EB90
:10058000030000F05FFCE06A2968C96A884208D36A
:100590005FF08050DFF844150860BFF34F8FBFF362
:1005A0006F8F00F033FD31BD70B5002405000028C9
:1005B00007D1502080F31188BFF34F8FBFF36F8FA7
:1005C000FEE700F04DFDEFF31186502080F3118817
:1005D000BFF34F8FBFF36F8F2800FFF789FF00280D
:1005E00028D0DFF88004006800281DD1E86ADFF811
:1005F000A8130968C96A884200D30124281D00F0A5
:1006000048FCDFF8A0130A680123E86A83401A4314
:100610000A60291DDFF8B423EB6A1420434302EB80
:10062000030000F00FFC05E015F11801DFF8C0042D
:1006300000F008FC86F31188200070BD10B586B06C
:10064000002004900020039005AA03A904A800F04C
:1006500045FDDFF890440498029003980190002033
:1006600000900023059ADFF880140FF23D30FFF769
:100670008BFD20602068002801D0012000E00020D0
:10068000012817D1502080F31188BFF34F8FBFF39B
:100690006F8F5FF0FF30DFF8541408600120DFF83F
:1006A000FC1208600020DFF85014086000F02DFCF8
:1006B00006B010BD10F1010FFAD1502080F311885F
:1006C000BFF34F8FBFF36F8FFEE7DFF8980301682A
:1006D000491C0160704770B500240025DFF8846371
:1006E0003068002807D1502080F31188BFF34F8F66
:1006F000BFF36F8FFEE700F06FFC3068401E306084
:100700003068002855D1DFF88C020068002826D117
:100710004FE0C868C46814F1180000F0BAFB201D4F
:1007200000F0B7FBDFF87C120A680123E06A83401F
:100730001A430A60211DDFF89422E36A1420434320
:1007400002EB030000F07EFBE06ADFF84C12096860
:10075000C96A884203D30120DFF898130860DFF8E4
:10076000801308680028D4D1002C01D000F09DF936
:10077000DFF894633468002C0CD000F01EF80028D9
:1007800003D00120DFF86C130860641E002CF4D144
:1007900000203060DFF85C030068002809D00125E4
:1007A0005FF08050DFF82C130860BFF34F8FBFF36A
:1007B0006F8F00F02BFC280070BDF8B50025DFF826
:1007C000A402006800286BD1DFF82C030468641CC5
:1007D0000460002C1AD1DFF8241308680068002890
:1007E00007D0502080F31188BFF34F8FBFF36F8F76
:1007F000FEE70868DFF8082313680B601060DFF875
:1008000004030168491C016000F04FF9DFF8DC6265
:100810003068844233D327E00868C068C7687868C6
:1008200084422BD3381D00F034FBB86A002803D073
:1008300017F1180000F02DFB5A490A680123F86AE5
:1008400083401A430A60391DDFF88021FB6A1420B7
:10085000434302EB030000F0F5FAF86A4E490968D9
:10086000C96A884200D30125DFF890120868006841
:100870000028D1D15FF0FF30306000E030604648A2
:1008800000685249C26A142042438858022800D3A3
:100890000125DFF860020068002806D0012504E089
:1008A000DFF864020168491C01602800F2BDDFF82E
:1008B000B4010068002804D00120DFF83812086075
:1008C0002AE00020DFF82C12086036480068B0FAF1
:1008D00080F1D1F11F0114223C4B02FB01F01858AA
:1008E000002807D1502080F31188BFF34F8FBFF34A
:1008F0006F8FFEE7514303EB010041684968416097
:10090000416810F10802914202D141684968416092
:100910004068C06820490860704710B5C068C46866
:10092000002C07D1502080F31188BFF34F8FBFF305
:100930006F8FFEE714F1180000F0ABFA4948006829
:10094000002813D1201D00F0A4FA16490A680123DB
:10095000E06A83401A430A60211D1C4AE36A14209E
:10096000434302EB030000F06DFA05E014F11801B7
:10097000DFF86C0100F066FA07480068C06AE16AB7
:10098000884205D201200121DFF86821116000E0D2
:10099000002010BD9C4300208C430020A843002071
:1009A000B8430020A443002080B500F03AF807487F
:1009B00000680228F9D35FF08050DFF8201108604A
:1009C000BFF34F8FBFF36F8FEFE70000144100209C
:1009D00038B5002408E0DFF8AC01142101FB04F174
:1009E000084400F01DFA641C072CF4D3DFF898418A
:1009F000200000F015FADFF89451280000F010FAFA
:100A0000DFF8DC0000F00CFA144800F009FA324874
:100A100000F006FADFF8E4000460DFF87401056016
:100A200031BD38B514E000F0D7FA0C48C068C4688E
:100A3000201D00F02EFADFF85C010168491E0160FC
:100A40002868401E286000F0E1FA200000F00CF851
:100A5000034D28680028E6D131BD00002C4300205A
:100A600098430020C443002010B5040094F85100BE
:100A7000002806D1206B00F025F9200000F022F9B3
:100A800010BD94F85100012803D1200000F01AF99C
:100A9000F6E794F851000228F2D0502080F3118834
:100AA000BFF34F8FBFF36F8FFEE7DFF8501008687A
:100AB0000068002805D15FF0FF30DFF830100860D3
:100AC00006E00868C068C0684068DFF82010086069
:100AD0007047000004ED00E04043002004ED00E01A
:100AE00018430020C04300207C3F0008BC43002086
:100AF00018430020B0430020A04300209043002072
:100B000094430020B4430020AC430020F8B5050016
:100B10000C001B480668194F3868001D00F0B9F931
:100B2000002807D138681C490A680123C06A83403D
:100B30009A430A6015F1010F07D1002C05D03868DF
:100B4000011D164800F07EF916E0AD1938684560C1
:100B5000B54206D23868011D0D48006800F07EF9E4
:100B60000AE03868011D0E48006800F077F90D486A
:100B700001688D4200D20560F1BD00008C43002069
:100B8000A043002014410020F04200200443002034
:100B9000944300209C430020A443002040430020B5
:100BA00090430020BC4300202DE9F84304000025B9
:100BB000FFF78BFDDFF84492D9F80000002801D13F
:100BC00000F0BDF88E4F386804426AD1002C15D071
:100BD0008C480068041914F0070F0FD014F10800B6
:100BE00014F00704041B14F0070F07D0502080F303
:100BF0001188BFF34F8FBFF36F8FFEE7002C50D0EB
:100C0000DFF80482D8F80000A0424AD37F480100F0
:100C1000066801E0310036687068A04202D2306890
:100C20000028F7D1D9F8000086423AD075480A6802
:100C3000036802EB030532680A60006840007168CF
:100C4000091B884214D206EB040111F007000028AA
:100C500007D0502080F31188BFF34F8FBFF36F8F01
:100C6000FEE77068001B48607460080000F096F8AA
:100C7000D8F800107068091AC8F800106448D8F84D
:100C800000100268914202D2D8F800100160716829
:100C9000386801437160002030605E480168491C7B
:100CA0000160FFF718FD15F00700002807D050205D
:100CB00080F31188BFF34F8FBFF36F8FFEE72800DB
:100CC000BDE8F28310B50100002837D04D48006818
:100CD000404201EB00044A4960680A68104207D1AB
:100CE000502080F31188BFF34F8FBFF36F8FFEE763
:100CF0002068002807D0502080F31188BFF34F8F61
:100D0000BFF36F8FFEE760680A68104216D0206854
:100D1000002813D16268086882436260FFF7D5FC3F
:100D200039490A68606882180A60200000F036F8C5
:100D300039480168491C0160FFF7CDFC10BD10B4B3
:100D40004FF470523548010011F0070F04D0C91D4F
:100D5000C908C900521A82182C4801600023436058
:100D6000521828480068121AD208D200234802609C
:100D7000002304686360002304682360521A4A60F9
:100D8000006808604868224A106048681E49086088
:100D90005FF000401A49086010BC704710B41B4A4D
:100DA00000E0126811688142FBD3110053681944B6
:100DB000814204D15168406841185160100001001F
:100DC000436819441368994210D10C4913680C68A0
:100DD000A34208D0436811684968CB184360116882
:100DE0000968016004E00968016001E011680160C0
:100DF000824200D0106010BC704700006C4300209D
:100E000080430020843F00087043002054430020AA
:100E100074430020784300207C4300201000002011
:100E200010F1080141605FF0FF31816010F10801AD
:100E3000C16010F1080101610021016070470021CB
:100E40000161704742684A6093688B60936859609B
:100E5000916008610168491C0160704710B40B681B
:100E600013F1010F01D1026907E010F1080200E05F
:100E7000526854682468A342FAD253684B604B68A6
:100E800099608A60516008610168491C016010BC6A
:100E900070470169826843689A60426883685A6053
:100EA0004A68824201D182684A6000220261086871
:100EB000401E086008687047001F5FF08073036081
:100EC000001F490849000160001F0FF21501016071
:100ED00014380260001F7FF0020101602038704763
:100EE0007248006810F1010F07D0502080F311887C
:100EF000BFF34F8FBFF36F8FFEE7502080F3118851
:100F0000BFF34F8FBFF36F8FFEE7E0B5684801680E
:100F1000684A914207D1502080F31188BFF34F8F68
:100F2000BFF36F8FFEE700686349884207D1502006
:100F300080F31188BFF34F8FBFF36F8FFEE75F48D9
:100F400001780191FF21017001788DF800109DF862
:100F5000001011F050015A4A11705A4907220A60D4
:100F600007E00A68521E0A609DF8002052008DF8C2
:100F700000209DF800201206F3D40A68D2F107027F
:100F8000042A07D0502080F31188BFF34F8FBFF39E
:100F90006F8FFEE70A6812020A600A6812F4E062C4
:100FA0000A60019901704848016851F470010160BC
:100FB000016851F07041016000F074FA00203B4973
:100FC000086000F0D3FA4148016851F040410160E7
:100FD00000F0BCFA00200EBD502080F31188BFF352
:100FE0004F8FBFF36F8F31490A68521C0A6009683E
:100FF00001290AD136490968090606D080F311880B
:10100000BFF34F8FBFF36F8FFEE770472749086824
:10101000002807D1502080F31188BFF34F8FBFF312
:101020006F8FFEE70868401E08600868002802D13C
:10103000002080F31188704780B5502080F311881C
:10104000BFF34F8FBFF36F8FFFF7B7FB002803D0BD
:101050005FF080501E490860002080F3118801BDB8
:10106000EFF3058010280FD31A490968085C14496A
:101070000978C0B2884207D2502080F31188BFF3AC
:101080004F8FBFF36F8FFEE70E4800681249096863
:1010900011F4E061884207D2502080F31188BFF339
:1010A0004F8FBFF36F8FFEE77047000000000020F6
:1010B00000ED00E071C20F4170C20F4100E400E09A
:1010C000CC4300208443002020ED00E034EF00E01A
:1010D00004ED00E0883F00080CED00E08D4B03605C
:1010E0008D48086080201060704710B5A0B08B4814
:1010F0008B49016008224260002202810222827232
:10110000884AC260802303824FF4807343828648FA
:1011100001600C2141600021018102218172C260C5
:101120004FF4805101824FF40051418268467F495B
:10113000102200F029FA0021684600F0D0FA7C491C
:10114000086019A87B491C2200F01EFA7A4C002185
:1011500019A800F08AFA206012A878491C2200F031
:1011600013FA002112A800F080FA20600BA874493D
:101170001C2200F009FA00210BA800F076FA714950
:10118000086004A870491C2200F0FEF9002104A8A0
:1011900000F06BFA6D49086020B010BD80B50120E9
:1011A00000F092FAFBE770B55C4C43F2AF66310099
:1011B000200000F0D7F85C4D3100280000F0D2F894
:1011C00011E001222900200000F053F940F6B83068
:1011D00000F07AFA00222900200000F04AF94FF4CA
:1011E0007A7000F071FA5A4800780028E9D0022895
:1011F00006D00AD200222900200000F03AF9F2E7D6
:1012000042F2107000F060FAEDE7ECE770B514E020
:101210000020504908700DE000204F490978E4B2E1
:101220000C43F6B23443C0B20443002CF0D001208A
:10123000484908700A2000F047FA484D4FF4006111
:10124000280000F06EFB002803D0012042490870FE
:1012500002E00020404908704FF48061280000F04F
:1012600060FB002801D1012400E000244FF400714C
:10127000280000F056FB002801D1012600E00026DE
:101280004FF48071280000F04CFB0028C4D10120ED
:10129000C3E710B503E0FFE7642000F015FA304C17
:1012A0002078002805D0022832D01ED30328F3D09E
:1012B000F1E728480078002813D00220244908705C
:1012C00025480078002805D000221749134800F06F
:1012D000D0F809E0012020701C48006800F015FAE1
:1012E00002E000201A490870D6E700220E490B4898
:1012F00000F0BFF817480078002808D100202070BF
:101300000020134908701148006800F003FAC3E791
:10131000C2E70000A0410020143F0020C842002086
:101320003C42002000100240DC4200200C3F00083C
:1013300068430020383E00085C430020543E00080B
:10134000703E0008604300208C3E0008644300208B
:10135000CA430020C8430020C9430020000C0240BB
:10136000CB4300200268D2680B009BB29A4220D384
:101370004268002A05D10A0092B203681B685A63CA
:1013800016E04268042A05D10A0092B203681B687D
:101390009A630DE04268082A05D10A0092B20368F8
:1013A0001B68DA6304E00A0092B203681B681A64DF
:1013B0000181704710B504000022218AE06800F026
:1013C000B9FA0022618AE06800F0B4FA0220A07243
:1013D00010BD10B504000122218AE06800F0AAFACD
:1013E0000022618AE06800F0A5FA0020A07210BD1A
:1013F00010B504000022218AE06800F09BFA012267
:10140000618AE06800F096FA0120A07210BD80B5F4
:10141000C9B2002903D0022907D003D308E0FFF79F
:10142000D8FF07E0FFF7E4FF04E0FFF7C3FF01E0A8
:10143000FFF7C0FF01BD10B50C000021FFF7E7FF6B
:1014400000212000FFF7E3FF10BD10B50C000121C3
:10145000FFF7DDFF01212000FFF7D9FF10BD10B518
:101460000C000221FFF7D3FF02212000FFF7CFFF7E
:1014700010BD80B5D2B2002A06D0022A0AD006D307
:10148000042A0BD009D30AE0FFF7E9FF09E0FFF7D0
:10149000D2FF06E0FFF7D9FF03E002E001E0FFF72B
:1014A000DEFF01BD0848002101600021074A1160EC
:1014B000074909684FF47A72B1FBF2F1491E054AF7
:1014C000116007210160704710E000E018E000E0C3
:1014D0000800002014E000E0EFF30980BFF36F8FF5
:1014E000264B1A681EF0100F08BF20ED108A20E965
:1014F000F04F106009B44FF0500080F31188BFF333
:101500004F8FBFF36F8FFFF7D2F94FF0000080F3DA
:10151000118809BC19680868B0E8F04F1EF0100F78
:1015200008BFB0EC108A80F30988BFF36F8F704753
:10153000124B19680868B0E8F04F80F30988BFF3D0
:101540006F8F4FF0000080F3118870470C480068DF
:10155000006880F308884FF0000080F3148862B6BA
:1015600061B6BFF34F8FBFF36F8F00DFDFF814005A
:10157000016841F470010160704700008C43002055
:1015800008ED00E088ED00E0103A07D330B4B1E890
:101590003810103AA0E83810F9D230BC530724BFF5
:1015A000B1E80810A0E8081044BF51F8043B40F827
:1015B000043BD20724BF31F8022B20F8022B44BF92
:1015C0000B7803707047121F17D35B0009D151F8D5
:1015D000043B20F8023B1B0C121F20F8023BF6D202
:1015E0000BE051F8043B00F8013B1B0A20F8023BDA
:1015F0001B0C121F00F8013BF3D238BF121D521E04
:1016000024BF11F8013B00F8013BF8D870470EE009
:1016100002684368024408305FEAC37C44BF4B441D
:101620005B1E52F804CB43F804CB091FF9D150F8E4
:10163000041B0029ECD17047010000200A0012B2FF
:10164000842A03D009B2C91C091808007047EFF3B7
:101650000580002801D0012000E00020C0B27047C2
:1016600080B5FEF7EBFF002002BD38B584B0040062
:101670000D006069002815D0A069002812D0B4F9C7
:101680000800FFF7D9FFA1690291616901910090FB
:101690002B00226921686068FEF776FD03900398AD
:1016A00005B030BDB4F90800FFF7C6FF03A90191EA
:1016B00000902B00226992B221686068FEF7A6FDB7
:1016C0000128ECD00020EBE780B50121B0FBF1F060
:1016D000002800D10120FEF77AFE002002BD80B56F
:1016E000816800290BD0C168002908D00021009131
:1016F000C36882684168006800F08BF904E000224A
:101700004168006800F0D9F902BD80B5FEF785FE9A
:10171000002002BD10B50400FFF799FF00280DD08E
:101720002000FEF741FF01280BD15FF080500649F1
:101730000860BFF34F8FBFF36F8F02E02000FEF70A
:10174000F3FE002010BD000004ED00E0F8B400221C
:1017500000220022002337E0082704E0DFF8E82118
:101760009042F9D10727FFB213F00302D2B29200E0
:1017700097403E431A00920845F82260DFF8CC51AA
:101780002A68A2434E68F60200D522432A60DFF899
:10179000C0512A68A2434E68B60200D522432A608F
:1017A000DFF8B0512A68A2434E68B60300D5224341
:1017B0002A60DFF8A4512A68A2434E68F60301D5D7
:1017C000144322002A605B1C102B80F0A8800125A6
:1017D00015FA03F20C6814409442F4D10A7912F01D
:1017E0000302012A04D00A7912F00302022A16D158
:1017F000866803271A00D2B252009740BE43CF68D2
:101800001A00D2B2520097403E43866042689D4023
:10181000AA434D68C5F300159D402A4342600A79EA
:1018200012F00302032A0DD0C56803261A00D2B2B3
:1018300052009640B5438E681A00D2B252009640CC
:101840003543C5600A7912F00302022A17D11A0043
:10185000D20800EB8202156A0F2613F00702D2B2FB
:1018600092009640B5430E6913F00702D2B292007F
:10187000964035431A00D20800EB820215620568D3
:1018800003261A00D2B252009640B5430E7916F0E4
:1018900003061A00D2B252009640354305604A68EA
:1018A00012F4403F8FD0002200922C4A156855F464
:1018B00080451560126812F480420092009A284D0B
:1018C0001A00920855F822600F2713F00302D2B2D3
:1018D00092009740BE43234A904201D1002742E73D
:1018E000214A904201D101273DE7204A904201D18F
:1018F000022738E71E4A904201D1032733E71D4AE9
:10190000904201D104272EE71B4A904201D10527BE
:1019100029E71A4A90427FF421AF062723E7F1BC5A
:101920007047006989B2084201D0012000E0002020
:10193000C0B27047D2B2002A02D089B2816102E0FF
:1019400089B2090481617047001C0240083C0140D3
:101950000C3C0140043C0140003C01404438024042
:101960000838014000000240000402400008024024
:10197000000C024000100240001402400018024017
:1019800038B504000D00002C07D1502080F31188D9
:10199000BFF34F8FBFF36F8FFEE7FFF71DFB21688B
:1019A000E26B206C424301EB0200A0600020A063C8
:1019B000206860602168E26B521E206C424301EB9C
:1019C0000200E0605FF0FF3084F8440084F84500D6
:1019D000002D12D12069002817D014F11000FEF755
:1019E0009CFF002811D05FF08050DFF834110860B0
:1019F000BFF34F8FBFF36F8F07E014F11000FFF7B5
:101A00000FFA14F12400FFF70BFAFFF7FFFA012099
:101A100032BD38B51C00002807D1502080F3118852
:101A2000BFF34F8FBFF36F8FFEE7002C07D150201D
:101A300080F31188BFF34F8FBFF36F8FFEE7002A4B
:101A400001D0002901D0012300E00023DBB2002BEC
:101A500007D1502080F31188BFF34F8FBFF36F8FF2
:101A6000FEE7002A01D1002901D1012300E0002373
:101A7000DBB2002B07D1502080F31188BFF34F8FCA
:101A8000BFF36F8FFEE748230093009B482B07D0DE
:101A9000502080F31188BFF34F8FBFF36F8FFEE7A5
:101AA000009B002C07D0049B012584F8465000942D
:101AB000DBB200F027F8200032BDF8B505000E00BB
:101AC0001700002D07D1502080F31188BFF34F8FEE
:101AD000BFF36F8FFEE706FB05F04830FFF764F8B1
:101AE0000400002C0CD0200010F14802002084F8E3
:101AF000460000943B00DBB23100280000F002F801
:101B00002000F2BD80B5029B002901D11B6000E0DE
:101B10001A60D863196401211800FFF731FF01BD75
:101B200004ED00E010B50400002C01D101202FE0ED
:101B300094F83D00002805D1002084F83C002000E6
:101B400000F0E1FC022084F83D00211D206800F037
:101B5000F0FA012084F84600012084F83E000120BC
:101B600084F83F00012084F84000012084F84100FF
:101B7000012084F84200012084F84300012084F809
:101B80004400012084F84500012084F83D00002035
:101B900010BD90F83D10012901D0012043E0022141
:101BA00080F83D100168C96851F001010268D160F8
:101BB0000168DFF87420914221D00168B1F1804FB3
:101BC0001DD00168DFF86420914218D00168DFF869
:101BD0006020914213D00168DFF8582091420ED066
:101BE0000168DFF85420914209D00168DFF84C20E9
:101BF000914204D00168DFF8482091420CD101687D
:101C0000896811F0070106290CD00168096851F0B4
:101C100001010068016005E00168096851F00101F7
:101C2000006801600020704700000140000400408F
:101C300000080040000C004000040140004001404A
:101C40000018004010B50400002C01D101202FE045
:101C500094F83D00002805D1002084F83C002000C5
:101C600000F096FC022084F83D00211D206800F061
:101C700060FA012084F84600012084F83E0001202B
:101C800084F83F00012084F84000012084F84100DE
:101C9000012084F84200012084F84300012084F8E8
:101CA0004400012084F84500012084F83D00002014
:101CB00010BD10B50400002902D194F83E000BE0DD
:101CC000042902D194F83F0006E0082902D194F8D3
:101CD000400001E094F84100012801D001206BE0B0
:101CE000002904D1022084F83E00C0B211E004298A
:101CF00004D1022084F83F00C0B20AE0082904D1D0
:101D0000022084F84000C0B203E0022084F84100C1
:101D1000C0B20122206800F07FFBDFF8A01020682D
:101D2000884204D02068DFF89820904201D1012039
:101D300000E00020C0B2002805D02068406C50F4BC
:101D40000040226850642068884221D02068B0F1A9
:101D5000804F1DD02068DFF86C10884218D02068B2
:101D6000DFF86410884213D02068DFF860108842E2
:101D70000ED02068DFF84810884209D02068DFF8CC
:101D80005010884204D02068DFF8481088420CD1F7
:101D90002068806810F0070006280CD020680068D2
:101DA00050F001002168086005E02068006850F0EC
:101DB000010021680860002010BD00000000014003
:101DC000000401400004004000080040000C0040F6
:101DD000004001400018004010B504002068006970
:101DE00080071AD52068C068800716D57FF00200EA
:101DF00021680861012020772068806910F0030FB6
:101E000003D0200000F0C5FB05E0200000F0C2FB7D
:101E1000200000F0C0FB0020207720680069400708
:101E20001AD52068C068400716D57FF004002168E5
:101E30000861022020772068806910F4407F03D079
:101E4000200000F0A6FB05E0200000F0A3FB20002E
:101E500000F0A1FB002020772068006900071AD558
:101E60002068C068000716D57FF008002168086167
:101E7000042020772068C06910F0030F03D02000F1
:101E800000F087FB05E0200000F084FB200000F05C
:101E900082FB0020207720680069C0061AD52068E0
:101EA000C068C00616D57FF01000216808610820C0
:101EB00020772068C06910F4407F03D0200000F034
:101EC00068FB05E0200000F065FB200000F063FBEC
:101ED0000020207720680069C0070AD52068C06804
:101EE000C00706D57FF0010021680861200000F0DE
:101EF000C2FB2068006900060AD52068C068000699
:101F000006D57FF0800021680861200000F0C6FB44
:101F10002068006940060AD52068C068400606D5DA
:101F20007FF0400021680861200000F0B8FB2068C5
:101F3000006980060AD52068C068800606D57FF053
:101F4000200021680861200000F0AAFB10BD70B5D8
:101F500004000E00002594F83C00012801D1022065
:101F60006FE0012084F83C00002A06D0042A1BD030
:101F7000082A31D00C2A46D05DE03100206800F0FC
:101F800037F92068806950F008002168886120686E
:101F9000806930F0040021688861206881693069B7
:101FA00001432068816147E03100206800F052F968
:101FB0002068806950F40060216888612068806929
:101FC00030F480602168886120688069316950EA56
:101FD0000120216888612FE03100206800F072F94B
:101FE0002068C06950F008002168C8612068C06995
:101FF00030F004002168C8612068C169306901437C
:102000002068C16118E03100206800F091F9206873
:10201000C06950F400602168C8612068C06930F46C
:1020200080602168C8612068C069316950EA012078
:102030002168C86100E00125002084F83C002800E8
:10204000C0B270BD38B50400002594F83C000128EA
:1020500001D102206CE0012084F83C00022084F8C9
:102060003D002068806830F0770030F47F402268BF
:102070009060086800284DD010284BD0202849D007
:10208000302847D040283BD0502825D060282DD07C
:10209000702807D0B0F5805F03D0B0F5005F0ED098
:1020A0003DE03DE0CB684A688968206800F0A9F906
:1020B0002068806850F077002168886030E0CB6845
:1020C0004A688968206800F09CF92068806850F4AC
:1020D00080402168886023E0CA684968206800F071
:1020E00063F95021206800F084F919E0CA68496852
:1020F000206800F06BF96021206800F07AF90FE0A9
:10210000CA684968206800F04FF94021206800F053
:1021100070F905E00968206800F06BF900E001251E
:10212000012084F83D00002084F83C002800C0B263
:1021300032BD10B40468DFF84432984212D0B0F1D6
:10214000804F0FD0DFF8382290420BD0DFF83422D6
:10215000904207D0DFF83022904203D0DFF82C22E3
:10216000904203D134F070044A681443984227D057
:10217000B0F1804F24D0DFF80822904220D0DFF861
:10218000042290421CD0DFF80022904218D0DFF8E1
:10219000FC21904214D0DFF8F821904210D0DFF8F3
:1021A000F42190420CD0DFF8F021904208D07B4A15
:1021B000904205D07A4A904202D07A4A904203D1A6
:1021C00034F44074CA68144334F080044A691443F8
:1021D00004608A68C2620A688262984202D06B4ACE
:1021E000904201D1096901630121416110BC70472E
:1021F00070B4026A520852000262046A4568836938
:1022000033F070039B089B000A68134334F0020408
:102210008A681443594EB04202D05C4A904205D1BC
:1022200034F00804CA68144334F00404B04202D005
:10223000564A904207D135F4807535F400754A69E5
:1022400015438A69154345608361496841630462A7
:1022500070BC704770B4026A32F010020262036A06
:102260004468826932F4E04232F440720D6852EA06
:10227000052233F020038D6853EA05133F4DA84231
:1022800002D0424EB04206D133F08003CE6853EA0A
:10229000061333F04003A84202D03C4DA84209D1B6
:1022A00034F4806434F400644D6954EA85048D6923
:1022B00054EA85044460826149688163036270BCAA
:1022C0007047000070B4026A32F480720262046ADD
:1022D0004568C36933F070039B089B000A68134389
:1022E00034F400748A6854EA0224244A904202D0EA
:1022F000264EB04206D134F40064CE6854EA062477
:1023000034F48064904202D0204A904209D135F4DE
:10231000805535F400554A6955EA02158A6955EA2F
:1023200002154560C3614968C163046270BC7047AF
:1023300030B4026A32F480520262036A4468C269AD
:1023400032F4E04232F440720D6852EA052233F46E
:1023500000538D6853EA0533084DA84202D00B4D57
:10236000A84204D134F480444D6954EA8514446091
:10237000C26149680164036230BC704700000140DB
:102380000004004000080040000C00400004014030
:102390000040014000440140004801400018004056
:1023A000001C00400020004010B4046A036A5B086F
:1023B0005B000362836933F0F00353EA021334F0E5
:1023C0000A0421438361016210BC704710B4036AA0
:1023D00033F0100303628369046A33F4704353EAF1
:1023E000023334F0A00454EA01148361046210BC87
:1023F0007047826832F07002114351F0070181602A
:10240000704710B4846834F47F442143114351EA87
:102410000321816010BC704710B4012411F01F0328
:1024200014FA03F3046A34EA03030362036A11F043
:102430001F0112FA01F11943016210BC704700003C
:1024400018B58DB01022002109A800F02AF9082241
:102450000021684600F025F91C22002102A800F0A6
:1024600020F9464C46482060002060600020A060B3
:1024700043F67F60E060002020610020A061200022
:10248000FFF750FB002801D000F006F94FF4805010
:10249000099009A92000FFF7D5FD002801D000F020
:1024A000FBF82000FFF7CEFB002801D000F0F4F885
:1024B00030200090002001906946200000F0FCF8D8
:1024C000002801D000F0E8F870200290002003906E
:1024D0000220049000200690082202A92000FFF7A5
:1024E00036FD002801D000F0D7F80C2202A9200008
:1024F000FFF72DFD002801D000F0CEF8200000F0FD
:1025000015F80EB010BD81B000681D4988420BD18E
:10251000002000901B48016851F002010160006832
:1025200010F002000090009801B0704710B586B01E
:1025300004001422002101A800F0B3F8206810491B
:10254000884219D1002000900F48016851F0020123
:102550000160006810F002000090009803200190D4
:102560000220029000200390002004900220059099
:1025700001A90648FFF7EAF806B010BD3C4200206A
:10258000000400404038024030380240000402405D
:10259000704770477047704710B500F0E1F800F0E1
:1025A00016F800F0F7F800F03DFA00F0B1FAFFF786
:1025B00047FF354C08212000FFF77BFB0C21200052
:1025C000FFF777FBFEF791FDFFF74AF8FEE780B5CE
:1025D00092B03022002106A800F063F814220021F6
:1025E00001A800F05EF8002000902848016851F032
:1025F00080510160006810F0805000900098002029
:1026000000902348016851F480410160006810F493
:10261000804000900098012006905FF48030079081
:1026200002200C905FF480000D9008200E904FF473
:10263000A8700F90022010900720119006A800F0BB
:10264000C1FA002801D000F027F80F2001900220E5
:102650000290002003904FF4A05004904FF480505B
:102660000590052101A800F08FFC002801D000F0A2
:1026700013F813B000BD80B500680649884201D147
:1026800000F060FD01BD00003C42002040380240E7
:10269000007000400000014072B6FEE770477047CE
:1026A000704710B5044610460A460146204600F021
:1026B00055FD204610BD000010B490F83C20012AC2
:1026C00001D102203CE0012280F83C20022280F867
:1026D0003D20026854680268936834F070040A6808
:1026E0001443026854600268164CA2421BD0026870
:1026F000B2F1804F17D00268134CA24213D0026887
:10270000124CA2420FD00268114CA2420BD00268B8
:10271000104CA24207D002680F4CA24203D00268BC
:102720000E4CA24205D133F0800349680B43016887
:102730008B60012180F83D10002180F83C100020C2
:1027400010BC704700000140000400400008004039
:10275000000C00400004014000400140001800400F
:1027600080B50B48016851F400710160016851F4B3
:1027700080610160016851F480710160032000F004
:1027800071FD0F2000F092FD00F0D2FD002002BD8F
:10279000003C02402DE9F84386B01422002168462F
:1027A000FFF77FFF002005909848016851F0100165
:1027B0000160016811F01001059105990021059152
:1027C000016851F004010160016811F004010591F4
:1027D000059900210591016851F0800101600168AF
:1027E00011F080010591059900210591016851F0D2
:1027F00001010160016811F00101059105990021B5
:102800000591016851F002010160016811F00201B7
:102810000591059900210591016851F008010160B9
:10282000006810F0080005900598794C002243F2EA
:1028300088112000FFF77EF8764D01220121280043
:10284000FFF778F84FF21006734F0022310038007E
:10285000FFF770F8082000900120019000200290FE
:102860000020039069462000FEF770FF01200090D1
:10287000012001900020029000200390694628006A
:10288000FEF764FF082000900220019000200290D3
:10289000002003900520049069462800FEF756FFAB
:1028A000012000905FF49018CDF804800020029081
:1028B000DFF8689169464846FEF748FF102000900F
:1028C0000220019000200290002003900620049036
:1028D00069464846FEF73AFFE0200090022001904A
:1028E000002002900020039005200490694648468D
:1028F000FEF72CFF4FF20400009000200190002012
:102900000290DFF81C9169464846FEF71FFF4FF41E
:10291000C0700090012001900220029001200390DD
:1029200069462000FEF712FF4FF4C06000900020BF
:1029300001900020029069462000FEF707FF4FF447
:10294000405000900120019002200290002003904E
:1029500069462000FEF7FAFE4FF4806000900220E6
:102960000190002002900020039005200490694609
:102970004846FEF7EBFE4FF4726000900020019095
:102980000020029069463800FEF7E0FE0096012024
:102990000190002002900020039069463800FEF765
:1029A000D5FE4FF4A4500090022001900020029028
:1029B000002003900620049069462800FEF7C6FE1A
:1029C0004FF410700090122001900120029000201E
:1029D00003900420049069464846FEF7B7FE802025
:1029E0000090002001900120029069464846FEF7C1
:1029F000ADFE02200090CDF80480002002906946D0
:102A00002000FEF7A3FE07B0BDE8F0833038024097
:102A10000010024000080240000C0240000002408A
:102A20000004024080B535485FF0A04101600821F4
:102A300081600121C16000210161022181610021C9
:102A4000C16100F099FC002801D0FFF725FE01BD0F
:102A500010B586B00400142200216846FFF721FE5D
:102A60002068B0F1A04F46D10020059024480168AD
:102A700051F001010160006810F001000590059817
:102A80004FF40070009000200190002002901D4C37
:102A900069462000FEF75AFE4FF480600090022045
:102AA000019000200290032003900A2004906946C0
:102AB0002000FEF74BFE4FF4C05000900220019022
:102AC00000200290002003900A2004906946200014
:102AD000FEF73CFE0C48016851F0800101600020C7
:102AE00005900A48016851F480410160006810F4C3
:102AF00080400590059806B010BD0000103C0020F5
:102B0000303802400000024034380240443802406D
:102B100080B52748274901605FF4E13141604FF4F7
:102B2000805181600021C1604FF4C06101610C21BE
:102B30004161002181610021C16100F059FC002840
:102B400001D0FFF7A9FD01BD10B586B00400142225
:102B5000002101A8FFF7A5FD20681649884225D16C
:102B6000002000901448016851F4003101600068B1
:102B700010F4003000900098002000900F48016889
:102B800051F001010160006810F001000090009810
:102B90000C2001900220029000200390032004905A
:102BA0000720059001A90648FEF7D0FD06B010BD2C
:102BB0008442002000440040403802403038024047
:102BC000000002402DE9FC410400002C01D101204D
:102BD000C4E12078C0075FD5DFF88403016811F0F5
:102BE0000C01042909D0006810F00C0008280ED14F
:102BF000DFF870030068400209D5DFF86C03006855
:102C0000800349D56068002846D10120A6E16068AC
:102C1000B0F5803F06D1DFF85003016851F48031F0
:102C2000016018E06068B0F5A02F0AD1DFF8380322
:102C3000016851F480210160016851F48031016024
:102C400009E0DFF82403016831F480310160016894
:102C500031F480210160606800280ED000F07EFD14
:102C60000500DFF804030068800315D400F076FD4A
:102C7000401B6528F5D3032070E100F06FFD0500CF
:102C8000DFF8E4020068800306D500F067FD401B12
:102C90006528F5D3032061E1207880071DD5B04871
:102CA000016811F00C0F08D0006810F00C00082823
:102CB0002AD1AC480068400226D4AB480168890795
:102CC00004D5E168012901D0012047E1016831F014
:102CD000F801226951EAC20101602078000751D54C
:102CE000606900283DD00120A049086000F036FD51
:102CF00005009F480068800744D400F02FFD401B6A
:102D00000328F6D3032029E1E068002818D0012029
:102D10009849086000F022FD050093480168890782
:102D200006D400F01BFD401B0328F6D3032015E159
:102D3000016831F0F801226951EAC2010160CCE773
:102D400000208C49086000F009FD050086480068F5
:102D50008007C2D500F002FD401B0328F6D30320F4
:102D6000FCE000208149086000F0F8FC0500804884
:102D70000068800706D500F0F1FC401B0328F6D35D
:102D80000320EBE0207840076FD500267A4D2868B5
:102D9000C0000BD400200090286850F080502860BC
:102DA000286810F08050009000980126734F386812
:102DB000C00511D4386850F48070386000F0CEFC43
:102DC00080463868C00507D400F0C8FCB0EB0800A6
:102DD0000328F6D30320C1E0A068012805D1684884
:102DE000016851F00101016015E0A068052809D1D2
:102DF0006348016851F004010160016851F001016C
:102E0000016008E05E480168490849000160016806
:102E100031F004010160A06800280FD000F09EFC92
:102E2000070057480068800718D400F097FCC01BC3
:102E300041F289318842F4D303208FE000F08EFC08
:102E400007004F480068800708D500F087FCC01BCA
:102E500041F289318842F4D303207FE0F6B2012E9B
:102E600003D1286830F080502860A069002874D011
:102E70003B48006810F00C00082843D0A0690228E5
:102E80002FD1404E0020306000F068FC0700364D26
:102E90002868800106D500F061FCC01B0328F6D32A
:102EA00003205BE0E169206A0143606A51EA801116
:102EB000A06A4008401E51EA0041E06A51EA006100
:102EC000284801600120306000F048FC04002868B8
:102ED000800142D400F042FC001B0328F7D30320FA
:102EE0003CE000202749086000F038FC04001E4840
:102EF0000068800131D500F031FC001B0328F6D3B7
:102F000003202BE0A069012801D1012026E015480B
:102F10000068A16901291ED010F48001E269914284
:102F200019D110F03F01226A914214D147F6C071C5
:102F30000140626AB1EB821F0DD110F44031A26AE8
:102F40005208521EB1EB024F05D110F07060E16AD9
:102F5000B0EB016F01D0012000E00020BDE8F68158
:102F6000083802400438024000380240800E4742D0
:102F70007438024000004742403802400070004070
:102F800070380240600047422DE9F04104000E0015
:102F9000002C01D1012092E0634D286810F0070059
:102FA000B04207D22E70286810F00700B04201D05E
:102FB000012084E02078800716D52078400704D5CA
:102FC0005A48016851F4E05101602078000704D5A7
:102FD0005648016851F46041016054490A6832F072
:102FE000F002A06802430A602078C00735D5606807
:102FF000012805D14E480068800313D401205EE00B
:103000006068022802D06068032805D1484800683B
:10301000800107D4012052E045480068800701D4B0
:1030200001204CE0414F39688908890060680143FC
:10303000396000F093FB8046386810F00C0061683E
:10304000B0EB810F09D000F089FBB0EB080041F232
:1030500089318842F0D3032031E0286810F007005E
:10306000864207D22E70286810F00700B04201D0C7
:10307000012024E02078400706D52C490A6832F464
:10308000E052E06802430A602078000707D527482D
:10309000016831F46041226951EAC201016000F027
:1030A00063FB2449214A1268C2F30312895CC840B9
:1030B000214908602148006800F0F8F80020BDE8C8
:1030C000F0811D480068704780B5FFF7FAFF1C4982
:1030D000164A1268C2F38222895CC84002BD80B5DC
:1030E000FFF7EFFF1649114A1268C2F34232895CBA
:1030F000C84002BD0F2202600C4A136813F003039C
:103100004360136813F0F0038360136813F4E05313
:10311000C3601268D20812F4E052026102480068EB
:1031200010F0070008607047003C02400838024079
:10313000003802401C3F0008080000200400002066
:10314000743F000803480168034A12788918016037
:10315000704700BF884300200C00002062F30F225C
:1031600062F31F42401810F0030308D0C91A1FD39E
:10317000DB0748BF00F8012D28BF20F8022D1300FF
:1031800030B414461546103928BF20E93C00FAD85F
:10319000490728BF20E90C0048BF40F8042D8900EA
:1031A00028BF20F8022D48BF00F8012D30BC704721
:1031B000C91818BF00F8012DCB0728BF00F8012D52
:1031C0007047000010F00700334B1A684FF6FF01FC
:1031D0000A4052EA0022314802431A6070472E48E2
:1031E0000068C0F302207047010049B2002908D4EA
:1031F000012210F01F018A40294940B2400941F8DC
:1032000020207047020052B2002A04D40901254A46
:1032100040B2115407E00901234A40B210F00F00F8
:10322000104400F8041C704710B410F00700D0F1EF
:103230000703052B01D3042301E0D0F10703041D8C
:10324000072C01D2002000E0C01E012414FA03F371
:103250005B1E1940814014FA00F0401E10400843E4
:1032600010BC704780B5FFF7ADFF01BD70B504001D
:103270000D0016000020FFF7B2FF32002900FFF713
:10328000D3FF0100200040B2FFF7BCFF70BD80B546
:1032900040B2FFF7A9FF01BD0CED00E00000FA0508
:1032A00000E100E000E400E018ED00E018B587B0B0
:1032B00001000020002000221920FFF7D7FF19206D
:1032C000FFF7E5FF002000901548016851F001016B
:1032D0000160006810F001000090009801A902A8A8
:1032E000FFF708FFFFF7FBFE40000E49B0FBF1F0CF
:1032F000401E0D4C0D49216040F2E731E1606060F5
:10330000002020610020A0602000FEF70BFC0028B8
:1033100003D12000FEF73DFC00E0012008B010BD05
:103320004438024040420F00F441002000000140B8
:1033300080B5002000900E48016851F48041016082
:10334000006810F480400090009800200090094828
:10335000016851F080510160006810F080500090C9
:10336000009800220F217FF00100FFF77FFF01BDD1
:10337000443802404038024038B58AB00400002C7E
:1033800001D1012031E0256894F8F902002805D127
:10339000002084F8F8022000FFF75AFB032084F88D
:1033A000F902E86BC00501D400202061206800F01C
:1033B0005BFA211D83B068463422FEF7E5F80EBCA7
:1033C000206800F011FA0121206800F053FA211D55
:1033D00083B068463422FEF7D7F80EBC206800F0B0
:1033E000F7FA012084F8F90200200BB030BD00008C
:1033F00010B50400002C01D1012033E0A0690028A1
:10340000FFD194F83D00002805D1002084F83C004D
:103410002000FFF799FB242084F83D002068C06855
:1034200030F400502168C860200000F01CF82068CB
:10343000006930F49040216808612068406930F0EC
:103440002A00216848612068C06850F40050216853
:10345000C86000202064202084F83D00202084F8EB
:103460003E00002010BD2DE9FE4F050028680169CF
:1034700031F44051E868014328680161A96828696E
:10348000014368690143E86901432868C268B0489C
:10349000024011432868C1602868416931F44071D5
:1034A000A8690143286841612868AA49884203D075
:1034B0002868A949884203D1FFF711FE040002E001
:1034C000FFF702FE0400E869B0F5004F40F09F806E
:1034D0007FF0630A022600275FF019085FF00009F9
:1034E00022000023A8FB020108FB031109FB0211C3
:1034F000CDE9000168680021A6FB002306FB01332B
:1035000007FB0033DDE9000100F0F0FA6421B0FBB5
:10351000F1F0029022000023A8FB020108FB031136
:1035200009FB0211CDE9000168680021A6FB002318
:1035300006FB013307FB0033DDE9000100F0D6FA9A
:10354000834622000023A8FB020108FB031109FBAC
:103550000211CDE9000168680021A6FB002306FBEB
:10356000013307FB0033DDE9000100F0BFFA6421FD
:10357000B0FBF1F00AFB00B0C00032306421B0FBB8
:10358000F1F0400010F4F870029910EB0110029075
:1035900022000023A8FB020108FB031109FB021112
:1035A000CDE9000168680021A6FB002306FB01337A
:1035B00007FB0033DDE9000100F098FA83462000A4
:1035C000002102000B00A8FB020108FB031109FB0C
:1035D00002116A68002390469946A6FB082306FB61
:1035E000093307FB083300F081FA6421B0FBF1F0E6
:1035F0000AFB00BA5FEACA0032306421B0FBF1F185
:1036000011F0070102980918286881609CE00426DF
:1036100000277FF0630A5FF019085FF000092200BD
:103620000023A8FB020108FB031109FB0211CDE9ED
:10363000000168680021A6FB002306FB013307FB9D
:103640000033DDE9000100F051FA6421B0FBF1F034
:10365000029022000023A8FB020108FB031109FBD2
:103660000211CDE9000168680021A6FB002306FBDA
:10367000013307FB0033DDE9000100F037FA834630
:1036800022000023A8FB020108FB031109FB021121
:10369000CDE9000168680021A6FB002306FB013389
:1036A00007FB0033DDE9000100F020FA6421B0FBE4
:1036B000F1F00AFB00B0000132306421B0FBF1F000
:1036C00010F0F000029910EB01100290220000238C
:1036D000A8FB020108FB031109FB0211CDE900015F
:1036E00068680021A6FB002306FB013307FB0033BB
:1036F000DDE9000100F0FAF9834620000021020014
:103700000B00A8FB020108FB031109FB02116A6808
:10371000002390469946A6FB082306FB093307FBC6
:10372000083300F0E3F96421B0FBF1F00AFB00BAC2
:103730005FEA0A1032306421B0FBF1F111F00F01A1
:103740000298091828688160BDE8F78F0000000022
:10375000F369FFFF001001400014014001480068B8
:10376000704700BF8843002010B5002000200020D3
:1037700000201948006810F00C00002804D004282C
:1037800004D0082804D025E0144824E0144822E09E
:10379000144C226812F03F022068400209D52068CC
:1037A000C0F388100E49A1FB0001002300F09EF930
:1037B00008E02068C0F388100849A1FB000100233D
:1037C00000F094F92168C1F30141491C4900B0FBA4
:1037D000F1F000E0014810BD083802400024F40078
:1037E00000127A00043802400EB418B5040008989C
:1037F000012817D1A06B30F48030A063E168DFF8B6
:1038000074010140E160E06830F44010E0600F981E
:10381000012803D1E06850F48010E060200000F03F
:10382000B1F812E0E06850F04000E060200000F0E5
:10383000A9F80C99002904D1A16B51F48031A1633E
:1038400003E0A16B31F48031A1630699012907D10E
:10385000A16851F00601A160A16851F02001A160AA
:10386000C0B212BC5DF810FB816849084900816054
:103870000020704738B504000025E06830F0C040F3
:10388000E0600800C0B2012812D1E06850F000509A
:10389000E060012000F042FA6D1C200000F06EF89C
:1038A000012801D0322DF4D3322D16D1012015E09C
:1038B000C9B200290FD1E06850F08040E0600120DB
:1038C00000F02CFA6D1C200000F058F80028EBD016
:1038D000322DF4D3E8E7012000E0002032BD81B0B2
:1038E00000220092009A521C0092DFF88C20009B6C
:1038F000934203D20369002BF4D501E0032012E0C8
:1039000000230093890151F0200101610099491CB5
:1039100000910099914203D201698906F6D401E031
:10392000032000E0002001B0704781B00021009129
:103930000099491C0091DFF84010009A8A4203D296
:103940000269002AF4D501E0032010E00022009271
:1039500010220261009A521C0092009A8A4203D2FD
:103960000269D206F6D401E0032000E0002001B095
:1039700070470000BFFFBDFF410D0300406910F01C
:103980000100704781B0002100910099491C00910D
:10399000DFF84011009A8A4203D20269002AF4D566
:1039A00001E0032012E000220092026952F00102BD
:1039B0000261009A521C0092009A8A4203D2026964
:1039C000D207F6D401E0032000E0002001B07047E8
:1039D0000EB478B5040000252600002016F56061BD
:1039E0000860A06B50F40010A063A06B30F40020BE
:1039F000A063A06B30F48020A063E06BC00514D5F9
:103A00000798012808D116F58060006850F004007E
:103A100016F58061086010E016F58060006830F0EF
:103A2000040016F58061086007E016F58060006804
:103A300030F0040016F58061086010212000FFF7C7
:103A40004EFF002800D001252000FFF76EFF002860
:103A500000D0012500200DE016EB401111F5A0610A
:103A60005FF0FF328A6016EB401111F5A061002271
:103A7000CA60401C06998842EED30020A0615FF026
:103A8000FF306061E06BC0050AD54FF400706062E2
:103A9000DFF84400A062DFF84400C4F8000108E049
:103AA00080206062DFF83800A062DFF83800C4F8D8
:103AB00000010898002803D1A06950F01000A0610F
:103AC000A169DFF824000143A1612800C0B272BCE3
:103AD0005DF810FB410D0300000200010003E0004F
:103AE00080006000E0004000080020A3BBBBE1B103
:103AF000B2F5803F80F07E80022A1ED98C46B1FB51
:103B0000F2F102FB11C31B0443EA1043B3FBF2FCC6
:103B100002FB1C3380B240EA0343B3FBF2F002FB2A
:103B2000103240EA0C4000237047022A05D984462F
:103B3000B0FBF2F002FB10C270474AB105D100F0B1
:103B4000010249085FEA30007047002200237047F5
:103B500000F0F8B80B0002000021002070479042EE
:103B600071EB030CF6D3B3F5803F2FD2F0B5B3FA67
:103B700083F7B1FA81F4A7F10F0E3D1B5340CEF14C
:103B8000200602FA0EF2F3415340B5F10F0746D872
:103B90000F3C2C444140C4F12006A040F14141407B
:103BA000B1FBF3F603FB1611A2FB0645001BA9416E
:103BB00002D2761E8018594180EA010221FA0EF3E2
:103BC00062FA0EF200215A403046F0BD30B4B1FB2B
:103BD000F3FC03FB1C11A2FB0C45001BA94103D203
:103BE000ACF1010C8018594130BC02460B466046CE
:103BF00000217047B2F1807F65D3F0B5B2FA82F749
:103C0000B1FA81F4C7F10F063D1B22FA06F307F162
:103C1000110EF24120355A40B5F10F07B8D9414095
:103C2000C4F12006A040F1414140B1FBF3FC03FB8D
:103C30001C11A2FB0C45001BA94103D2BCF1010CD5
:103C4000801859410F2F12D30F3FC90341EA504149
:103C5000B1FBF3F603FB1611A2FB0645D4EBC03013
:103C6000A94102D2761E8018594146EACC3C07B3DE
:103C70004140C7F12006B840F1414140B1FBF3F6A5
:103C800003FB1611A2FB0645001BA94102D2761EBA
:103C90008018594180EA010221FA0EF3C7F120048D
:103CA00062FA0EF20CFA07F05A402CFA04F1304393
:103CB000F0BD80EA010221FA0EF3002162FA0EF251
:103CC00060465A40F0BD8C46B1FBF2F102FB11C3D5
:103CD0001B0243EA1063B3FBF2FC02FB1C331B0222
:103CE0004CEA002043EA1063B3FBF2FC02FB1C33F6
:103CF0001B024CEA002043EA1063B3FBF2FC02FB18
:103D00001C331B024CEA002043EA1063B3FBF2FCB5
:103D100002FB1C324CEA00200023704738B5040037
:103D2000FFF71CFD050014F1010F02D004480078D4
:103D30002418FFF713FD401BA042FAD331BD00BF8A
:103D40000C000020704730B4002512E050F8042B1E
:103D5000D30744BF4A44521E091F042942F8045B9A
:103D6000FAD213468C0744BF15809B1CC90748BF75
:103D70001D7050F8041B0029E8D130BC70470000CA
:103D800010B5074979441831064C7C44163404E0D8
:103D90000A68081D114488470146A142F8D110BDA8
:103DA0002C0000004C0000004EF68851CEF20001BD
:103DB000086840F470000860BFF34F8FBFF36F8F47
:103DC0004FF00170E1EE100A704700007BFFFFFF2B
:103DD000C0430000100000200000000033D8FFFFA7
:103DE000100000006801000000000020000000003A
:103DF00000F00DF8002801D0FFF7C2FFAFF30080FC
:103E00000020AFF30080FEF7C7FB00F002F80120AE
:103E1000704700F001B800000746384600F002F88D
:103E2000FBE7000080B5AFF30080024A11001820C4
:103E3000ABBEFBE726000200F83E00080D120008AA
:103E400000000000000000008000000000000000F2
:103E500000000000E03E000893120008000000008F
:103E600000000000800000000000000000000000D2
:103E70005C3F00089D1100080000000000000000E9
:103E8000800000000000000000000000683F000803
:103E9000A7110008000000000000000080000000E2
:103EA0000000000000000000FEE7FEE7FEE7FEE77E
:103EB000FEE7704780B50248FDF78EFF01BD0000A8
:103EC000F44100200548014603B4684680F30988A0
:103ED000AFF30080FFF768FFFFF78AFFA5EDF5FE5F
:103EE00049525F73656E736F725F73746174655F5F
:103EF0006368616E6765730049525F73656E736FC7
:103F0000725F636865636B696E67000004000000A0
:103F1000020000000000000000000000000000009F
:103F20000000000001020304060708090148804759
:103F3000014800473D3F0008C53E000802480168AF
:103F400051F470010160704788ED00E0AAAAAAAAA6
:103F5000100000000024F4000100000064656661A8
:103F6000756C745461736B0064656D6F466F727726
:103F700061726400000000000102030449444C45E2
:103F80000000000008000000F0E300E0FFF7FEBFC3
:103F9000FFF7FEBFFFF7FEBFFFF7FEBFFFF7FEBF55
:103FA000FFF7FEBFFFF7FEBFFFF7FEBFFFF7FEBF45
:103FB000FFF7FEBFFFF7FEBFFFF7FEBFFFF7FEBF35
:103FC000FFF7FEBFFFF7FEBFFFF7FEBFFFF7FEBF25
:103FD000FFF7FEBFFFF7FEBFFFF7FEBFFFF7FEBF15
:103FE000FFF7FEBFFFF7FEBFFFF7FEBFFFF7FEBF05
:103FF000FFF7FEBFFFF7FEBFFFF7FEBFFFF7FEBFF5
:10400000FFF7FEBFFFF7FEBFFFF7FEBFFFF7FEBFE4
:10401000FFF7FEBFFFF7FEBFFFF7FEBFFFF7FEBFD4
:10402000FFF7FEBFFFF7FEBFFFF7FEBFFFF7FEBFC4
:10403000FFF7FEBFFFF7FEBFFFF7FEBFFFF7FEBFB4
:10404000FFF7FEBFFFF7FEBFFFF7FEBFFFF7FEBFA4
:10405000FFF7FEBFFFF7FEBFFFF7FEBFFFF7FEBF94
:10406000FFF7FEBFFFF7FEBFFFF7FEBFFFF7FEBF84
:10407000FFF7FEBFFFF7FEBFFFF7FEBFFFF7FEBF74
:10408000FFF7FEBFFFF7FEBFFFF7FEBFFFF7FEBF64
:10409000FFF7FEBFFFF7FEBFFFF7FEBFFFF7FEBF54
:1040A000FFF7FEBFFFF7FEBFFFF7FEBFFFF7FEBF44
:1040B000FFF7FEBFFFF7FEBFFFF7FEBFFFF7FEBF34
:0C40C000FFF7FEBFFFF7FEBFFFF7FEBFDB
:0400000508003EC5EC
:00000001FF
