:020000040800F2
:100000000065002095640008C9610008CB61000804
:10001000CD610008CF610008D16100080000000038
:10002000000000000000000000000000496100081E
:10003000D361000800000000F1600008115D0008B5
:10004000096500080D6500081165000815650008C0
:10005000196500081D650008216500082565000870
:10006000296500082D650008316500083565000820
:10007000396500083D6500084165000845650008D0
:1000800049650008D56100084D6500085165000804
:1000900055650008596500085D6500086165000840
:1000A00065650008DF610008696500086D65000886
:1000B000E961000871650008756500087965000848
:1000C0007D65000881650008856500088965000870
:1000D0008D65000891650008F361000895650008CA
:1000E000996500089D650008A1650008A5650008E0
:1000F000A9650008AD650008B1650008B565000890
:10010000B9650008BD650008C1650008C56500083F
:10011000C9650008CD650008D1650008D5650008EF
:10012000D9650008DD650008E1650008E56500089F
:10013000E9650008ED650008F1650008F56500084F
:10014000F9650008FD6500080166000805660008FD
:10015000096600080D6600081166000815660008AB
:10016000196600081D66000821660008256600085B
:10017000296600082D6600083166000800000000AE
:10018000356600083966000810B50400002C01D15E
:1001900001202FE094F83D00002805D1002084F8CC
:1001A0003C00200001F082F8022084F83D00211D6F
:1001B000206800F08FFD012084F84600012084F8BB
:1001C0003E00012084F83F00012084F84000012017
:1001D00084F84100012084F84200012084F84300A3
:1001E000012084F84400012084F84500012084F8AF
:1001F0003D00002010BD90F83D10012901D00120E4
:1002000043E0022180F83D100168C96851F0010106
:100210000268D1600168DFF87420914221D0016842
:10022000B1F1804F1DD00168DFF86420914218D0F1
:100230000168DFF86020914213D00168DFF8582090
:1002400091420ED00168DFF85420914209D0016834
:10025000DFF84C20914204D00168DFF84820914239
:100260000CD10168896811F0070106290CD00168DA
:10027000096851F001010068016005E00168096842
:1002800051F001010068016000207047000001404A
:100290000004004000080040000C00400004014041
:1002A000004001400018004010B50400002C01D1AE
:1002B00001202FE094F83D00002805D1002084F8AB
:1002C0003C00200001F0B8F8022084F83D00211D18
:1002D000206800F0FFFC012084F84600012084F82B
:1002E0003E00012084F83F00012084F840000120F6
:1002F00084F84100012084F84200012084F8430082
:10030000012084F84400012084F84500012084F88D
:100310003D00002010BD10B50400002902D194F862
:100320003E000BE0042902D194F83F0006E00829C2
:1003300002D194F8400001E094F84100012801D076
:1003400001206BE0002904D1022084F83E00C0B2F5
:1003500011E0042904D1022084F83F00C0B20AE071
:10036000082904D1022084F84000C0B203E0022032
:1003700084F84100C0B20122206800F0ABFEDFF833
:10038000A0102068884204D02068DFF8082190423D
:1003900001D1012000E00020C0B2002805D0206873
:1003A000406C50F40040226850642068884221D09C
:1003B0002068B0F1804F1DD02068DFF8DC10884243
:1003C00018D02068DFF8D410884213D02068DFF8F6
:1003D000D01088420ED02068DFF8B810884209D0CB
:1003E0002068DFF8C010884204D02068DFF8B81019
:1003F00088420CD12068806810F0070006280CD0D5
:100400002068006850F001002168086005E020685D
:10041000006850F0010021680860002010BD000055
:100420000000014010B50400002C01D101202FE094
:1004300094F83D00002805D1002084F83C002000FD
:1004400000F0FBFF022084F83D00211D206800F031
:1004500041FC012084F84600012084F83E00012080
:1004600084F83F00012084F84000012084F8410016
:10047000012084F84200012084F84300012084F820
:100480004400012084F84500012084F83D0000204C
:1004900010BD0000000401400004004000080040BE
:1004A000000C004000400140001800402DE9F041E0
:1004B00006000C00150098460027002C02D196F883
:1004C0003E000BE0042C02D196F83F0006E0082C19
:1004D00002D196F8400001E096F84100002C02D1CC
:1004E00096F842100BE0042C02D196F8431006E077
:1004F000082C02D196F8441001E096F8451002004D
:10050000D2B2022A03D00A00D2B2022A01D10220BA
:1005100010E1C0B2012840F08380C9B2012940F047
:100520007F80002D05D1404680B2002801D00120F7
:1005300000E1002C04D1022086F83E00C0B211E098
:10054000042C04D1022086F83F00C0B20AE0082C37
:1005500004D1022086F84000C0B203E0022086F8F1
:100560004100C0B2002C04D1022086F84200C0B283
:1005700011E0042C04D1022086F84300C0B20AE046
:10058000082C04D1022086F84400C0B203E0022007
:1005900086F84500C0B201222100306800F09AFDC3
:1005A000002C3FD0042C5DD0082C7BD00C2C00F00C
:1005B000998001273068DFF88811884222D030689E
:1005C000B0F1804F1ED03068DFF87C11884219D01E
:1005D0003068DFF87811884214D03068DFF8701185
:1005E00088420FD03068DFF86C1188420AD030683A
:1005F000DFF86411884205D03068DFF8481188427E
:1006000040F090803068806810F00700062800F005
:100610008F803068006850F001003168086087E022
:10062000012087E0DFF83401716AC863DFF8300128
:10063000716A08644148716AC8641FFA88F84346C1
:100640002A00306810F13401706A00F067FF00285A
:1006500001D001206EE03068C06850F4007031684D
:10066000C860A7E7DFF8F400B16AC863DFF8F000FC
:10067000B16A08643148B16AC8641FFA88F8434611
:100680002A00306810F13801B06A00F047FF0028F6
:1006900001D001204EE03068C06850F480603168BD
:1006A000C86087E7DFF8B400F16AC863DFF8B0001C
:1006B000F16A08642148F16AC8641FFA88F8434661
:1006C0002A00306810F13C01F06A00F027FF002892
:1006D00001D001202EE03068C06850F4006031681D
:1006E000C86067E7DFF87400316BC863DFF870003B
:1006F000316B08641148316BC8641FFA88F84346AF
:100700002A00306810F14001306B00F007FF00282C
:1007100001D001200EE03068C06850F4805031688C
:10072000C86047E73068006850F001003168086031
:100730003800C0B2BDE8F08100000000950B000851
:100740000000014000180040000400400008004084
:10075000000C00400004014000400140FD0B000877
:10076000950C000810B504002068006980071AD5B0
:100770002068C068800716D57FF0020021680861F4
:10078000012020772068806910F0030F03D020003B
:1007900001F000FE05E0200002F01AF8200002F04F
:1007A00018F8002020772068006940071AD52068D3
:1007B000C068400716D57FF0040021680861022058
:1007C00020772068806910F4407F03D0200001F07A
:1007D000E1FD05E0200001F0FBFF200001F0F9FF42
:1007E000002020772068006900071AD52068C068BB
:1007F000000716D57FF008002168086104202077E3
:100800002068C06910F0030F03D0200001F0C2FD82
:1008100005E0200001F0DCFF200001F0DAFF0020FD
:10082000207720680069C0061AD52068C068C00615
:1008300016D57FF010002168086108202077206815
:10084000C06910F4407F03D0200001F0A3FD05E053
:10085000200001F0BDFF200001F0BBFF0020207749
:1008600020680069C0070AD52068C068C00706D59F
:100870007FF0010021680861200002F02BF8206859
:10088000006900060AD52068C068000606D57FF01A
:10089000800021680861200002F034F820680069B7
:1008A00040060AD52068C068400606D57FF04000A3
:1008B00021680861200002F026F82068006980069F
:1008C0000AD52068C068800606D57FF02000216820
:1008D0000861200002F018F810BD70B504000E0089
:1008E000002594F83C00012801D102205EE001209F
:1008F00084F83C00002A12D1F368726831682068DD
:1009000000F00DFB2068806930F00C0021688861E0
:1009100020688169B06801432068816141E0042A50
:1009200013D1F36872683168206800F05DFB2068BD
:10093000806930F440602168886120688069B1680E
:1009400050EA0120216888612BE0082A12D1F3685F
:1009500072683168206800F075FB2068C06930F06B
:100960000C002168C8612068C169B0680143206833
:10097000C16116E00C2A13D1F368726831682068EF
:1009800000F07AFB2068C06930F440602168C861DB
:100990002068C069B16850EA01202168C86100E0A0
:1009A0000125002084F83C002800C0B270BD70B55D
:1009B00004000E00002594F83C00012801D102201B
:1009C0006FE0012084F83C00002A06D0042A1BD0E6
:1009D000082A31D00C2A46D05DE03100206800F0B2
:1009E000D8F92068806950F0080021688861206883
:1009F000806930F00400216888612068816930696D
:100A000001432068816147E03100206800F0F3F97C
:100A10002068806950F400602168886120688069DE
:100A200030F480602168886120688069316950EA0B
:100A30000120216888612FE03100206800F013FA5E
:100A40002068C06950F008002168C8612068C0694A
:100A500030F004002168C8612068C1693069014331
:100A60002068C16118E03100206800F032FA206887
:100A7000C06950F400602168C8612068C06930F422
:100A800080602168C8612068C069316950EA01202E
:100A90002168C86100E00125002084F83C0028009E
:100AA000C0B270BD38B50400002594F83C000128A0
:100AB00001D102206CE0012084F83C00022084F87F
:100AC0003D002068806830F0770030F47F40226875
:100AD0009060086800284DD010284BD0202849D0BD
:100AE000302847D040283BD0502825D060282DD032
:100AF000702807D0B0F5805F03D0B0F5005F0ED04E
:100B00003DE03DE0CB684A688968206800F0D7FA8C
:100B10002068806850F077002168886030E0CB68FA
:100B20004A688968206800F0CAFA2068806850F432
:100B300080402168886023E0CA684968206800F026
:100B400041FA5021206800F0B2FA19E0CA684968F9
:100B5000206800F064FA6021206800F0A8FA0FE035
:100B6000CA684968206800F02DFA4021206800F02A
:100B70009EFA05E00968206800F099FA00E0012576
:100B8000012084F83D00002084F83C002800C0B219
:100B900032BD000010B5846B616A884206D1012025
:100BA0002077012084F83E00C0B220E0A16A88428C
:100BB00006D102202077012084F83F00C0B216E061
:100BC000E16A884206D104202077012084F84000A1
:100BD000C0B20CE0216B884206D1082020770120AA
:100BE00084F84100C0B202E0012084F83D002000FA
:100BF00001F08BFE0020207710BD000010B5846B43
:100C0000616A88420DD101212177C06900283AD15B
:100C1000012084F83E00C0B2012084F84200C0B236
:100C200031E0A16A88420DD102212177C0690028F4
:100C300029D1012084F83F00C0B2012084F843008C
:100C4000C0B220E0E16A88420DD104212177C06959
:100C5000002818D1012084F84000C0B2012084F897
:100C60004400C0B20FE0216B88420CD108212177EB
:100C7000C069002807D1012084F84100C0B20120DA
:100C800084F84500C0B2200001F084FB00202077EA
:100C900010BD000010B5846B616A884202D101204A
:100CA000207710E0A16A884202D1022020770AE072
:100CB000E16A884202D10420207704E0216B884257
:100CC00001D108202077200001F020FE00202077AD
:100CD00010BD000010B40468DFF8BC32984212D096
:100CE000B0F1804F0FD0DFF8B42290420BD0DFF884
:100CF000B022904207D0DFF8AC22904203D0DFF858
:100D0000A822904203D134F070044A6814439842F8
:100D100027D0B0F1804F24D0DFF88022904220D03D
:100D2000DFF87C2290421CD0DFF87822904218D065
:100D3000DFF87422904214D0DFF87022904210D075
:100D4000DFF86C2290420CD0DFF86822904208D085
:100D5000994A904205D0994A904202D0984A9042CE
:100D600003D134F44074CA68144334F080044A69EF
:100D7000144304608A68C2620A688262984202D0A0
:100D8000894A904201D1096901630121416110BC86
:100D9000704770B4026A520852000262046A4568E1
:100DA000836933F070039B089B000A68134334F097
:100DB00002048A681443784EB04202D07A4A9042C4
:100DC00005D134F00804CA68144334F00404B04276
:100DD00002D0754A904207D135F4807535F400751C
:100DE0004A6915438A6915434560836149684163CF
:100DF000046270BC704770B4026A32F01002026282
:100E0000036A4468826932F4E04232F440720D6849
:100E100052EA052233F020038D6853EA05135E4D34
:100E2000A84202D0604EB04206D133F08003CE68B3
:100E300053EA061333F04003A84202D05A4DA842A9
:100E400009D134F4806434F400644D6954EA8504B3
:100E50008D6954EA85044460826149688163036254
:100E600070BC7047000070B4026A32F48072026293
:100E7000046A4568C36933F070039B089B000A68E5
:100E8000134334F400748A6854EA0224424A9042BC
:100E900002D0454EB04206D134F40064CE6854EA24
:100EA000062434F48064904202D03F4A904209D133
:100EB00035F4805535F400554A6955EA02158A69BA
:100EC00055EA02154560C3614968C163046270BC9C
:100ED000704730B4026A32F480520262036A446896
:100EE000C26932F4E04232F440720D6852EA0522DF
:100EF00033F400538D6853EA0533274DA84202D0DE
:100F0000294DA84204D134F480444D6954EA851433
:100F10004460C26149680164036230BC704770B4C8
:100F2000046A6408640004628569066A1A4CA04277
:100F300014D0B0F1804F11D0184CA0420ED0184CF4
:100F4000A0420BD0174CA04208D0174CA04205D0AD
:100F5000164CA04202D0184CA04201D1012400E05E
:100F60000024E4B2002C03D0AD08AD002A4302E017
:100F70002A0052F0010232F0F0021B0113F0F003DC
:100F80001A4336F00A0611F00A0131438261016208
:100F900070BC7047000000000000014000040040E9
:100FA00000080040000C00400004014000400140E7
:100FB000004401400048014000180040001C00406F
:100FC0000020004010B4046A036A5B085B000362FF
:100FD000836933F0F00353EA021334F00A04214327
:100FE0008361016210BC704730B4046A34F01004AD
:100FF00004628469056A34F4407454EA022434F4C7
:1010000070441B0313F47043234335F0A00509011A
:1010100011F0A00129438361016230BC704710B414
:10102000036A33F0100303628369046A33F4704384
:1010300053EA023334F0A00454EA011483610462D9
:1010400010BC704730B4046A34F480740462C4691C
:10105000056AA408A400224332F0F0021B0113F039
:10106000F0031A4335F42065090211F42061294385
:10107000C261016230BC704730B4046A34F48054F9
:101080000462C469056A34F4407454EA022434F4F6
:1010900070441B0313F47043234335F420450903C4
:1010A00011F420412943C361016230BC704782685A
:1010B00032F07002114351F007018160704710B4A3
:1010C000846834F47F442143114351EA0321816051
:1010D00010BC704710B4012411F01F0314FA03F37D
:1010E000046A34EA03030362036A11F01F0112FA6F
:1010F00001F11943016210BC70470EE002684368B9
:10110000024408305FEAC37C44BF4B445B1E52F884
:1011100004CB43F804CB091FF9D150F8041B002974
:10112000ECD1704710B58AB01022002106A801F05A
:10113000EEFB08220021684601F0E9FB10220021A5
:1011400002A801F0E4FBB34C5FF080402060002077
:1011500060600020A0605FF0FF30E0600020206150
:101160000020A0612000FFF70FF8002801D001F057
:10117000C7FB4FF48050069006A92000FFF792FCB1
:10118000002801D001F0BCFB2000FFF74BF900283C
:1011900001D001F0B5FB00200090002001906946CD
:1011A000200001F0BFFB002801D001F0A9FB0020C6
:1011B000029001200390002004900020059004225A
:1011C00002A92000FFF789FB002801D001F098FB5D
:1011D0000C2202A92000FFF780FB002801D001F0BB
:1011E0008FFB0AB010BD18B58DB01022002109A8E0
:1011F00001F08DFB08220021684601F088FB1C22CB
:10120000002102A801F083FB834C84482060002069
:1012100060600020A06043F67F60E06000202061F5
:101220000020A0612000FEF7AFFF002801D001F0F0
:1012300067FB4FF48050099009A92000FFF732FCAA
:10124000002801D001F05CFB2000FFF72DF80028FA
:1012500001D001F055FB302000900020019069463C
:10126000200001F05FFB002801D001F049FB702055
:101270000290002003900220049000200690082293
:1012800002A92000FFF793FB002801D001F038FBF2
:101290000C2202A92000FFF78AFB002801D001F0F0
:1012A0002FFB200000F08DF80EB010BD38B586B0D1
:1012B00004001422002101A801F029FB2068B0F1EC
:1012C000804F6CD1002000905548016851F0010119
:1012D0000160006810F0010000900098002000906C
:1012E0005048016851F001010160016811F00101ED
:1012F0000091009900210091016851F00201016004
:10130000006810F002000090009802200190022076
:10131000029000200390002004900120059001A974
:10132000414801F053FB4FF400600190022002900D
:1013300000200390002004900120059001A93B4863
:1013400001F044FB3A4D3B4828605FF0C0606860A4
:101350000020A8600020E8604FF4806028614FF40E
:10136000805068614FF48040A8610020E86100204F
:10137000286200206862280000F060F8002801D090
:1013800001F0BEFAA562AC632563AC6300220521BF
:101390001C2001F089FC1C2001F097FC0FE0206864
:1013A0001E4988420BD1002000901D48016851F071
:1013B00002010160006810F002000090009807B080
:1013C00030BD10B586B004001422002101A801F040
:1013D0009EFA20681149884219D1002000901148D6
:1013E000016851F002010160006810F002000090F5
:1013F000009803200190022002900020039000201A
:1014000004900220059001A9084801F0DFFA06B017
:1014100010BD0000A4420020EC4200200004004067
:1014200040380240303802400000024000040240D0
:10143000A8410020A06002407047704738B5040002
:10144000002001F051FC0500002C01D1012064E0D6
:10145000606A0028022084F83500002084F83400F7
:101460002068006840084000216808602068006823
:10147000C0070BD501F038FC401B0628F6D320200E
:101480006065032084F83500032046E02068016889
:10149000DFF82804014060680143A0680143E06868
:1014A00001432069014360690143A0690143E06988
:1014B0000143206A0143606A042803D1E06A0143C2
:1014C000206B01432068016020684569ED08ED004C
:1014D000606A0543606A042810D1A06A0543E06A87
:1014E00000280BD0200000F0EFF9002806D04020A3
:1014F0006065012084F8350001200EE02068456118
:10150000200000F0C2F93F22E16D8A408260002095
:101510006065012084F83500002032BD70B50400FC
:101520000025A66D94F83400012801D102202EE098
:10153000012084F8340094F83500012821D10220DC
:1015400084F8350000206065200000F087F93F2115
:10155000E06D8140B1602068006850F0160021689D
:101560000860206C002805D02068006850F0080052
:10157000216808602068006850F001002168086058
:1015800003E0002084F8340002252800C0B270BDBA
:1015900070B50400A56D01F0A7FB060094F83500B6
:1015A000022806D080206065002084F834000120E5
:1015B0003BE02068006830F0160021680860206871
:1015C000406930F0800021684861206C002802D119
:1015D000A06C002805D02068006830F00800216861
:1015E00008602068006840084000216808602068A2
:1015F0000068C0070ED501F077FB801B0628F6D3E4
:1016000020206065032084F83500002084F8340031
:1016100003200AE03F21E06D8140A960012084F8A9
:101620003500002084F83400002070BD90F835109B
:10163000022903D080214165012009E0052180F8BD
:1016400035100168096849084900006801600020F8
:101650007047F8B5040000200090DFF864020068CD
:101660004FF41651B0FBF1F5A66D37680821E06D17
:1016700011FA00F0074210D02068006840070CD52E
:101680002068006830F0040022681060E06D81403E
:10169000B160606D50F001006065E06D3900C140DF
:1016A000C8070BD520684069000607D50121E06D09
:1016B0008140B160606D50F0020060650421E06D12
:1016C00011FA00F007420AD020680068800706D5AA
:1016D000E06D8140B160606D50F0040060651021E4
:1016E000E06D11FA00F007422CD020680068000776
:1016F00028D5E06D8140B16020680068400311D5B5
:1017000020680068000306D4206C00281AD020004E
:10171000216C884716E0A06C002813D02000A16C33
:1017200088470FE020680068C00505D4206800687D
:1017300030F0080021680860206C002802D02000EA
:10174000216C88472021E06D11FA00F007425FD03C
:1017500020680068C0065BD5E06D8140B16094F8F8
:101760003500052828D12068006830F0160021686F
:1017700008602068406930F0800021684861206C72
:10178000002802D1A06C002805D02068006830F045
:101790000800216808603F21E06D8140B1600120B0
:1017A00084F83500002084F83400206D002802D031
:1017B0002000216D884750E020680068400311D563
:1017C00020680068000306D4606C002820D0200048
:1017D000616C88471CE0E06B002819D02000E16BA9
:1017E000884715E020680068C0050BD420680068B1
:1017F00030F0100021680860012084F835000020D6
:1018000084F83400E06B002802D02000E16B8847A8
:10181000606D002821D0606DC00718D5052084F8C0
:101820003500206800684008400021680860009882
:10183000401C0090854204D320680068C007F6D49D
:10184000FFE7012084F83500002084F83400E06CC4
:10185000002802D02000E16C8847F1BD30B4046854
:10186000246834F4802405682C600468636083680D
:10187000402B04D103689A600068C16003E00368EC
:1018800099600068C26030BC7047017801F0FF01C8
:1018900010391822B1FBF2F10A4A525CC2650429E0
:1018A00005D30168890A8902091D816503E0016881
:1018B000890A89028165806D704700003F8010F0C1
:1018C0000C000020E864000802000020936A91697F
:1018D000002914D1002B05D0022B03D007D3032BF2
:1018E0000BD00BE0D16AC90100D501202EE0D16AEE
:1018F000B1F1C07F00D1012028E027E026E0916906
:10190000B1F5005F15D1002B05D0022B03D004D315
:10191000032B07D00CE0012018E0D16AC90100D5E3
:10192000012013E0D16AB1F1C07F00D101200DE0A8
:101930000CE0002B022B02D9DB1E02D006E00120B6
:1019400004E0D16AC90100D50120FFE7C0B27047A9
:10195000DFF8D4390360DFF8D40908608020106014
:10196000704710B5C2B0DFF8CC09DFF8CC190160C0
:10197000082242600022028102228272DFF8BC2922
:10198000C260802303824FF480734382DFF8B00982
:1019900001600C2141600021018102218172C2603D
:1019A0004FF4805101824FF400514182DFF89409D5
:1019B000D0E90023CDE900230121684601F0EDF9CB
:1019C000DFF88419086006A8DFF88019102201F0FA
:1019D000B9FA002106A801F00AFADFF874190860C4
:1019E00002A8DFF87019102201F0ACFA002102A859
:1019F00001F0FDF9DFF8601908603BA8DFF85C1919
:101A00001C2201F09FFADFF8584900213BA801F0A1
:101A10008AF9206034A8DFF84C191C2201F092FAF0
:101A2000002134A801F07FF920602DA8DFF83819D3
:101A30001C2201F087FA00212DA801F074F9DFF8CB
:101A40002C19086026A8DFF828191C2201F07AFA60
:101A5000002126A801F067F9DFF8181908601FA80F
:101A6000DFF814191C2201F06DFA00211FA801F003
:101A70005AF9DFF80819086018A8DFF804191C22C1
:101A800001F060FA002118A801F04DF9DFF8F41810
:101A9000086011A8DFF8F0181C2201F053FA0021A9
:101AA00011A801F040F9DFF8E41808600AA8DFF88F
:101AB000E0181C2201F046FA00210AA801F033F9CF
:101AC000DFF8B01B086042B010BD80B5012001F006
:101AD00059F9FBE71FB55FF0FF32DFF874080168C2
:101AE000684601F0CAF9009810281FD101980478BF
:101AF0002000C0B2012803D02000C0B202280DD1BE
:101B00000022DFF83C18DFF82C0800F0DEFB0A2288
:101B10000199DFF84408006801F07FF92200D2B291
:101B2000DFF81C18DFF80C0800F097FB012001F02B
:101B300029F9D0E770B5DFF8284B0C222100DFF837
:101B4000240B01F07EFA002808D10120DFF8181BD1
:101B5000087003E0FFE7012001F014F9DFF8085BEB
:101B600028780028F7D0DFF8106B30780028F2D002
:101B700002281DD0EED2DFF8040B0460DFF8001B52
:101B8000026812780A70026852684A600268127A23
:101B90000A720A220168DFF8B807006801F03DF90F
:101BA00064220221012000F06FFD00202870D2E79E
:101BB000DFF8C81A0C60DFF8C80A0A6812780270E9
:101BC0000A68526842600A68127A0272007806282F
:101BD00019D1DFF8B05A2878002814D101202870D4
:101BE0000A220968DFF86807006801F016F9012089
:101BF00030700120DFF8501B08700020DFF8701BE8
:101C0000086000202870A6E770B52DED088B8AB01B
:101C100000249FEDB30AF2EE008AB0EE68BAB0EE8F
:101C20004B9ADFEDAF9A05A8DFF8201B102201F0D8
:101C300089F99FED6CAA6846DFF8141BD1E90023EF
:101C4000C0E900239FEDA60A9FEDA50A9FEDA40A17
:101C50009FEDA30ADFEDA2AA9FEDA10A9FEDA00AC6
:101C60009FED9F0A3CE0B0EE490AB0EE49BA03E0AE
:101C7000B2EE08BAB0EE4B9ADFF8B85629006846C3
:101C8000B0EE4B0A00F02EFBDFF8B4663100684678
:101C9000B0EE4B0A00F026FB2000C0B200281CD09A
:101CA000DFF8D00A90ED000A2AEE800A20EE0A0A38
:101CB000BDEEC00A10EE100A80B200EE100AB8EEB7
:101CC000400A70EE299AF4EE489AF1EE10FA04DB1D
:101CD00006223100280000F0C0FA0F2001F052F86F
:101CE0005FF0FF32DFF87006016802A801F0C5F866
:101CF00002981028C0D1039890ED018A007ADFED98
:101D0000789AB5EE408AF1EE10FA01D0012400E095
:101D100000249FED730A9FED720A9FED710A9FEDFB
:101D2000700AC0B2002806D002280CD006D30428BE
:101D300099D09DD399E7B0EE49BA9DE7B0EE68BA65
:101D4000B0EE4B9A98E7B2EE04BAB0EE4B9A93E736
:101D500080B50FE04FF4FA620121012000F094FCFD
:101D600005E04FF47A720121022000F08DFC012081
:101D700001F008F8DFF800090078002803D00228F5
:101D8000EFD007D3E6E74FF47A720121002000F08C
:101D90007BFCECE74FF4FA620121012000F074FCB7
:101DA000E5E738B5DFF8D04994F90000002815D0F0
:101DB0000020DFF8C8190860DFF8C4590623DFF8EF
:101DC000C42904212800FEF771FB0623DFF8B82997
:101DD0000C212800FEF76AFB00202070322000F062
:101DE000D1FFDFE70000484270B511E0002008E0B5
:101DF00000244FF48051280000F0D3FE0028F5D1D4
:101E000001202043DFF8841908700A2000F0BAFF8F
:101E1000DFF87C594FF40061280000F0C2FE002872
:101E200004D00120DFF86C19087003E00020DFF80F
:101E3000641908704FF48061280000F0B2FE002899
:101E400001D1012400E000244FF40071280000F0CB
:101E5000A8FE002801D1012600E000264FF4807181
:101E6000280000F09EFE002801D1012000E00020A3
:101E7000DFF820190978E4B20C43F6B23443C0B25B
:101E80000443002C04D00120DFF80C19087003E093
:101E90000020DFF804190870DFF800594FF4004102
:101EA000280000F07EFE002801D1012400E000247B
:101EB0004FF48041280000F074FE002801D1012079
:101EC00000E000200443DFF8D80804704FF400510C
:101ED000280000F066FE00288AD1012489E700006E
:101EE000000000002DE9F84308E00120DFF8881722
:101EF0000870002020700A2000F044FFDFF88447BB
:101F000020780028FAD101202070DFF83C5828788A
:101F1000012807D0C0F0B180032863D025D304285E
:101F20007DD0AAE00020DFF848180860DFF86808D4
:101F300000780028D9D0DFF8FC03817A0229D4D0B8
:101F4000DFF8FC138A7A022ACFD00222DFF8283782
:101F50001A70DFF840281278002A03D0062200F019
:101F60007CF9C6E702202870C3E7DFF8C863DFF812
:101F7000D07306223900300000F06FF9DFF818083E
:101F80000078002802D10120287024E0DFF81488AE
:101F9000B8F80090C820A8F80000DFF8F007007833
:101FA00000280AD0DFF8C8070168491E0160042232
:101FB0003900300000F051F909E0DFF8B40701689A
:101FC000491C016003223900300000F046F9A8F8EE
:101FD000009003202870002020704FF4967000F0CD
:101FE000D1FE8BE7DFF8B0070078002807D0022089
:101FF0002870002020700A2000F0C4FE0EE00122AC
:10200000DFF83C13DFF82C0300F027F900202070E4
:102010004FF47A7000F0B6FE042028706EE7DFF807
:1020200084673788C8203080DFF8441708680028A4
:1020300002D10120287018E0086800280BD5086834
:10204000401C08600322DFF8F812BA4800F005F9D6
:102050000320287009E00868401E08600422B8497F
:10206000B44800F0FAF80320287037800020207070
:102070004FF4967000F086FE40E7002020703DE7A8
:102080000268D2680B009BB29A4220D34268002AB1
:1020900005D10A0092B203681B685A6316E04268D1
:1020A000042A05D10A0092B203681B689A630DE006
:1020B0004268082A05D10A0092B203681B68DA63F5
:1020C00004E00A0092B203681B681A640181704739
:1020D00010B504000022218AE06800F06BFD0022A8
:1020E000618AE06800F066FD0220A07210BD10B5A4
:1020F00004000122218AE06800F05CFD0022618A70
:10210000E06800F057FD0020A07210BD10B504007B
:102110000022218AE06800F04DFD0122618AE0681A
:1021200000F048FD0120A07210BD80B5C9B20029A1
:1021300003D0022907D003D308E0FFF7D8FF07E058
:10214000FFF7E4FF04E0FFF7C3FF01E0FFF7C0FF84
:1021500001BD10B50C000021FFF7E7FF00212000B2
:10216000FFF7E3FF10BD10B50C000121FFF7DDFF05
:1021700001212000FFF7D9FF10BD10B50C0002218E
:10218000FFF7D3FF02212000FFF7CFFF10BD2DE99D
:10219000F04104000D0026892F89DFF80C86B8F87D
:1021A00000102000FFF76CFFB8F800102800FFF7C0
:1021B00067FF00212000FFF7B8FF01212800FFF78B
:1021C000B4FFDFF8E005008800F0DCFD022120000C
:1021D000FFF7ABFF02212800FFF7A7FF310089B20C
:1021E0002000FFF74DFF390089B22800FFF748FFB4
:1021F000BDE8F0812DE9F04104000D0026892F890A
:10220000DFF8A485B8F800102000FFF739FFB8F810
:1022100000102800FFF734FF01212000FFF785FFA1
:1022200000212800FFF781FFDFF87805008800F023
:10223000A9FD02212000FFF778FF02212800FFF707
:1022400074FF310089B22000FFF71AFF390089B20C
:102250002800FFF715FFBDE8F08138B504000D0038
:10226000D2B2002A09D0022A0DD007D3042A14D0F2
:102270000ED3062A1FD015D322E025E02900200026
:10228000FFF767FF20E029002000FFF76CFF1BE04D
:1022900029002000FFF7AEFF16E029002000FFF71D
:1022A00076FF11E029002000FFF771FF29002000D0
:1022B000FFF76DFF08E029002000FFF75EFF03E055
:1022C00029002000FFF759FF31BD38B50C0015007B
:1022D000290089B2FFF7D4FE290089B22000FFF758
:1022E000CFFE31BD80B50A00DFED110A20EE200AD5
:1022F000D0ED010A90ED001A70EEC10A80EE200ABE
:10230000BDEEC00A10EE100A1168C968491C80B2FF
:1023100000FB01F06421B0FBF1F1491E89B210000D
:10232000FFF7AEFE01BD0000084200201C3F002068
:102330000000C842A8430020EC42002000100240E8
:10234000BC430020D8640008904400205464000876
:1023500088440020646400088C440020FC6200086B
:102360006C440020186300083463000870440020A7
:1023700050630008744400206C6300087844002017
:10238000886300087C440020A46300088044002087
:10239000C0630008F0B5017F022903D10121DFF8F5
:1023A0000C241170007F082803D10120DFF80014ED
:1023B0000870DFF8F8130878002800F05081DFF883
:1023C000F0231078002800F04A819FEDA80A00272A
:1023D000002300250024DFEDA60A9FEDA51A00E0EA
:1023E0007F1CDFF8A06356F82700002801D1052FD5
:1023F000F6DB06EB8700D0F804C056F82700BCEBEC
:10240000000C06EB8700D0F808E006EB8700406878
:10241000BEEB000EF44508D206EB8700D0F804C0EE
:1024200056F82700BCEB000008E006EB8700D0F868
:1024300008C006EB87004068BCEB0000002803D111
:10244000052F01DA7F1CD4E7052F36DA06EB87006B
:10245000D0F804C056F82700BCEB000C06EB870050
:10246000D0F808E006EB87004068BEEB000EF445AC
:102470000AD206EB8700D0F804C056F82700BCEB60
:10248000000C01EE90CA0AE006EB8700D0F808C005
:1024900006EB87004068BCEB000C01EE90CAF8EE3A
:1024A000611A71EEA00A7F1C6D1C06E001EE905AC5
:1024B000F8EEE11AC0EEA11A24E0062F28DA01EEA8
:1024C000905AF8EEE11AC0EEA11A06EB8700D0F898
:1024D00004C056F82700BCEB000C02EE10CAB8EEA0
:1024E000422AB4EE612AF1EE10FADFD506EB87003E
:1024F000D0F804C056F82700BCEB000C01EE90CADF
:10250000F8EE611A70EEA10A6D1C7F1CD5E75B1C0A
:102510009D4E56F82300002801D1052BF7DB06EB72
:102520008300476856F823003F1A06EB8300D0F873
:1025300008C006EB83004068BCEB000C674506D280
:1025400006EB8300476856F82300381A06E006EBCE
:102550008300876806EB83004068381A002803D19F
:10256000052B01DA5B1CDAE7052B53DA06EB830057
:10257000476856F823003F1A06EB8300D0F808C0DE
:1025800006EB83004068BCEB000C674508D206EB05
:102590008300476856F823003F1A01EE907A08E05E
:1025A00006EB8300876806EB830040683F1A01EE64
:1025B000907AF8EE611A31EE811A5B1C641C29E0F6
:1025C00001EE904AF8EEE11AC1EE211A1EE001EE8A
:1025D000904AF8EEE11AC1EE211A06EB8300476833
:1025E00056F823003F1A02EE107AB8EE422AB4EEF3
:1025F000612AF1EE10FAE3D506EB8300476856F83E
:1026000023003F1A01EE907AF8EE611A31EE211A9A
:10261000641C5B1C062BDADB01EE905AF8EEE11A23
:10262000C0EEA10A01EE904AF8EEE11A81EE211AFD
:102630006048C0ED000A604880ED001AC0EE200A34
:102640005E48C0ED000A80EE010A5D4880ED000A98
:102650000020087000201070012047490870F0BD6C
:102660004044002034430020F8440020A037A04C10
:102670000000000084440020140000205844002082
:1026800034440020F44400202DE9F0410C001500F2
:102690006426C0B2002803D0022838D01BD351E0F2
:1026A000002713E0DFF8E88001220421404600F013
:1026B00081FA300080B200F065FB00220421404620
:1026C00000F078FA280000F05DFB7F1C380080B233
:1026D000A042E7D336E05FF0000813E02C4F012260
:1026E0000121380000F066FA300080B200F04AFBA9
:1026F00000220121380000F05DFA280000F042FBC2
:1027000018F10108404680B2A042E7D31AE05FF01A
:10271000000813E01E4F01220221380000F04AFA9F
:10272000300080B200F02EFB00220221380000F0C1
:1027300041FA280000F026FB18F10108404680B25B
:10274000A042E7D3BDE8F0811500002074640008C2
:10275000E064000880B50C221A491B4800F071FCA7
:10276000002802D101201949087001BD00000000B5
:102770005444002000000020F744002024000040C2
:10278000A44200207843002090430020F34400201E
:10279000000C0240F1440020F044002000040240FC
:1027A000F24400201200002010000020F544002018
:1027B000F644002064440020684400205C4400206B
:1027C000604400204044002034430020F8440020AE
:1027D0007047704710B501F027F800F027F801F0B6
:1027E0003DF801F079F9FEF7FEFC01F0EBF9FEF798
:1027F00099FC01F0FFF93B4C08212000FDF78BFD0F
:102800000C212000FDF787FD374C0623374A0421B1
:102810002000FDF74BFE0623354A0C212000FDF772
:1028200045FEFFF79EF800F079FAFEE780B592B01A
:102830003022002106A800F06AF81422002101A825
:1028400000F065F8002000902A48016851F080519E
:102850000160006810F08050009000980020009007
:102860002548016851F480410160006810F48040FF
:1028700000900098012006905FF4803007900220BD
:102880000C905FF480000D9008200E904FF4A8701B
:102890000F90022010900720119006A801F026FA50
:1028A000002801D000F02CF80F20019002200290A7
:1028B000002003904FF4A05004904FF480500590F6
:1028C000052101A801F0F4FB002801D000F018F860
:1028D00013B000BD80B500680849884201D101F0FD
:1028E000C5FC01BDEC420020A4420020784300203A
:1028F000904300204038024000700040000001403A
:1029000072B6FEE77047704770477047704710B562
:10291000044610460A460146204601F0B3FC204614
:1029200010BD000010B490F83C20012A01D1022013
:102930003CE0012280F83C20022280F83D20026821
:1029400054680268936834F070040A68144302689B
:1029500054600268164CA2421BD00268B2F1804F4C
:1029600017D00268134CA24213D00268124CA24244
:102970000FD00268114CA2420BD00268104CA24248
:1029800007D002680F4CA24203D002680E4CA2424C
:1029900005D133F0800349680B4301688B60012146
:1029A00080F83D10002180F83C10002010BC7047DA
:1029B000000001400004004000080040000C0040FE
:1029C000000401400040014000180040F8B400221B
:1029D00000220022002337E0082704E0DFF8E82186
:1029E0009042F9D10727FFB213F00302D2B292004E
:1029F00097403E431A00920845F82260DFF8CC5118
:102A00002A68A2434E68F60200D522432A60DFF806
:102A1000C0512A68A2434E68B60200D522432A60FC
:102A2000DFF8B0512A68A2434E68B60300D52243AE
:102A30002A60DFF8A4512A68A2434E68F60301D544
:102A4000144322002A605B1C102B80F0A880012513
:102A500015FA03F20C6814409442F4D10A7912F08A
:102A60000302012A04D00A7912F00302022A16D1C5
:102A7000866803271A00D2B252009740BE43CF683F
:102A80001A00D2B2520097403E43866042689D4091
:102A9000AA434D68C5F300159D402A4342600A7958
:102AA00012F00302032A0DD0C56803261A00D2B221
:102AB00052009640B5438E681A00D2B2520096403A
:102AC0003543C5600A7912F00302022A17D11A00B1
:102AD000D20800EB8202156A0F2613F00702D2B269
:102AE00092009640B5430E6913F00702D2B29200ED
:102AF000964035431A00D20800EB82021562056841
:102B000003261A00D2B252009640B5430E7916F051
:102B100003061A00D2B252009640354305604A6857
:102B200012F4403F8FD0002200922C4A156855F4D1
:102B300080451560126812F480420092009A284D78
:102B40001A00920855F822600F2713F00302D2B240
:102B500092009740BE43234A904201D1002742E7AA
:102B6000214A904201D101273DE7204A904201D1FC
:102B7000022738E71E4A904201D1032733E71D4A56
:102B8000904201D104272EE71B4A904201D105272C
:102B900029E71A4A90427FF421AF062723E7F1BCC8
:102BA0007047006989B2084201D0012000E000208E
:102BB000C0B27047D2B2002A02D089B2816102E06D
:102BC00089B2090481617047001C0240083C014041
:102BD0000C3C0140043C0140003C014044380240B0
:102BE0000838014000000240000402400008024092
:102BF000000C024000100240001402400018024085
:102C000010F00700334B1A684FF6FF010A4052EAF2
:102C10000022314802431A6070472E480068C0F312
:102C200002207047010049B2002908D4012210F0A7
:102C30001F018A40294940B2400941F820207047CD
:102C4000020052B2002A04D40901254A40B21154AC
:102C500007E00901234A40B210F00F00104400F8C9
:102C6000041C704710B410F00700D0F10703052BC7
:102C700001D3042301E0D0F10703041D072C01D286
:102C8000002000E0C01E012414FA03F35B1E19406B
:102C9000814014FA00F0401E1040084310BC7047F9
:102CA00080B5FFF7ADFF01BD70B504000D00160043
:102CB0000020FFF7B2FF32002900FFF7D3FF010029
:102CC000200040B2FFF7BCFF70BD80B540B2FFF7F7
:102CD000A9FF01BD0CED00E00000FA0500E100E0F5
:102CE00000E400E018ED00E001480068704700BF14
:102CF000B0440020010000200A0012B2842A03D050
:102D000009B2C91C091808007047EFF305800028B4
:102D100001D0012000E00020C0B2704780B501F072
:102D20002EFC002002BD38B584B004000D0060699F
:102D3000002815D0A069002812D0B4F90800FFF7C8
:102D4000D9FFA16902916169019100902B0022696C
:102D50002168606801F0CAFA0390039805B030BD9D
:102D6000B4F90800FFF7C6FF03A9019100902B00FA
:102D7000226992B22168606801F0FAFA0128ECD069
:102D80000020EBE780B50121B0FBF1F0002800D175
:102D9000012001F0CEFB002002BD1CB54268002AD4
:102DA0000FD0012908D1032100914368002200219E
:102DB000012001F0B4FF19E04268080002F036F883
:102DC00014E001290FD103220021012001F0FBFFB3
:102DD0000400002C05D0002300220021200002F076
:102DE00064F8200002E0080002F041F816BD80B54A
:102DF000816800290BD0C168002908D0002100910A
:102E0000C36882684168006801F089FF04E000221D
:102E10004168006801F0D7FF02BD33B581B00500FD
:102E2000002000900120B2FBF0F4002C00D101241E
:102E3000FFF76BFF002816D000236A4602A928007E
:102E400002F0FEF8012801D0FF200BE000980028D6
:102E500007D05FF0805032490860BFF34F8FBFF357
:102E60006F8F00203EBD0023220002A9280002F03F
:102E70001CF80128F5D0FF20F4E77FB506000D000F
:102E8000029500200190002D07D180200090684617
:102E900090E80E0086E80E0041E000200390002438
:102EA00012F1010F02D15FF0FF3407E0002A05D0D4
:102EB0000120B2FBF0F4002C00D10124FFF725FF24
:102EC000002817D003AA01A9280002F0D9F9012887
:102ED00002D11020009001E000200090039800280B
:102EE00018D05FF080500E490860BFF34F8FBFF3DA
:102EF0006F8F0FE0220001A9280002F011F90128CC
:102F000002D11020009005E0002C01D1002000E04B
:102F100040200090684690E80E0086E80E007FBDD5
:102F200004ED00E062B38B0708D0521E11F8013B9C
:102F300000F8013B00F024808B07F6D1830740F0B6
:102F4000208000BF103A07D330B4B1E83810103AEF
:102F5000A0E83810F9D230BC530724BFB1E80810FC
:102F6000A0E8081044BF51F8043B40F8043BD207E6
:102F700024BF31F8022B20F8022B44BF0B780370DA
:102F80007047121F17D35B0009D151F8043B20F89A
:102F9000023B1B0C121F20F8023BF6D20BE051F84B
:102FA000043B00F8013B1B0A20F8023B1B0C121FDC
:102FB00000F8013BF3D238BF121D521E24BF11F896
:102FC000013B00F8013BF8D87047000010B5040041
:102FD000002C01D1012033E0A0690028FFD194F832
:102FE0003D00002805D1002084F83C00200000F0BE
:102FF0001CFE242084F83D002068C06830F4005096
:103000002168C860200000F095FA2068006930F45B
:103010009040216808612068406930F02A002168EA
:1030200048612068C06850F400502168C8600020E2
:103030002064202084F83D00202084F83E000020F9
:1030400010BD80B590F83E30202B16D1002903D05A
:1030500013009BB2002B01D101200FE090F83C300F
:10306000012B01D1022009E0012380F83C3000232C
:10307000036392B200F04EF900E0022002BD38B5C1
:103080000400206801682068C26820684369002045
:10309000002011F00F00002807D18D0605D59506F8
:1030A00003D5200000F0D1F933E1002879D0D8070A
:1030B00002D412F4907F74D011F00100C0B2002845
:1030C00005D0D00503D5206C50F0010020644807DE
:1030D00008D513F00100C0B2002803D0206C50F0D6
:1030E00002002064880708D513F00100C0B2002850
:1030F00003D0206C50F00400206408070AD5900625
:1031000004D413F00103DBB2002B03D0206C50F089
:1031100008002064206C002842D0880604D5900660
:1031200002D5200000F091F920684069800910F074
:103130000100216C090701D400282CD0200000F0E8
:103140000BF920684069400621D52068143050E80A
:10315000001F31F04001206810F1140242E8001015
:103160000028F2D1A06B00280DD00FF24D20A16BEA
:103170000865A06BFEF75AFA002811D0A06BA16B6E
:10318000096D88470CE0200002F07DF908E020007E
:1031900002F079F904E0200002F075F900202064C3
:1031A000B7E0206B012840F0A480C80640F1A18060
:1031B000D00640F19E8000200090206800680090BA
:1031C000206840680090009820684069400655D506
:1031D000A06B00684168080080B200284DD008004C
:1031E000A28D80B2904248D2E185A06BC069B0F553
:1031F000807F3BD020680C3050E8001F31F4807194
:10320000206810F10C0242E800100028F2D120687A
:10321000143050E8001F49084900206810F11402DA
:1032200042E800100028F2D12068143050E8001F56
:1032300031F04001206810F1140242E8001000282B
:10324000F2D1202084F83E000020206320680C305A
:1032500050E8001F31F01001206810F10C0242E824
:1032600000100028F2D1A06BFEF792F9A18DE08D3D
:10327000091A89B2200002F007F94AE0A08DE18D19
:10328000411AE08D002833D0080080B200282FD0EA
:1032900020680C3050E8002F32F49072206810F152
:1032A0000C0343E800200028F2D12068143050E8D5
:1032B000002F52085200206810F1140343E8002048
:1032C0000028F2D1202084F83E00002020632068EE
:1032D0000C3050E8002F32F01002206810F10C037F
:1032E00043E800200028F2D189B2200002F0CCF897
:1032F0000FE0080605D5100603D5200000F066F89B
:1033000007E0480605D5500603D5200000F08FF8E9
:10331000FFE731BD81628285C285002101642221DF
:1033200080F83E10002180F83C100169002905D08A
:103330000168C96851F480710268D1600168496907
:1033400051F00101026851610168C96851F0200122
:103350000068C1600020704701680C3151E8002FFF
:1033600032F49072016811F10C0343E80021002946
:10337000F2D10168143151E8002F5208520001685F
:1033800011F1140343E800210029F2D1016B012956
:103390000CD101680C3151E8002F32F010020168A5
:1033A00011F10C0343E800210029F2D1202180F81B
:1033B0003E1000210163704780B5806B0021C185FC
:1033C0000021C18402F05FF801BD000090F83D10BB
:1033D00021292AD18168B1F5805F0CD101690029CA
:1033E00009D1016A0988C905C90D02685160016ADD
:1033F000891C016205E0016A4A1C026209780268C0
:103400005160C18C491EC18489B200290BD1016869
:10341000C96831F080010268D1600168C96851F063
:1034200040010068C160002000E00220704780B5C4
:103430000168C96831F040010268D160202180F83C
:103440003D1002F022F8002002BD80B590F83E1039
:1034500022296DD18168B1F5805F0DD10169002904
:103460000AD10021816A02685268D205D20D0A8011
:10347000816A891C816217E0826A00218168B1F546
:10348000805F05D08168002906D10169002903D138
:1034900001684968117004E00168496811F07F0112
:1034A0001170816A491C8162C18D491EC18589B232
:1034B00000293BD10168C96831F020010268D16060
:1034C0000168C96831F480710268D1600168496996
:1034D0004908490002685161202180F83E10016BC3
:1034E00001291FD10021016301680C3151E8002F2F
:1034F00032F01002016811F10C0343E800210029A9
:10350000F2D101680968C90608D500210091016857
:10351000096800910168496800910099818D01F066
:10352000B3FF01E0FFF716F9002002E0002000E001
:10353000022002BD2DE9FE4F05002868016931F423
:103540004051E868014328680161A968286901437E
:1035500068690143E86901432868C268AF480240CE
:1035600011432868C1602868416931F44071A86935
:103570000143286841612868A949884203D0286826
:10358000A849884203D100F03EFE040002E000F0AA
:103590002FFE0400E869B0F5004F40F09F807FF0F7
:1035A000630A022600275FF019085FF00009220075
:1035B0000023A8FB020108FB031109FB0211CDE95E
:1035C000000168680021A6FB002306FB013307FB0E
:1035D0000033DDE9000101F059FF6421B0FBF1F097
:1035E000029022000023A8FB020108FB031109FB43
:1035F0000211CDE9000168680021A6FB002306FB4B
:10360000013307FB0033DDE9000101F03FFF834692
:1036100022000023A8FB020108FB031109FB021191
:10362000CDE9000168680021A6FB002306FB0133F9
:1036300007FB0033DDE9000101F028FF6421B0FB46
:10364000F1F00AFB00B0C00032306421B0FBF1F0B1
:10365000400010F4F870029910EB01100290220063
:103660000023A8FB020108FB031109FB0211CDE9AD
:10367000000168680021A6FB002306FB013307FB5D
:103680000033DDE9000101F001FF83462000002145
:1036900002000B00A8FB020108FB031109FB021149
:1036A0006A68002390469946A6FB082306FB093367
:1036B00007FB083301F0EAFE6421B0FBF1F00AFBDE
:1036C00000BA5FEACA0032306421B0FBF1F111F0B8
:1036D000070102980918286881609CE004260027E9
:1036E0007FF0630A5FF019085FF0000922000023F1
:1036F000A8FB020108FB031109FB0211CDE900013F
:1037000068680021A6FB002306FB013307FB00339A
:10371000DDE9000101F0BAFE6421B0FBF1F0029096
:1037200022000023A8FB020108FB031109FB021180
:10373000CDE9000168680021A6FB002306FB0133E8
:1037400007FB0033DDE9000101F0A0FE8346220003
:103750000023A8FB020108FB031109FB0211CDE9BC
:10376000000168680021A6FB002306FB013307FB6C
:103770000033DDE9000101F089FE6421B0FBF1F0C6
:103780000AFB00B0000132306421B0FBF1F010F010
:10379000F000029910EB0110029022000023A8FB18
:1037A000020108FB031109FB0211CDE90001686861
:1037B0000021A6FB002306FB013307FB0033DDE9F4
:1037C000000101F063FE83462000002102000B008F
:1037D000A8FB020108FB031109FB02116A68002320
:1037E00090469946A6FB082306FB093307FB0833DE
:1037F00001F04CFE6421B0FBF1F00AFB00BA5FEA75
:103800000A1032306421B0FBF1F111F00F0102987F
:10381000091828688160BDE8F78F0000F369FFFF91
:10382000001001400014014080B50B48016851F4BC
:1038300000710160016851F480610160016851F418
:10384000807101600320FFF72BFA0F2001F036FF93
:1038500001F076FF002002BD003C02402DE9F84354
:1038600086B0142200216846FFF751F80020059029
:103870009348016851F010010160016811F01001D6
:103880000591059900210591016851F0040101603D
:10389000016811F004010591059900210591016865
:1038A00051F080010160016811F0800105910599D6
:1038B00000210591016851F001010160016811F0DA
:1038C00001010591059900210591016851F002015E
:1038D0000160016811F0020105910599002105912F
:1038E000016851F008010160006810F008000590BF
:1038F0000598744C002243F288112000FFF75AF912
:10390000714D012201212800FFF754F94FF21706EB
:103910006E4F002231003800FFF74CF9082000906C
:1039200001200190002002900020039069462000B1
:10393000FFF74CF801200090012001900020029038
:103940000020039069462800FFF740F80820009007
:103950000220019000200290002003900520049096
:1039600069462800FFF732F8012000905FF49018B4
:10397000CDF8048000200290DFF854916946484653
:10398000FFF724F810200090022001900020029000
:10399000002003900620049069464846FFF716F879
:1039A000E02000900220019000200290002003906F
:1039B0000520049069464846FFF708F84FF20400D6
:1039C00000900020019000200290DFF808916946E5
:1039D0004846FEF7FBFF4FF4C070009001200190B5
:1039E000022002900120039069462000FEF7EEFFBE
:1039F0004FF44050009001200190022002900020DE
:103A0000039069462000FEF7E1FF4FF480600090CC
:103A100002200190002002900020039005200490D5
:103A200069464846FEF7D2FF4FF4726000900020CE
:103A300001900020029069463800FEF7C7FF00960B
:103A40000120019000200290002003906946380078
:103A5000FEF7BCFF4FF4A45000900220019000201C
:103A60000290002003900620049069462800FEF78B
:103A7000ADFF4FF4107000901220019001200290D1
:103A8000002003900420049069464846FEF79EFFFC
:103A90008020009000200190012002906946484655
:103AA000FEF794FF02200090CDF8048000200290E1
:103AB00069462000FEF78AFF07B0BDE8F08300BF2B
:103AC000303802400010024000080240000C024062
:103AD000000002400004024080B535485FF0A0417C
:103AE0000160082181600121C16000210161022182
:103AF00081610021C16101F047FE002801D0FEF77D
:103B0000FFFE01BD10B586B00400142200216846F6
:103B1000FEF7FDFE2068B0F1A04F46D100200590D1
:103B20002448016851F001010160006810F00100B3
:103B3000059005984FF4007000900020019000203F
:103B400002901D4C69462000FEF740FF4FF4806054
:103B500000900220019000200290032003900A2090
:103B6000049069462000FEF731FF4FF4C0500090EA
:103B70000220019000200290002003900A2004906F
:103B800069462000FEF722FF0C48016851F08001D1
:103B90000160002005900A48016851F480410160ED
:103BA000006810F480400590059806B010BD000034
:103BB000183C0020303802400000024034380240F7
:103BC0004438024080B5002000900948016851F453
:103BD00000110160006810F40010009000980022AD
:103BE00005211120FFF760F81120FFF76EF801BDE5
:103BF0003038024080B53748374901604FF41651DC
:103C00004160002181600021C160002101610C211F
:103C100041614FF4007181610021C161FFF7D6F964
:103C2000002801D0FEF76CFE01BD10B586B004007F
:103C30001422002101A8FEF76AFE20682649884266
:103C400046D1002000902548016851F40031016000
:103C5000006810F400300090009800200090204888
:103C6000016851F001010160016811F0010100914A
:103C7000009900210091016851F00801016000687D
:103C800010F00800009000980C2001900220029093
:103C900000200390032004900720059001A91148FB
:103CA000FEF794FE0820019002200290002003906D
:103CB000032004900720059001A90B48FEF786FE1B
:103CC000002205212620FEF7EFFF2620FEF7FDFF4C
:103CD00006B010BD3443002000440040403802408C
:103CE0003038024000000240000C02402DE9FC4147
:103CF0000400002C01D10120C4E12078C0075FD569
:103D0000DFF88403016811F00C01042909D0006870
:103D100010F00C0008280ED1DFF870030068400294
:103D200009D5DFF86C030068800349D56068002876
:103D300046D10120A6E16068B0F5803F06D1DFF8EA
:103D40005003016851F48031016018E06068B0F5FB
:103D5000A02F0AD1DFF83803016851F480210160F7
:103D6000016851F48031016009E0DFF82403016843
:103D700031F480310160016831F4802101606068B4
:103D800000280ED0FEF7B0FF0500DFF8040300683E
:103D9000800315D4FEF7A8FF401B6528F5D3032048
:103DA00070E1FEF7A1FF0500DFF8E4020068800380
:103DB00006D5FEF799FF401B6528F5D3032061E186
:103DC000207880071DD5B048016811F00C0F08D08D
:103DD000006810F00C0008282AD1AC4800684002A6
:103DE00026D4AB480168890704D5E168012901D0D0
:103DF000012047E1016831F0F801226951EAC2016E
:103E000001602078000751D5606900283DD001206D
:103E1000A0490860FEF768FF05009F48006880071A
:103E200044D4FEF761FF401B0328F6D3032029E1A9
:103E3000E068002818D0012098490860FEF754FF78
:103E4000050093480168890706D4FEF74DFF401B23
:103E50000328F6D3032015E1016831F0F801226947
:103E600051EAC2010160CCE700208C490860FEF7EE
:103E70003BFF0500864800688007C2D5FEF734FF87
:103E8000401B0328F6D30320FCE000208149086092
:103E9000FEF72AFF050080480068800706D5FEF778
:103EA00023FF401B0328F6D30320EBE020784007D4
:103EB0006FD500267A4D2868C0000BD400200090F2
:103EC000286850F080502860286810F080500090DA
:103ED00000980126734F3868C00511D4386850F433
:103EE00080703860FEF700FF80463868C00507D450
:103EF000FEF7FAFEB0EB08000328F6D30320C1E07A
:103F0000A068012805D16848016851F001010160ED
:103F100015E0A068052809D16348016851F0040143
:103F20000160016851F00101016008E05E4801682C
:103F3000490849000160016831F004010160A0688E
:103F400000280FD0FEF7D0FE070057480068800712
:103F500018D4FEF7C9FEC01B41F289318842F4D360
:103F600003208FE0FEF7C0FE07004F48006880077F
:103F700008D5FEF7B9FEC01B41F289318842F4D35F
:103F800003207FE0F6B2012E03D1286830F0805084
:103F90002860A069002874D03B48006810F00C002D
:103FA000082843D0A06902282FD1404E002030605D
:103FB000FEF79AFE0700364D2868800106D5FEF709
:103FC00093FEC01B0328F6D303205BE0E169206A5F
:103FD0000143606A51EA8011A06A4008401E51EA1C
:103FE0000041E06A51EA0061284801600120306028
:103FF000FEF77AFE04002868800142D4FEF774FEC2
:10400000001B0328F7D303203CE000202749086069
:10401000FEF76AFE04001E480068800131D5FEF7F5
:1040200063FE001B0328F6D303202BE0A0690128C0
:1040300001D1012026E015480068A16901291ED0A0
:1040400010F48001E269914219D110F03F01226A17
:10405000914214D147F6C0710140626AB1EB821FF0
:104060000DD110F44031A26A5208521EB1EB024F3A
:1040700005D110F07060E16AB0EB016F01D0012052
:1040800000E00020BDE8F681083802400438024014
:1040900000380240800E4742743802400000474218
:1040A00040380240007000407038024060004742D3
:1040B0002DE9F04104000E00002C01D1012092E016
:1040C000634D286810F00700B04207D22E702868B0
:1040D00010F00700B04201D0012084E02078800772
:1040E00016D52078400704D55A48016851F4E051AC
:1040F00001602078000704D55648016851F46041FA
:10410000016054490A6832F0F002A06802430A6074
:104110002078C00735D56068012805D14E48006871
:10412000800313D401205EE06068022802D060683A
:10413000032805D148480068800107D4012052E0D7
:1041400045480068800701D401204CE0414F3968A0
:1041500089088900606801433960FEF7C5FD804623
:10416000386810F00C006168B0EB810F09D0FEF7E1
:10417000BBFDB0EB080041F289318842F0D3032047
:1041800031E0286810F00700864207D22E702868B8
:1041900010F00700B04201D0012024E02078400751
:1041A00006D52C490A6832F4E052E06802430A60FE
:1041B0002078000707D52748016831F4604122695B
:1041C00051EAC201016001F01BFB2449214A126837
:1041D000C2F30312895CC840214908602148006885
:1041E00001F06CFA0020BDE8F0811D4800687047BE
:1041F00080B5FFF7FAFF1C49164A1268C2F3822203
:10420000895CC84002BD80B5FFF7EFFF1649114A2F
:104210001268C2F34232895CC84002BD0F220260BC
:104220000C4A136813F003034360136813F0F003A0
:104230008360136813F4E053C3601268D20812F469
:10424000E05202610248006810F007000860704701
:10425000003C0240083802400038024084640008F4
:104260000C00002008000020F064000803480168EA
:10427000034A127889180160704700BFB0440020DB
:104280001600002062F30F2262F31F42401810F064
:10429000030308D0C91A1FD3DB0748BF00F8012D5C
:1042A00028BF20F8022D130030B4144615461039EB
:1042B00028BF20E93C00FAD8490728BF20E90C00B4
:1042C00048BF40F8042D890028BF20F8022D48BFC0
:1042D00000F8012D30BC7047C91818BF00F8012D37
:1042E000CB0728BF00F8012D7047000078B585B0D6
:1042F00005000B98002807D1502080F31188BFF3E8
:104300004F8FBFF36F8FFEE70C9C002C07D150201E
:1043100080F31188BFF34F8FBFF36F8FFEE75426F2
:104320000096009E542E07D0502080F31188BFF3D2
:104330004F8FBFF36F8FFEE7009E002C13D0002835
:1043400011D02063022084F85100002003900294D1
:1043500004A801900A980090280000F042F820007C
:1043600000F09AF801E000200490049806B070BDB7
:104370002DE9F84384B007008846160099463000BE
:1043800080B2800001F07CFA0500002D0BD0542093
:1043900001F076FA0400002C01D0256304E0280027
:1043A00001F0FCFA00E00024002C15D0002084F875
:1043B00051000020039002940D9801900C980090F9
:1043C0004B46B6B232004146380000F00AF82000F1
:1043D00000F062F8012001E05FF0FF3005B0BDE8B9
:1043E000F0832DE9F84305001E000A9F386B00EBAF
:1043F0008200B0F104085FEAD8085FEAC80818F044
:104400000700002807D0502080F31188BFF34F8F9A
:10441000BFF36F8FFEE7002910D0002200E0521C8E
:10442000102A07D2885C07EB020383F83400885C0B
:104430000028F4D1002087F8430002E0002087F82C
:104440003400DDF82090B9F1070F01D35FF00609C1
:10445000099CC7F82C90C7F844900020B864381D18
:1044600001F059FB17F1180001F055FB3F61D9F13C
:104470000709C7F818907F620020F864002087F8C9
:10448000500032002900404601F082FB3860002CC9
:1044900000D02760BDE8F18338B5040001F008FCC6
:1044A000DFF874140868401C0860DFF8705428684E
:1044B000002806D12C60086801280DD100F090FA80
:1044C0000AE0DFF8E8040068002805D1E06A2968FE
:1044D000C96A884200D32C60DFF8D4040168491C03
:1044E0000160DFF8D0140A680123E06A83401A43B0
:1044F0000A60211DDFF8E424E36A1420434302EB41
:10450000030001F00BFB01F0EDFBDFF8A0040068F5
:1045100000280DD02868C06AE16A884208D25FF09E
:104520008050DFF8E0150860BFF34F8FBFF36F8F47
:1045300031BD10B504000020002C14D0DFF8340584
:104540000068002807D0502080F31188BFF34F8FF8
:10455000BFF36F8FFEE700F059F80021200000F054
:1045600043FB00F059F8002808D15FF08050DFF8D5
:1045700094150860BFF34F8FBFF36F8F10BD10B558
:1045800086B0002004900020039005AA03A904A887
:10459000FDF7DEF9DFF82C460498029003980190AD
:1045A000002000900023059ADFF81C160FF2094046
:1045B000FFF79CFE20602068002801D0012000E069
:1045C0000020012817D1502080F31188BFF34F8FAE
:1045D000BFF36F8F5FF0FF30DFF8F0150860012048
:1045E000DFF8C81308600020DFF8E815086001F064
:1045F000F8FA06B010BD10F1010FFAD1502080F387
:104600001188BFF34F8FBFF36F8FFEE7DFF86404AD
:104610000168491C0160704770B500240025DFF86F
:1046200054643068002807D1502080F31188BFF30C
:104630004F8FBFF36F8FFEE701F03AFB3068401EEB
:1046400030603068002855D1DFF8CC0200680028BF
:1046500026D14FE0C868C46814F1180001F085FA4B
:10466000201D01F082FADFF84C130A680123E06A8A
:1046700083401A430A60211DDFF86023E36A142097
:10468000434302EB030001F049FAE06ADFF88C12C1
:104690000968C96A884203D30120DFF8341508602D
:1046A000DFF81C1508680028D4D1002C01D000F0D8
:1046B00004FADFF830653468002C0CD000F01EF8E6
:1046C000002803D00120DFF808150860641E002CC4
:1046D000F4D100203060DFF8F8040068002809D029
:1046E00001255FF08050DFF81C140860BFF34F8F86
:1046F000BFF36F8F01F0F6FA280070BDF8B5002502
:10470000DFF87003006800286BD1DFF8C804046884
:10471000641C0460002C1AD1DFF8BC14086800681F
:10472000002807D0502080F31188BFF34F8FBFF3CC
:104730006F8FFEE70868DFF8A42413680B60106031
:10474000DFF89C040168491C016000F0B6F9DFF84D
:104750007C643068844233D327E00868C068C76847
:10476000786884422BD3381D01F0FFF9B86A00281D
:1047700003D017F1180001F0F8F98E490A680123F7
:10478000F86A83401A430A60391DDFF85022FB6A39
:104790001420434302EB030001F0C0F9F86A5F49BB
:1047A0000968C96A884200D30125DFF82C1408681B
:1047B00000680028D1D15FF0FF30306000E0306049
:1047C000564800688549C26A142042438858022826
:1047D00000D30125DFF8F8030068002806D0012582
:1047E00004E0DFF800040168491C01602800F2BD04
:1047F000DFF880020068002804D00120DFF8D01321
:1048000008602AE00020DFF8C813086069480068E3
:10481000B0FA80F1D1F11F011422704B02FB01F0BC
:104820001858002807D1502080F31188BFF34F8F0C
:10483000BFF36F8FFEE7514303EB01004168496806
:104840004160416810F10802914202D14168496813
:1048500041604068C06831490860704710B50C007D
:10486000002807D1502080F31188BFF34F8FBFF38A
:104870006F8FFEE7DFF8E0130968183101F05AF98D
:104880000121200000F0B0F910BD10B5C068C46867
:10489000002C07D1502080F31188BFF34F8FBFF356
:1048A0006F8FFEE714F1180001F05FF9714800689E
:1048B000002813D1201D01F058F93E490A68012350
:1048C000E06A83401A430A60211D444AE36A1420C7
:1048D000434302EB030001F021F905E014F1180154
:1048E000DFF8DC0201F01AF90C480068C06AE16ADE
:1048F000884205D201200121DFF8D422116000E0B6
:10490000002010BDDFF8D81209680160DFF84C13F1
:104910000968416070470000C4440020B44400208E
:1049200038B504000D00002C07D1502080F3118809
:10493000BFF34F8FBFF36F8FFEE7002D07D15020DD
:1049400080F31188BFF34F8FBFF36F8FFEE701F045
:10495000AFF9DFF8800200686168411A2A6812F135
:10496000010F01D1002418E0DFF8742212682368D7
:104970009A4204D06268904201D301240DE0286875
:10498000814207D22868411A29602000FFF7BAFF48
:10499000002402E000202860012401F0A3F9200097
:1049A00032BD0120DFF8281208607047D044002093
:1049B000E0440020CC44002080B500F03AF80748DD
:1049C00000680228F9D35FF08050DFF8F01108602A
:1049D000BFF34F8FBFF36F8FEFE700001C41002044
:1049E00038B5002408E0DFF87802142101FB04F157
:1049F000084401F081F8641C072CF4D3DFF864420A
:104A0000200001F079F8DFF86052280001F074F816
:104A1000DFF8AC0101F070F8144801F06DF8664859
:104A200001F06AF8DFF8B0010460DFF840020560C9
:104A300031BD38B514E001F03BF90C48C068C468DA
:104A4000201D01F092F8DFF828020168491E01607C
:104A50002868401E286001F045F9200000F00CF89D
:104A6000034D28680028E6D131BD00000C44002029
:104A7000C0440020EC44002010B5040094F851001C
:104A8000002806D1206B00F089FF200000F086FF8F
:104A900010BD94F85100012803D1200000F07EFFE2
:104AA000F6E794F851000228F2D0502080F31188E4
:104AB000BFF34F8FBFF36F8FFEE7DFF81C1108685D
:104AC0000068002805D15FF0FF30DFF800110860B2
:104AD00006E00868C068C0684068DFF8F010086049
:104AE0007047DFF890010068002801D1012007E03D
:104AF000DFF884010068002801D1022000E00020D6
:104B00007047000004ED00E010B50400002100280B
:104B10004FD0DFF844010068844207D0502080F372
:104B20001188BFF34F8FBFF36F8FFEE7A06C002893
:104B300007D1502080F31188BFF34F8FBFF36F8FE1
:104B4000FEE7A06C401EA064E06A626C904230D028
:104B5000A06C00282DD1201D01F007F800280FD1EE
:104B6000DFF8FC10E26A142042438858002807D17D
:104B7000DFF808110A680123E06A83409A430A605B
:104B8000606CE062E06AD0F10700A061DFF8EC1031
:104B90000A680123E06A83401A430A60211DDFF896
:104BA000C020E36A1420434302EB030000F0B6FF89
:104BB0000121080010BD00002044002004ED00E0A9
:104BC000F8430020E8440020F8640008E444002092
:104BD000D8440020C8440020B8440020BC44002031
:104BE000DC440020D4440020F8B505000C001B482C
:104BF0000668194F3868001D00F0B7FF002807D17C
:104C000038681E490A680123C06A83409A430A60D3
:104C100015F1010F07D1002C05D03868011D184887
:104C200000F07CFF16E0AD1938684560B54206D249
:104C30003868011D0D48006800F07CFF0AE0386804
:104C4000011D1048006800F075FF0F4801688D4293
:104C500000D20560F1BD0000B4440020C84400202B
:104C60001C410020D0430020E4430020BC4400202D
:104C7000C4440020D0440020EC440020CC44002058
:104C800020440020B8440020E444002038B504004B
:104C90000D00002C07D1502080F31188BFF34F8FF7
:104CA000BFF36F8FFEE701F003F82168E26B206C21
:104CB000424301EB0200A0600020A0632068606016
:104CC0002168E26B521E206C424301EB0200E0605F
:104CD0005FF0FF3084F8440084F84500002D12D1C5
:104CE0002069002817D014F11000FFF7CEFD00282E
:104CF00011D05FF08050DFF884150860BFF34F8F4C
:104D0000BFF36F8F07E014F1100000F0F5FE14F10F
:104D1000240000F0F1FE00F0E5FF012032BD38B5BF
:104D20001C00002807D1502080F31188BFF34F8F5B
:104D3000BFF36F8FFEE7002C07D1502080F311885E
:104D4000BFF34F8FBFF36F8FFEE7002A01D000291A
:104D500001D0012300E00023DBB2002B07D150205B
:104D600080F31188BFF34F8FBFF36F8FFEE7002AE8
:104D700001D1002901D1012300E00023DBB2002B87
:104D800007D1502080F31188BFF34F8FBFF36F8F8F
:104D9000FEE748230093009B482B07D0502080F368
:104DA0001188BFF34F8FBFF36F8FFEE7009B002C7E
:104DB00007D0049B012584F846500094DBB200F034
:104DC00027F8200032BDF8B505000E001700002DB1
:104DD00007D1502080F31188BFF34F8FBFF36F8F3F
:104DE000FEE706FB05F0483000F04AFD0400002C09
:104DF0000CD0200010F14802002084F846000094F6
:104E00003B00DBB23100280000F002F82000F2BDC8
:104E100080B5029B002901D11B6000E01A60D863B5
:104E2000196401211800FFF731FF01BD1CB50C000A
:104E30001300002807D1502080F31188BFF34F8F53
:104E4000BFF36F8FFEE7A04207D2502080F3118896
:104E5000BFF34F8FBFF36F8FFEE702210091002257
:104E60000021FFF75CFF002800D0846316BD10B559
:104E70000C00002807D1502080F31188BFF34F8F1A
:104E8000BFF36F8FFEE7A04207D2502080F3118856
:104E9000BFF34F8FBFF36F8FFEE702220021FFF7B2
:104EA00092FF002800D0846310BDF7B505000E0006
:104EB0001F000024002D07D1502080F31188BFF37C
:104EC0004F8FBFF36F8FFEE7002E02D1286C0028B2
:104ED00001D1012000E00020C0B2002807D15020FD
:104EE00080F31188BFF34F8FBFF36F8FFEE7022F60
:104EF00002D1E86B012801D1012000E00020C0B2FE
:104F0000002807D1502080F31188BFF34F8FBFF3E3
:104F10006F8FFEE7FFF7E5FD002802D10298002819
:104F200001D1012000E00020C0B2002838D150207B
:104F300080F31188BFF34F8FBFF36F8FFEE70298A6
:104F400000285CD0002C03D16846FFF7DBFC01246D
:104F500000F0C8FEFFF75AFB00F0AAFE95F94400E6
:104F600010F1010F02D1002085F8440095F94500A9
:104F700010F1010F02D1002085F8450000F0B2FECB
:104F800002A96846FFF7CCFC002852D1280000F0A7
:104F90006BFA002837D1280000F021FAFFF73CFB1C
:104FA00000F086FEA86BE96B884201D3022FC6D1C0
:104FB0003A003100280000F0BAF9696A00290FD0E0
:104FC00015F12400FFF761FC002814D05FF0805039
:104FD000DFF8A8120860BFF34F8FBFF36F8F0AE0AE
:104FE000002808D05FF08050DFF890120860BFF30F
:104FF0004F8FBFF36F8F00F075FE01201FE000F0B0
:1050000071FE00201BE0029915F11000FFF726FC4D
:10501000280000F0E4F9FFF7FFFA0028C0D15FF0A4
:105020008050DFF858120860BFF34F8FBFF36F8FC7
:10503000B6E7280000F0D3F9FFF7EEFA0020FEBD36
:105040002DE9F84305000E0014009846002D07D105
:10505000502080F31188BFF34F8FBFF36F8FFEE7AF
:10506000002E02D1286C002801D1012000E0002090
:10507000C0B2002807D1502080F31188BFF34F8FB2
:10508000BFF36F8FFEE7B8F1020F02D1E86B012882
:1050900001D1012000E00020C0B2002807D150203B
:1050A00080F31188BFF34F8FBFF36F8FFEE700F0DF
:1050B00043FEEFF31187502080F31188BFF34F8F29
:1050C000BFF36F8FA86BE96B884202D3B8F1020F70
:1050D00021D195F94590A86B42463100280000F097
:1050E00026F948465FF0FF3140B288420DD1686A28
:1050F000002809D015F12400FFF7C7FB002803D0D2
:10510000002C01D00120206003E019F1010985F88D
:105110004590012000E0002087F31188BDE8F2836C
:10512000F7B506000F000024002E07D1502080F3B1
:105130001188BFF34F8FBFF36F8FFEE7002F02D1AF
:10514000306C002801D1012000E00020C0B200280E
:1051500007D1502080F31188BFF34F8FBFF36F8FBB
:10516000FEE7FFF7BEFC002802D10298002801D11B
:10517000012000E00020C0B200280CD1502080F3B4
:105180001188BFF34F8FBFF36F8FFEE7300000F041
:1051900026F9FFF741FA00F08BFDB56B002D41D1E8
:1051A000029800285AD0002C03D16846FFF7AAFBCA
:1051B000012400F097FDFFF729FA00F079FD96F938
:1051C000440010F1010F02D1002086F8440096F946
:1051D000450010F1010F02D1002086F8450000F0D3
:1051E00081FD02A96846FFF79BFB00283AD13000F9
:1051F00000F02CF90028C9D0029916F12400FFF71D
:105200002DFB300000F0EBF8FFF706FA0028C2D1C2
:105210005FF08050DFF864100860BFF34F8FBFF37A
:105220006F8FB8E73900300000F0C4F86D1EB56329
:10523000306900280ED016F11000FFF726FB002879
:1052400008D05FF08050DFF834100860BFF34F8F54
:10525000BFF36F8F00F046FD01200EE000F042FD2D
:1052600000200AE0300000F0BAF8FFF7D5F930006E
:1052700000F0ECF800288ED00020FEBD04ED00E028
:105280002DE9F84305000E001400002D07D1502031
:1052900080F31188BFF34F8FBFF36F8FFEE7002EAF
:1052A00002D1286C002801D1012000E00020C0B20A
:1052B000002807D1502080F31188BFF34F8FBFF330
:1052C0006F8FFEE700F038FDEFF31188502080F378
:1052D0001188BFF34F8FBFF36F8FAF6B002F21D0BB
:1052E00095F944903100280000F064F87F1EAF6308
:1052F00048465FF0FF3140B288420DD1286900284E
:105300000ED015F11000FFF7C0FA002808D0002CCD
:1053100006D00120206003E019F1010985F84490CE
:10532000012000E0002088F31188BDE8F2832DE918
:10533000F041060015000027B46B306C002809D13D
:105340003068002831D1B068FFF7DEFB070000208D
:10535000B0602AE0002D0FD1326C75682800FDF78F
:10536000E1FD7068316C084470607068B168884213
:105370001BD33068706018E0326CD6F80C80404661
:10538000FDF7D0FDF068316C49420844F060F068E8
:105390003168884204D2B068316C49420844F060F8
:1053A000022D02D1002C00D0641E641CB4633800AE
:1053B000BDE8F08110B50C00016C00290ED0C16869
:1053C000026C1144C160C1688268914201D30168D6
:1053D000C160026CC1682000FDF7A4FD10BD70B56E
:1053E000040000F065FC94F9455008E014F1240035
:1053F000FFF74BFA002801D0FFF7D3FA6D1E280003
:1054000040B2012802DB606A0028EFD15FF0FF356F
:1054100084F8455000F066FC00F04AFC94F94460C2
:1054200008E014F11000FFF730FA002801D0FFF770
:10543000B8FA761E300040B2012802DB206900284D
:10544000EFD184F8445000F04DFC70BD10B504005D
:1054500000F02EFCA06B002801D1012400E0002404
:1054600000F040FC200010BD10B5040000F020FC4E
:10547000A06BE16B884201D1012400E0002400F020
:1054800031FC200010BD704770477047BBBBE1B1D5
:10549000B2F5803F80F07E80022A1ED98C46B1FB97
:1054A000F2F102FB11C31B0443EA1043B3FBF2FC0D
:1054B00002FB1C3380B240EA0343B3FBF2F002FB71
:1054C000103240EA0C4000237047022A05D9844676
:1054D000B0FBF2F002FB10C270474AB105D100F0F8
:1054E000010249085FEA300070470022002370473C
:1054F00000F060BC0B0002000021002070479042C9
:1055000071EB030CF6D3B3F5803F2FD2F0B5B3FAAD
:1055100083F7B1FA81F4A7F10F0E3D1B5340CEF192
:10552000200602FA0EF2F3415340B5F10F0746D8B8
:105530000F3C2C444140C4F12006A040F1414140C1
:10554000B1FBF3F603FB1611A2FB0645001BA941B4
:1055500002D2761E8018594180EA010221FA0EF328
:1055600062FA0EF200215A403046F0BD30B4B1FB71
:10557000F3FC03FB1C11A2FB0C45001BA94103D249
:10558000ACF1010C8018594130BC02460B46604614
:1055900000217047B2F1807F65D3F0B5B2FA82F78F
:1055A000B1FA81F4C7F10F063D1B22FA06F307F1A9
:1055B000110EF24120355A40B5F10F07B8D94140DC
:1055C000C4F12006A040F1414140B1FBF3FC03FBD4
:1055D0001C11A2FB0C45001BA94103D2BCF1010C1C
:1055E000801859410F2F12D30F3FC90341EA504190
:1055F000B1FBF3F603FB1611A2FB0645D4EBC0305A
:10560000A94102D2761E8018594146EACC3C07B324
:105610004140C7F12006B840F1414140B1FBF3F6EB
:1056200003FB1611A2FB0645001BA94102D2761E00
:105630008018594180EA010221FA0EF3C7F12004D3
:1056400062FA0EF20CFA07F05A402CFA04F13043D9
:10565000F0BD80EA010221FA0EF3002162FA0EF297
:1056600060465A40F0BD8C46B1FBF2F102FB11C31B
:105670001B0243EA1063B3FBF2FC02FB1C331B0268
:105680004CEA002043EA1063B3FBF2FC02FB1C333C
:105690001B024CEA002043EA1063B3FBF2FC02FB5E
:1056A0001C331B024CEA002043EA1063B3FBF2FCFC
:1056B00002FB1C324CEA00200023704718B587B06B
:1056C00001000020002000221920FDF7EDFA19202A
:1056D000FDF7FBFA002000901548016851F0010128
:1056E0000160006810F001000090009801A902A874
:1056F000FEF794FDFEF787FD40000E49B0FBF1F088
:10570000401E0D4C0D49216040F2E731E1606060C0
:10571000002020610020A0602000FAF735FD00285D
:1057200003D12000FAF767FD00E0012008B010BDAA
:105730004438024040420F005C420020000001401B
:1057400080B5002000900E48016851F4804101604E
:10575000006810F4804000900098002000900948F4
:10576000016851F080510160006810F08050009095
:10577000009800220F217FF00100FDF795FA01BD8E
:10578000443802404038024038B58AB00400002C4A
:1057900001D1012031E0256894F8F902002805D1F3
:1057A000002084F8F8022000FEF7ACF9032084F80A
:1057B000F902E86BC00501D400202061206800F0E8
:1057C0003BFB211D83B068463422FDF7BBFB0EBCBA
:1057D000206800F0F1FA0121206800F033FB211D60
:1057E00083B068463422FDF7ADFB0EBC206800F0A4
:1057F000D7FB012084F8F90200200BB030BD000077
:1058000010B500200020002000201948006810F08A
:105810000C00002804D0042804D0082804D025E077
:10582000144824E0144822E0144C226812F03F028D
:105830002068400209D52068C0F388100E49A1FBFA
:1058400000010023FFF722FE08E02068C0F3881063
:105850000849A1FB00010023FFF718FE2168C1F3EE
:105860000141491C4900B0FBF1F000E0014810BDC6
:10587000083802400024F40000127A000438024084
:105880002DE9F84304000025FEF7C0FEDFF844923E
:10589000D9F80000002801D100F0BDF88E4F38681B
:1058A00004426AD1002C15D08C480068041914F009
:1058B000070F0FD014F1080014F00704041B14F0B4
:1058C000070F07D0502080F31188BFF34F8FBFF32D
:1058D0006F8FFEE7002C50D0DFF80482D8F800006C
:1058E000A0424AD37F480100066801E031003668D3
:1058F0007068A04202D230680028F7D1D9F80000C1
:1059000086423AD075480A68036802EB030532689C
:105910000A60006840007168091B884214D206EBD7
:10592000040111F00700002807D0502080F31188EF
:10593000BFF34F8FBFF36F8FFEE77068001B4860A7
:105940007460080000F096F8D8F800107068091A22
:10595000C8F800106448D8F800100268914202D2DA
:10596000D8F8001001607168386801437160002048
:1059700030605E480168491C0160FEF74DFE15F07D
:105980000700002807D0502080F31188BFF34F8F05
:10599000BFF36F8FFEE72800BDE8F28310B501006A
:1059A000002837D04D480068404201EB00044A49C6
:1059B00060680A68104207D1502080F31188BFF355
:1059C0004F8FBFF36F8FFEE72068002807D050206D
:1059D00080F31188BFF34F8FBFF36F8FFEE76068CE
:1059E0000A68104216D02068002813D1626808683F
:1059F00082436260FEF70AFE39490A6860688218CD
:105A00000A60200000F036F839480168491C01603E
:105A1000FEF702FE10BD10B44FF47052354801007D
:105A200011F0070F04D0C91DC908C900521A821805
:105A30002C48016000234360521828480068121A5D
:105A4000D208D20023480260002304686360002368
:105A500004682360521A4A60006808604868224A55
:105A6000106048681E4908605FF000401A490860ED
:105A700010BC704710B41B4A00E0126811688142E4
:105A8000FBD3110053681944814204D15168406826
:105A9000411851601000010043681944136899428D
:105AA00010D10C4913680C68A34208D043681168F0
:105AB0004968CB18436011680968016004E009680F
:105AC000016001E011680160824200D0106010BCEA
:105AD0007047000094440020A8440020006500089E
