:020000040800F2
:10000000F063002025510008294F00082B4F0008FD
:100010002D4F00082F4F0008314F0008000000004E
:10002000000000000000000000000000C51A0008E9
:10003000334F0008000000006D1A0008111100087D
:1000400085510008895100088D5100089151000820
:1000500095510008995100089D510008A1510008D0
:10006000A5510008A9510008AD510008B151000880
:10007000B5510008B9510008BD510008C151000830
:10008000C5510008C9510008CD510008D1510008E0
:10009000D5510008D9510008DD510008E151000890
:1000A000E5510008354F0008E9510008ED510008FE
:1000B000F1510008F5510008F9510008FD51000800
:1000C0000152000805520008095200080D520008AC
:1000D00011520008155200083F4F0008195200083D
:1000E0001D5200082152000825520008295200081C
:1000F0002D520008315200083552000839520008CC
:100100003D5200084152000845520008495200087B
:100110004D5200085152000855520008595200082B
:100120005D520008615200086552000869520008DB
:100130006D5200087152000875520008795200088B
:100140007D5200088152000885520008895200083B
:100150008D520008915200089552000899520008EB
:100160009D520008A1520008A5520008A95200089B
:10017000AD520008B1520008B5520008000000005E
:10018000B9520008BD52000878B585B005000B983B
:10019000002807D1502080F31188BFF34F8FBFF3A1
:1001A0006F8FFEE70C9C002C07D1502080F3118844
:1001B000BFF34F8FBFF36F8FFEE754260096009E6C
:1001C000542E07D0502080F31188BFF34F8FBFF318
:1001D0006F8FFEE7009E002C13D0002811D0206303
:1001E000022084F8510000200390029404A801909A
:1001F0000A980090280000F042F8200000F09AF8D9
:1002000001E000200490049806B070BD2DE9F84389
:1002100084B00700884616009946300080B28000FE
:1002200000F02EFD0500002D0BD0542000F028FD1D
:100230000400002C01D0256304E0280000F0AEFD8E
:1002400000E00024002C15D0002084F8510000208C
:10025000039002940D9801900C9800904B46B6B212
:1002600032004146380000F00AF8200000F062F841
:10027000012001E05FF0FF3005B0BDE8F0832DE91B
:10028000F84305001E000A9F386B00EB8200B0F1B6
:1002900004085FEAD8085FEAC80818F007000028D9
:1002A00007D0502080F31188BFF34F8FBFF36F8FBB
:1002B000FEE7002910D0002200E0521C102A07D2CD
:1002C000885C07EB020383F83400885C0028F4D1D3
:1002D000002087F8430002E0002087F83400DDF8B2
:1002E0002090B9F1070F01D35FF00609099CC7F808
:1002F0002C90C7F844900020B864381D00F00BFE25
:1003000017F1180000F007FE3F61D9F10709C7F89F
:1003100018907F620020F864002087F850003200B7
:100320002900404600F034FE3860002C00D02760E1
:10033000BDE8F18338B5040000F0BAFEDFF87414AC
:100340000868401C0860DFF870542868002806D14F
:100350002C60086801280DD100F090FA0AE0DFF85F
:10036000E8040068002805D1E06A2968C96A884263
:1003700000D32C60DFF8D4040168491C0160DFF869
:10038000D0140A680123E06A83401A430A60211DE1
:10039000DFF8E424E36A1420434302EB030000F097
:1003A000BDFD00F09FFEDFF8A004006800280DD01E
:1003B0002868C06AE16A884208D25FF08050DFF89E
:1003C00074160860BFF34F8FBFF36F8F31BD10B548
:1003D00004000020002C14D0DFF834050068002849
:1003E00007D0502080F31188BFF34F8FBFF36F8F7A
:1003F000FEE700F059F80021200000F0EFFB00F0CC
:1004000059F8002808D15FF08050DFF828160860FE
:10041000BFF34F8FBFF36F8F10BD10B586B00020B4
:1004200004900020039005AA03A904A800F0C2FECE
:10043000DFF8844704980290039801900020009010
:100440000023059ADFF874170FF20940FFF79CFEAE
:1004500020602068002801D0012000E00020012851
:1004600017D1502080F31188BFF34F8FBFF36F8FE8
:100470005FF0FF30DFF8481708600120DFF8C8138D
:1004800008600020DFF84017086000F0AAFD06B001
:1004900010BD10F1010FFAD1502080F31188BFF385
:1004A0004F8FBFF36F8FFEE7DFF864040168491CCC
:1004B0000160704770B500240025DFF8546430688F
:1004C000002807D1502080F31188BFF34F8FBFF36E
:1004D0006F8FFEE700F0ECFD3068401E3060306842
:1004E000002855D1DFF8CC020068002826D14FE063
:1004F000C868C46814F1180000F037FD201D00F032
:1005000034FDDFF84C130A680123E06A83401A4384
:100510000A60211DDFF86023E36A1420434302EBE5
:10052000030000F0FBFCE06ADFF88C120968C96A7E
:10053000884203D30120DFF88C160860DFF87416B8
:1005400008680028D4D1002C01D000F004FADFF8AC
:1005500088663468002C0CD000F01EF8002803D008
:100560000120DFF860160860641E002CF4D1002022
:100570003060DFF850060068002809D001255FF0E0
:100580008050DFF8B0140860BFF34F8FBFF36F8F58
:1005900000F0A8FD280070BDF8B50025DFF8700355
:1005A000006800286BD1DFF820060468641C046032
:1005B000002C1AD1DFF8141608680068002807D04C
:1005C000502080F31188BFF34F8FBFF36F8FFEE78A
:1005D0000868DFF8FC2513680B601060DFF8F4058D
:1005E0000168491C016000F0B6F9DFF8D465306895
:1005F000844233D327E00868C068C76878688442BB
:100600002BD3381D00F0B1FCB86A002803D017F1D5
:10061000180000F0AAFC8E490A680123F86A83409A
:100620001A430A60391DDFF85022FB6A1420434345
:1006300002EB030000F072FCF86A5F490968C96ABE
:10064000884200D30125DFF8841508680068002877
:10065000D1D15FF0FF30306000E030605648006874
:100660008549C26A142042438858022800D30125D4
:10067000DFF850050068002806D0012504E0DFF807
:1006800058050168491C01602800F2BDDFF88002AE
:100690000068002804D00120DFF8281508602AE04F
:1006A0000020DFF82015086069480068B0FA80F182
:1006B000D1F11F011422704B02FB01F018580028E1
:1006C00007D1502080F31188BFF34F8FBFF36F8F96
:1006D000FEE7514303EB010041684968416041680E
:1006E00010F10802914202D14168496841604068B6
:1006F000C06831490860704710B50C00002807D168
:10070000502080F31188BFF34F8FBFF36F8FFEE748
:10071000DFF838150968183100F00CFC01212000C1
:1007200000F05CFA10BD10B5C068C468002C07D199
:10073000502080F31188BFF34F8FBFF36F8FFEE718
:1007400014F1180000F011FC71480068002813D162
:10075000201D00F00AFC3E490A680123E06A83403C
:100760001A430A60211D444AE36A1420434302EB02
:10077000030000F0D3FB05E014F11801DFF83404A6
:1007800000F0CCFB0C480068C06AE16A884205D2E0
:1007900001200121DFF82C24116000E0002010BDB1
:1007A000DFF8301409680160DFF8A41409684160BB
:1007B00070470000BC430020AC43002038B5040063
:1007C0000D00002C07D1502080F31188BFF34F8F0C
:1007D000BFF36F8FFEE7002D07D1502080F3118803
:1007E000BFF34F8FBFF36F8FFEE700F061FCDFF8C0
:1007F000D80300686168411A2A6812F1010F01D11B
:10080000002418E0DFF8CC23126823689A4204D051
:100810006268904201D301240DE02868814207D22A
:100820002868411A29602000FFF7BAFF002402E07F
:1008300000202860012400F055FC200032BD01207A
:10084000DFF8801308607047C8430020D8430020B9
:10085000C443002080B500F03AF807480068022839
:10086000F9D35FF08050DFF830130860BFF34F8F8B
:10087000BFF36F8FEFE700001C41002038B5002464
:1008800008E0DFF8D003142101FB04F1084400F074
:1008900033FB641C072CF4D3DFF8BC43200000F0CA
:1008A0002BFBDFF8B853280000F026FBDFF8040329
:1008B00000F022FB144800F01FFB8B4800F01CFBEB
:1008C000DFF808030460DFF89803056031BD38B530
:1008D00014E000F0EDFB0C48C068C468201D00F077
:1008E00044FBDFF880030168491E01602868401E50
:1008F000286000F0F7FB200000F00CF8034D28689A
:100900000028E6D131BD000034430020B843002068
:10091000E443002010B5040094F85100002806D1EB
:10092000206B00F03BFA200000F038FA10BD94F87C
:100930005100012803D1200000F030FAF6E794F8C6
:1009400051000228F2D0502080F31188BFF34F8F5E
:10095000BFF36F8FFEE7DFF87412086800680028A5
:1009600005D15FF0FF30DFF85812086006E0086834
:10097000C068C0684068DFF8481208607047DFF858
:10098000E8020068002801D1012007E0DFF8DC025E
:100990000068002801D1022000E000207047F8B56F
:1009A00004000021002843D0DFF8A052E06A2A6842
:1009B000D26A904236D2A069002804D42868C06A5E
:1009C000D0F10700A061DFF88C6214276069E16A4A
:1009D00079433144884220D1201D00F0C6FA002816
:1009E00007D1DFF88C120A680123E06A83409A433A
:1009F0000A602868C06AE062DFF874120A6801239E
:100A0000E06A83401A430A60211DE06A07FB00F791
:100A100006EB070000F082FA02E02868C06AE06294
:100A2000012105E0606C2A68D26A904200D201215F
:100A30000800F2BD04ED00E010B50400002100281C
:100A40004FD0DFF808020068844207D0502080F3BE
:100A50001188BFF34F8FBFF36F8FFEE7A06C0028A4
:100A600007D1502080F31188BFF34F8FBFF36F8FF2
:100A7000FEE7A06C401EA064E06A626C904230D039
:100A8000A06C00282DD1201D00F06FFA00280FD196
:100A9000DFF8C011E26A142042438858002807D1C9
:100AA000DFF8CC110A680123E06A83409A430A60A8
:100AB000606CE062E06AD0F10700A061DFF8B0117D
:100AC0000A680123E06A83401A430A60211DDFF8A7
:100AD0008421E36A1420434302EB030000F01EFA72
:100AE0000121080010BD00004843002070B504003B
:100AF000012200284ED0A06C002807D1502080F39E
:100B00001188BFF34F8FBFF36F8FFEE7606C884291
:100B100000D3616CE06A88423CD0A06C904239D12D
:100B2000DFF828010068844207D1502080F3118843
:100B3000BFF34F8FBFF36F8FFEE7E06AE162A269F8
:100B4000002A02D4D1F10701A161DFF8085114266F
:100B500061697043284481421CD1201D00F005FAD0
:100B6000002807D1DFF808110A680123E06A8340F2
:100B70009A430A60DFF8F8100A680123E06A8340AC
:100B80001A430A60211DE06A06FB00F605EB060029
:100B900000F0C4F970BD000004ED00E0DFF8AC1017
:100BA0000868002803D00868826C521C82640868B8
:100BB0007047000020430020E043002074510008EB
:100BC000DC430020D0430020C0430020B04300207D
:100BD000B4430020D4430020CC430020F8B50500E6
:100BE0000C001B480668194F3868001D00F0BDF95D
:100BF000002807D138681E490A680123C06A83406B
:100C00009A430A6015F1010F07D1002C05D038680E
:100C1000011D184800F082F916E0AD1938684560EA
:100C2000B54206D23868011D0D48006800F082F90F
:100C30000AE03868011D1048006800F07BF90F4891
:100C400001688D4200D20560F1BD0000AC43002078
:100C5000C04300201C410020F84200200C4300202B
:100C6000B4430020BC430020C8430020E4430020DC
:100C7000C443002048430020B0430020DC43002050
:100C80002DE9F84304000025FFF70EFCDFF844923D
:100C9000D9F80000002801D100F0BDF88E4F386867
:100CA00004426AD1002C15D08C480068041914F055
:100CB000070F0FD014F1080014F00704041B14F000
:100CC000070F07D0502080F31188BFF34F8FBFF379
:100CD0006F8FFEE7002C50D0DFF80482D8F80000B8
:100CE000A0424AD37F480100066801E0310036681F
:100CF0007068A04202D230680028F7D1D9F800000D
:100D000086423AD075480A68036802EB03053268E8
:100D10000A60006840007168091B884214D206EB23
:100D2000040111F00700002807D0502080F311883B
:100D3000BFF34F8FBFF36F8FFEE77068001B4860F3
:100D40007460080000F096F8D8F800107068091A6E
:100D5000C8F800106448D8F800100268914202D226
:100D6000D8F8001001607168386801437160002094
:100D700030605E480168491C0160FFF79BFB15F07D
:100D80000700002807D0502080F31188BFF34F8F51
:100D9000BFF36F8FFEE72800BDE8F28310B50100B6
:100DA000002837D04D480068404201EB00044A4912
:100DB00060680A68104207D1502080F31188BFF3A1
:100DC0004F8FBFF36F8FFEE72068002807D05020B9
:100DD00080F31188BFF34F8FBFF36F8FFEE760681A
:100DE0000A68104216D02068002813D1626808688B
:100DF00082436260FFF758FB39490A6860688218CD
:100E00000A60200000F036F839480168491C01608A
:100E1000FFF750FB10BD10B44FF47052354801007D
:100E200011F0070F04D0C91DC908C900521A821851
:100E30002C48016000234360521828480068121AA9
:100E4000D208D200234802600023046863600023B4
:100E500004682360521A4A60006808604868224AA1
:100E6000106048681E4908605FF000401A49086039
:100E700010BC704710B41B4A00E012681168814230
:100E8000FBD3110053681944814204D15168406872
:100E900041185160100001004368194413689942D9
:100EA00010D10C4913680C68A34208D0436811683C
:100EB0004968CB18436011680968016004E009685B
:100EC000016001E011680160824200D0106010BC36
:100ED000704700008C430020A04300207C51000894
:100EE0009043002064430020944300209843002056
:100EF0009C4300201800002010F1080141605FF0C1
:100F0000FF31816010F10801C16010F10801016139
:100F100000210160704700210161704742684A600A
:100F200093688B6093685960916008610168491CFF
:100F30000160704710B40B6813F1010F01D1026911
:100F400007E010F1080200E0526854682468A342E8
:100F5000FAD253684B604B6899608A6051600861AF
:100F60000168491C016010BC7047016982684368D0
:100F70009A60426883685A604A68824201D18268F6
:100F80004A60002202610868401E086008687047D5
:100F9000001F5FF080730360001F49084900016073
:100FA000001F0FF21501016014380260001F7FF06E
:100FB00002010160203870477248006810F1010F8B
:100FC00007D0502080F31188BFF34F8FBFF36F8F8E
:100FD000FEE7502080F31188BFF34F8FBFF36F8F70
:100FE000FEE7E0B568480168684A914207D15020A1
:100FF00080F31188BFF34F8FBFF36F8FFEE7006858
:101000006349884207D1502080F31188BFF34F8F86
:10101000BFF36F8FFEE75F4801780191FF210170F8
:1010200001788DF800109DF8001011F050015A4A17
:1010300011705A4907220A6007E00A68521E0A60C6
:101040009DF8002052008DF800209DF80020120627
:10105000F3D40A68D2F10702042A07D0502080F3A3
:101060001188BFF34F8FBFF36F8FFEE70A6812023C
:101070000A600A6812F4E0620A6001990170484847
:10108000016851F470010160016851F07041016024
:1010900000F0D2FC00203B49086000F031FD4148DF
:1010A000016851F04041016000F01AFD00200EBDC2
:1010B000502080F31188BFF34F8FBFF36F8F3149FA
:1010C0000A68521C0A60096801290AD13649096870
:1010D000090606D080F31188BFF34F8FBFF36F8FDF
:1010E000FEE7704727490868002807D1502080F3A1
:1010F0001188BFF34F8FBFF36F8FFEE70868401E64
:1011000008600868002802D1002080F31188704729
:1011100080B5502080F31188BFF34F8FBFF36F8FDE
:10112000FFF73AFA002803D05FF080501E490860AC
:10113000002080F3118801BDEFF3058010280FD344
:101140001A490968085C14490978C0B2884207D274
:10115000502080F31188BFF34F8FBFF36F8FFEE7EE
:101160000E4800681249096811F4E061884207D20C
:10117000502080F31188BFF34F8FBFF36F8FFEE7CE
:10118000704700000400002000ED00E071C20F4134
:1011900070C20F4100E400E0E8430020A4430020B7
:1011A00020ED00E034EF00E004ED00E080510008A5
:1011B0000CED00E0DFF804380360DFF80408086095
:1011C00080201060704700B5ADB0DFF8F807DFF899
:1011D000F817016008224260002202810222827216
:1011E000DFF8E827C260802303824FF480734382D4
:1011F000DFF8DC0701600C21416000210181022140
:101200008172C2604FF4805101824FF400514182DB
:10121000DFF8C007D0E90023CDE9002301216846AB
:1012200000F0CFFCDFF8B017086006A8DFF8AC17B5
:10123000102200F0FFFD002106A800F04FFDDFF8AE
:10124000A017086002A8DFF89C17102200F0F2FD3A
:10125000002102A800F042FDDFF88C17086026A8E4
:10126000DFF888171C2200F0E5FD002126A800F019
:101270006EFCDFF87C1708601FA8DFF878171C22C7
:1012800000F0D8FD00211FA800F061FCDFF868170E
:10129000086018A8DFF864171C2200F0CBFD0021BD
:1012A00018A800F054FCDFF85817086011A8DFF800
:1012B00054171C2200F0BEFD002111A800F047FCCD
:1012C000DFF8441708600AA8DFF840171C2200F076
:1012D000B1FD00210AA800F03AFCDFF834170860DD
:1012E0002DB000BD80B5012000F060FCFBE71FB50C
:1012F0000A22DFF8EC060168684600F035FD009828
:1013000000281FD1019804782000C0B2012803D022
:101310002000C0B202280DD10022DFF8B416DFF899
:10132000A40600F07EFA0A220199DFF8BC060068E4
:1013300000F0EAFC2200D2B2DFF89416DFF884064F
:1013400000F037FA012000F031FCD1E738B5032472
:101350000A2503E0FFE7012000F028FC5FF0FF31E1
:10136000DFF87406006800F056FC2B00220092B2F1
:101370006946DFF8A00600F0F0FD0028EBD1DFF8A9
:10138000980600780028E6D0022816D0E2D2DFF8CE
:101390008C169DF800000870684642784A80807874
:1013A00008710022DFF83806006800F0ADFC642206
:1013B0000221012000F09EFACDE7CCE72DE9F041B3
:1013C0002DED0A8B8CB000259FED820A9FED81AA3E
:1013D0009FED809A002604A8DFF84416102200F042
:1013E00029FDDFED7D8A02A8DFF83816D1E9002358
:1013F000C0E9002300200190002000909FED758A35
:10140000DFED749A9FED730A9FED720A9FED710AEA
:101410009FED700A7EE0B0EE490AB0EE49AA03E003
:10142000B0EE08AAB0EE4A9ADFF8EC050078002882
:1014300069D000F05EFAF0EE40AA00F05AFAB0EE81
:1014400040BAF0EE681AB0EE481A01A904A8F0EE0E
:101450006A0AB0EE4A0A00F0F1F9F0EE40BAF0EE96
:10146000681AB0EE691A694604A8F0EE4B0AB0EEAD
:101470004A0A00F0E3F9B0EE40CAF0EE4B9AB0EE43
:101480006A8A9DED040A4AEE00BA9DED040A0AEE4E
:1014900000CA02A8B0EE6B0A00F0EEF9B0EE40BA56
:1014A00002A8B0EE4C0A00F0E7F9F0EE40BADFF81F
:1014B0001475390002A8B0EE4B0A00F0F9F9DFF814
:1014C0001085414602A8B0EE6B0A00F0F1F9280041
:1014D000C0B2002817D0DFF8500590ED000A2AEEC0
:1014E000800A20EE280ABDEEC00A10EE100A861906
:1014F0003000210080B289B2884204D306224146DE
:10150000380000F056F9BDEEE80A10EE100A80B27D
:1015100000F04CFB0A22DFF8D004016808A800F0B4
:1015200023FC089800287FF47FAF0998448800794D
:101530000026210089B2002901D0012500E0002504
:1015400000210191002100919FED228ADFED219A77
:10155000C0B2002808D002280ED008D304283FF4D7
:101560005AAFFFF45DAF58E7B0EE49AA5CE7B7EEBB
:1015700000AAB0EE4A9A57E7B0EE00AAB0EE4A9A37
:1015800052E780B50FE04FF4FA620121012000F02C
:10159000B1F905E04FF47A720121022000F0AAF9B6
:1015A000012000F003FBDFF870040078002803D06E
:1015B0000228EFD007D3E6E74FF47A72012100202A
:1015C00000F098F9ECE74FF4FA620121012000F0F5
:1015D00091F9E5E700000000000048420268D26887
:1015E0000B009BB29A4220D34268002A05D10A0020
:1015F00092B203681B685A6316E04268042A05D158
:101600000A0092B203681B689A630DE04268082AD8
:1016100005D10A0092B203681B68DA6304E00A008D
:1016200092B203681B681A640181704710B5040008
:101630000022218AE06800F0A8FF0022618AE068A9
:1016400000F0A3FF0220A07210BD10B5040001221B
:10165000218AE06800F099FF0022618AE06800F0CA
:1016600094FF0020A07210BD10B504000022218A52
:10167000E06800F08AFF0122618AE06800F085FFDF
:101680000120A07210BD80B5C9B2002903D0022983
:1016900007D003D308E0FFF7D8FF07E0FFF7E4FF28
:1016A00004E0FFF7C3FF01E0FFF7C0FF01BD10B585
:1016B0000C000021FFF7E7FF00212000FFF7E3FF08
:1016C00010BD10B50C000121FFF7DDFF0121200046
:1016D000FFF7D9FF10BD10B50C000221FFF7D3FFB3
:1016E00002212000FFF7CFFF10BD2DE9F0410400DB
:1016F0000D0026892F89DFF83483B8F80010200008
:10170000FFF76CFFB8F800102800FFF767FF002113
:101710002000FFF7B8FF01212800FFF7B4FFC448FD
:10172000008800F043FA02212000FFF7ACFF0221FD
:101730002800FFF7A8FF310089B22000FFF74EFF15
:10174000390089B22800FFF749FFBDE8F0812DE993
:10175000F04104000D0026892F89DFF8D082B8F807
:1017600000102000FFF73AFFB8F800102800FFF73C
:1017700035FF01212000FFF786FF00212800FFF739
:1017800082FFAB48008800F011FA02212000FFF729
:101790007AFF02212800FFF776FF310089B220008E
:1017A000FFF71CFF390089B22800FFF717FFBDE8DB
:1017B000F08138B504000D00D2B2002A09D0022A07
:1017C0000DD007D3042A14D00ED3062A1FD015D368
:1017D00022E025E029002000FFF769FF20E0290032
:1017E0002000FFF76EFF1BE029002000FFF77DFFC0
:1017F00016E029002000FFF7AAFF11E029002000D1
:10180000FFF773FF29002000FFF76FFF08E02900B2
:101810002000FFF760FF03E029002000FFF75BFFD7
:1018200031BD38B50C001500290089B2FFF7D6FE8E
:10183000290089B22000FFF7D1FE31BD30EE600AE9
:1018400090ED012A22EE002AD1ED002A40EE212A55
:1018500090ED020A22EE800A70EEC10A90ED031AA2
:1018600060EE810AC0EEA10A81ED000A32EE000AA4
:1018700030EE600A70470000D0ED000AB4EE600A56
:10188000F1EE10FA04D59FED4B0AF0EE400A0DE0A0
:10189000D0ED010AF4EE400AF1EE10FA04D590ED15
:1018A000010AF0EE400A01E0F0EE400A7047000045
:1018B00080B50A00DFED400A20EE200AD0ED010AD3
:1018C00090ED001A70EEC10A80EE200ABDEEC00A4B
:1018D00010EE100A1168C968491C80B200FB01F0C3
:1018E0006421B0FBF1F1491E89B21000FFF776FECA
:1018F00001BD70472DE9F0410C0015006426C0B20F
:10190000002803D0022838D01BD351E0002713E071
:10191000DFF8208101220421404600F036FE30002D
:1019200080B200F043F900220421404600F02DFE71
:10193000280000F03BF97F1C380080B2A042E7D3BA
:1019400036E05FF0000813E03A4F01220121380031
:1019500000F01BFE300080B200F028F900220121C7
:10196000380000F012FE280000F020F918F10108FC
:10197000404680B2A042E7D31AE05FF0000813E0CF
:101980002C4F01220221380000F0FFFD300080B210
:1019900000F00CF900220221380000F0F6FD2800CA
:1019A00000F004F918F10108404680B2A042E7D3E4
:1019B000BDE8F081000000000000C842A8410020FE
:1019C0001C3F0020D0420020444200200010024072
:1019D000E44200205C51000888430020E4500008E5
:1019E00080430020F4500008844300200C5000087D
:1019F0006C43002028500008704300204450000829
:101A00007443002060500008784300207C50000898
:101A10007C4300208C420020140000205C43002006
:101A2000045100086451000800000020100000204C
:101A300012000020000C0240084800210160002133
:101A4000074A1160074909684FF47A72B1FBF2F155
:101A5000491E054A116007210160704710E000E04F
:101A600018E000E00C00002014E000E0EFF3098033
:101A7000BFF36F8F264B1A681EF0100F08BF20EDC2
:101A8000108A20E9F04F106009B44FF0500080F345
:101A90001188BFF34F8FBFF36F8FFEF7F7FD4FF045
:101AA000000080F3118809BC19680868B0E8F04F9D
:101AB0001EF0100F08BFB0EC108A80F30988BFF346
:101AC0006F8F7047124B19680868B0E8F04F80F3C9
:101AD0000988BFF36F8F4FF0000080F311887047C3
:101AE0000C480068006880F308884FF0000080F31D
:101AF000148862B661B6BFF34F8FBFF36F8F00DFFC
:101B0000DFF81400016841F47001016070470000C3
:101B1000AC43002008ED00E088ED00E0010000206B
:101B20000A0012B2842A03D009B2C91C091808009D
:101B30007047EFF30580002801D0012000E000206D
:101B4000C0B2704780B5FEF768FC002002BD38B512
:101B500084B004000D006069002815D0A069002839
:101B600012D0B4F90800FFF7D9FFA16902916169A9
:101B7000019100902B00226921686068FEF704FB48
:101B80000390039805B030BDB4F90800FFF7C6FF15
:101B900003A9019100902B00226992B2216860682C
:101BA000FEF734FB0128ECD00020EBE780B50121E3
:101BB000B0FBF1F0002800D10120FEF708FC002066
:101BC00002BD1CB54268002A0FD0012908D10321AB
:101BD0000091436800220021012000F046FD19E039
:101BE0004268080000F0C8FD14E001290FD103226B
:101BF0000021012000F08DFD0400002C05D0002301
:101C000000220021200000F0F6FD200002E0080084
:101C100000F0D3FD16BD38B5050000200090002D62
:101C200001D1802028E0002411F1010F02D15FF0E2
:101C3000FF3407E0002905D00120B1FBF0F4002CAF
:101C400000D10124FFF775FF002816D06A46002155
:101C5000280001F0E3F8012801D0FF200CE00098F3
:101C6000002808D05FF08050DFF8A4110860BFF3AF
:101C70004F8FBFF36F8F002032BD2100280000F08E
:101C8000FFFF0128F7D0FF20F6E738B50400002554
:101C900000200090FFF74DFF002814D06946200077
:101CA00000F0E4FE012801D0FF2016E00098002893
:101CB00012D05FF08050DFF858110860BFF34F8FEB
:101CC000BFF36F8F08E0002300220021200000F006
:101CD00092FD012800D0FF25280032BD80B5816823
:101CE00000290BD0C168002908D000210091C368E9
:101CF00082684168006800F0B8FC04E00022416896
:101D0000006800F006FD02BD33B581B0050000207B
:101D100000900120B2FBF0F4002C00D10124FFF769
:101D200008FF002816D000236A4602A9280000F008
:101D30002DFE012801D0FF200BE00098002807D0DD
:101D40005FF0805032490860BFF34F8FBFF36F8F51
:101D500000203EBD0023220002A9280000F04BFD18
:101D60000128F5D0FF20F4E77FB506000D000295AD
:101D700000200190002D07D180200090684690E857
:101D80000E0086E80E0041E000200390002412F1CE
:101D9000010F02D15FF0FF3407E0002A05D00120D7
:101DA000B2FBF0F4002C00D10124FFF7C2FE0028A2
:101DB00017D003AA01A9280001F030F8012802D1A8
:101DC0001020009001E0002000900398002818D017
:101DD0005FF080500E490860BFF34F8FBFF36F8FE5
:101DE0000FE0220001A9280000F09CFE012802D18A
:101DF0001020009005E0002C01D1002000E04020E0
:101E00000090684690E80E0086E80E007FBD000056
:101E100004ED00E062B38B0708D0521E11F8013BBD
:101E200000F8013B00F024808B07F6D1830740F0D7
:101E3000208000BF103A07D330B4B1E83810103A10
:101E4000A0E83810F9D230BC530724BFB1E808101D
:101E5000A0E8081044BF51F8043B40F8043BD20707
:101E600024BF31F8022B20F8022B44BF0B780370FB
:101E70007047121F17D35B0009D151F8043B20F8BB
:101E8000023B1B0C121F20F8023BF6D20BE051F86C
:101E9000043B00F8013B1B0A20F8023B1B0C121FFD
:101EA00000F8013BF3D238BF121D521E24BF11F8B7
:101EB000013B00F8013BF8D870470EE00268436828
:101EC000024408305FEAC37C44BF4B445B1E52F8B7
:101ED00004CB43F804CB091FF9D150F8041B0029A7
:101EE000ECD1704710B50400002C01D1012033E083
:101EF000A0690028FFD194F83D00002805D10020FA
:101F000084F83C00200001F0B2F8242084F83D0061
:101F10002068C06830F400502168C860200000F0DC
:101F2000CEF82068006930F490402168086120688C
:101F3000406930F02A00216848612068C06850F488
:101F400000502168C86000202064202084F83D00F3
:101F5000202084F83E00002010BD2DE9FC41060041
:101F60000D0014001F00002096F83E0020285ED1CE
:101F7000002D03D0200080B2002801D1012057E0BD
:101F800096F83C00012801D1022051E0012086F89A
:101F90003C0000203064222086F83E0000203063A0
:101FA00001F0A4F88046B485F485B068B0F5805F90
:101FB00004D13069002801D1002401E02C00002563
:101FC000002086F83C0010E03068406810F07F0088
:101FD000207025E0002C16D130684068C005C00D87
:101FE0002880AD1CF08D401EF085F08D002819D0A2
:101FF0000097434600222021300000F01BF8002803
:10200000E8D0032014E0B068B0F5805F05D0B06878
:102010000028D9D130690028D6D1306840682070B6
:10202000641CDFE7202086F83E00002000E002204C
:10203000BDE8F6812DE9F04105000E0090461F0035
:10204000069C286800683040B04201D1012000E0C1
:1020500000204146C9B288422ED114F1010FF0D0C0
:10206000002C04D001F042F8C01B8442E9D2286859
:102070000C3050E8001F31F4D071286810F10C02C8
:1020800042E800100028F2D12868143050E8001F00
:1020900049084900286810F1140242E8001000289D
:1020A000F2D1202085F83D00202085F83E00002058
:1020B00085F83C00032000E00020BDE8F0812DE918
:1020C000FE4F05002868016931F44051E86801437A
:1020D00028680161A9682869014368690143E869C2
:1020E00001432868C268B048024011432868C160B3
:1020F0002868416931F44071A86901432868416149
:102100002868AA49884203D02868A949884203D18F
:1021100001F09DF8040002E001F08EF80400E86987
:10212000B0F5004F40F09F807FF0630A0226002741
:102130005FF019085FF0000922000023A8FB0201EC
:1021400008FB031109FB0211CDE9000168680021B9
:10215000A6FB002306FB013307FB0033DDE900018A
:1021600001F0A8F86421B0FBF1F0029022000023F6
:10217000A8FB020108FB031109FB0211CDE90001D4
:1021800068680021A6FB002306FB013307FB003330
:10219000DDE9000101F08EF8834622000023A8FB50
:1021A000020108FB031109FB0211CDE90001686877
:1021B0000021A6FB002306FB013307FB0033DDE90A
:1021C000000101F077F86421B0FBF1F00AFB00B0E8
:1021D000C00032306421B0FBF1F0400010F4F87020
:1021E000029910EB0110029022000023A8FB0201CB
:1021F00008FB031109FB0211CDE900016868002109
:10220000A6FB002306FB013307FB0033DDE90001D9
:1022100001F050F883462000002102000B00A8FBCB
:10222000020108FB031109FB02116A6800239046B2
:102230009946A6FB082306FB093307FB083301F088
:1022400039F86421B0FBF1F00AFB00BA5FEACA007A
:1022500032306421B0FBF1F111F007010298091846
:10226000286881609CE0042600277FF0630A5FF005
:1022700019085FF0000922000023A8FB020108FBF7
:10228000031109FB0211CDE9000168680021A6FBDA
:10229000002306FB013307FB0033DDE9000101F0F9
:1022A00009F86421B0FBF1F0029022000023A8FBA2
:1022B000020108FB031109FB0211CDE90001686866
:1022C0000021A6FB002306FB013307FB0033DDE9F9
:1022D000000100F0EFFF834622000023A8FB02016B
:1022E00008FB031109FB0211CDE900016868002118
:1022F000A6FB002306FB013307FB0033DDE90001E9
:1023000000F0D8FF6421B0FBF1F00AFB00B000013F
:1023100032306421B0FBF1F010F0F000029910EBC4
:102320000110029022000023A8FB020108FB031108
:1023300009FB0211CDE9000168680021A6FB00231A
:1023400006FB013307FB0033DDE9000100F0B2FFBB
:1023500083462000002102000B00A8FB020108FBBD
:10236000031109FB02116A68002390469946A6FBF7
:10237000082306FB093307FB083300F09BFF6421A9
:10238000B0FBF1F00AFB00BA5FEA0A1032306421B8
:10239000B0FBF1F111F00F01029809182868816073
:1023A000BDE8F78F00000000F369FFFF0010014057
:1023B00000140140F8B4002200220022002337E07C
:1023C000082704E0DFF8D8219042F9D10727FFB2AF
:1023D00013F00302D2B2920097403E431A009208D3
:1023E00045F82260DFF8BC512A68A2434E68F60225
:1023F00000D522432A60DFF8B0512A68A2434E6814
:10240000B60200D522432A60DFF8A0512A68A24311
:102410004E68B60300D522432A60DFF894512A683B
:10242000A2434E68F60301D5144322002A605B1CC8
:10243000102B80F0A880012515FA03F20C681440D7
:102440009442F4D10A7912F00302012A04D00A79E5
:1024500012F00302022A16D1866803271A00D2B2AC
:1024600052009740BE43CF681A00D2B25200974044
:102470003E43866042689D40AA434D68C5F30015FF
:102480009D402A4342600A7912F00302032A0DD0CC
:10249000C56803261A00D2B252009640B5438E6832
:1024A0001A00D2B2520096403543C5600A7912F044
:1024B0000302022A17D11A00D20800EB8202156A21
:1024C0000F2613F00702D2B292009640B5430E6970
:1024D00013F00702D2B29200964035431A00D20898
:1024E00000EB82021562056803261A00D2B2520080
:1024F0009640B5430E7916F003061A00D2B2520088
:102500009640354305604A6812F4403F8FD0002260
:102510000092284A156855F480451560126812F437
:1025200080420092009A244D1A00920855F82260C9
:102530000F2713F00302D2B292009740BE431F4A06
:10254000904201D1002742E71D4A904201D1012764
:102550003DE71C4A904201D1022738E71A4A9042CF
:1025600001D1032733E7194A904201D104272EE70E
:10257000174A904201D1052729E7164A90427FF475
:1025800021AF062723E7F1BC7047D2B2002A02D060
:1025900089B2816102E089B209048161704700005B
:1025A000001C0240083C01400C3C0140043C01403E
:1025B000003C01404438024008380140000002401D
:1025C0000004024000080240000C024000100240DB
:1025D000001402400018024038B504000D00002C21
:1025E00007D1502080F31188BFF34F8FBFF36F8F57
:1025F000FEE7FEF75DFD2168E26B206C424301EBD4
:102600000200A0600020A063206860602168E26B87
:10261000521E206C424301EB0200E0605FF0FF308D
:1026200084F8440084F84500002D12D12069002868
:1026300017D014F11000FEF776F8002811D05FF0E3
:102640008050DFF8D4170860BFF34F8FBFF36F8F50
:1026500007E014F11000FEF74FFC14F12400FEF720
:102660004BFCFEF73FFD012032BD38B51C000028B1
:1026700007D1502080F31188BFF34F8FBFF36F8FC6
:10268000FEE7002C07D1502080F31188BFF34F8F55
:10269000BFF36F8FFEE7002A01D0002901D001238C
:1026A00000E00023DBB2002B07D1502080F311881B
:1026B000BFF34F8FBFF36F8FFEE7002A01D10029D0
:1026C00001D1012300E00023DBB2002B07D1502011
:1026D00080F31188BFF34F8FBFF36F8FFEE748235E
:1026E0000093009B482B07D0502080F31188BFF344
:1026F0004F8FBFF36F8FFEE7009B002C07D0049B2A
:10270000012584F846500094DBB200F027F8200041
:1027100032BDF8B505000E001700002D07D150207E
:1027200080F31188BFF34F8FBFF36F8FFEE706FB77
:1027300005F04830FEF7A4FA0400002C0CD020006D
:1027400010F14802002084F8460000943B00DBB200
:102750003100280000F002F82000F2BD80B5029B95
:10276000002901D11B6000E01A60D86319640121BF
:102770001800FFF731FF01BD1CB50C001300002845
:1027800007D1502080F31188BFF34F8FBFF36F8FB5
:10279000FEE7A04207D2502080F31188BFF34F8F8D
:1027A000BFF36F8FFEE70221009100220021FFF7A7
:1027B0005CFF002800D0846316BD10B50C00002813
:1027C00007D1502080F31188BFF34F8FBFF36F8F75
:1027D000FEE7A04207D2502080F31188BFF34F8F4D
:1027E000BFF36F8FFEE702220021FFF792FF002860
:1027F00000D0846310BDF7B505000E001F00002453
:10280000002D07D1502080F31188BFF34F8FBFF305
:102810006F8FFEE7002E02D1286C002801D1012025
:1028200000E00020C0B2002807D1502080F31188BA
:10283000BFF34F8FBFF36F8FFEE7022F02D1E86B1C
:10284000012801D1012000E00020C0B2002807D1FA
:10285000502080F31188BFF34F8FBFF36F8FFEE7D7
:10286000FEF78DF8002802D10298002801D101203E
:1028700000E00020C0B2002838D1502080F3118839
:10288000BFF34F8FBFF36F8FFEE7029800285CD035
:10289000002C03D16846FDF783FF0124FEF722FCDC
:1028A000FDF702FEFEF704FC95F9440010F1010F5C
:1028B00002D1002085F8440095F9450010F1010F80
:1028C00002D1002085F84500FEF70CFC02A96846FD
:1028D000FDF774FF002852D1280000F09DFB00286E
:1028E00037D1280000F053FBFDF7E4FDFEF7E0FBD5
:1028F000A86BE96B884201D3022FC6D13A003100A0
:10290000280000F0ECFA696A00290FD015F12400C4
:10291000FDF709FF002814D05FF08050DFF8F814AD
:102920000860BFF34F8FBFF36F8F0AE0002808D015
:102930005FF08050DFF8E0140860BFF34F8FBFF303
:102940006F8FFEF7CFFB01201FE0FEF7CBFB0020CF
:102950001BE0029915F11000FDF7CEFE280000F0F3
:1029600016FBFDF7A7FD0028C0D15FF08050DFF80F
:10297000A8140860BFF34F8FBFF36F8FB6E728002E
:1029800000F005FBFDF796FD0020FEBD2DE9F843A4
:1029900005000E0014009846002D07D1502080F34A
:1029A0001188BFF34F8FBFF36F8FFEE7002E02D168
:1029B000286C002801D1012000E00020C0B20028CE
:1029C00007D1502080F31188BFF34F8FBFF36F8F73
:1029D000FEE7B8F1020F02D1E86B012801D1012016
:1029E00000E00020C0B2002807D1502080F31188F9
:1029F000BFF34F8FBFF36F8FFEE7FEF79DFBEFF343
:102A00001187502080F31188BFF34F8FBFF36F8F72
:102A1000A86BE96B884202D3B8F1020F21D195F976
:102A20004590A86B42463100280000F058FA48460D
:102A30005FF0FF3140B288420DD1686A002809D0AA
:102A400015F12400FDF76FFE002803D0002C01D003
:102A50000120206003E019F1010985F8459001206B
:102A600000E0002087F31188BDE8F28370B505000F
:102A70000C00002D07D1502080F31188BFF34F8F39
:102A8000BFF36F8FFEE7286C002807D0502080F33B
:102A90001188BFF34F8FBFF36F8FFEE728680028C0
:102AA00002D1A868002801D1012000E00020C0B2B6
:102AB000002807D1502080F31188BFF34F8FBFF358
:102AC0006F8FFEE7FEF738FBEFF31186502080F39F
:102AD0001188BFF34F8FBFF36F8FA86BE96B8842EC
:102AE0001CD295F94510401CA86308005FF0FF3226
:102AF00040B290420DD1686A00280DD015F1240033
:102B0000FDF711FE002807D0002C05D00120206021
:102B100002E0491C85F84510012000E0002086F302
:102B2000118870BDF7B506000F000024002E07D1F4
:102B3000502080F31188BFF34F8FBFF36F8FFEE7F4
:102B4000002F02D1306C002801D1012000E00020CC
:102B5000C0B2002807D1502080F31188BFF34F8FF7
:102B6000BFF36F8FFEE7FDF70AFF002802D102983E
:102B7000002801D1012000E00020C0B200280CD1C3
:102B8000502080F31188BFF34F8FBFF36F8FFEE7A4
:102B9000300000F0FCF9FDF78DFCFEF789FAB56B0B
:102BA000002D41D1029800285AD0002C03D168464C
:102BB000FDF7F6FD0124FEF795FAFDF775FCFEF72B
:102BC00077FA96F9440010F1010F02D1002086F83F
:102BD000440096F9450010F1010F02D1002086F85B
:102BE0004500FEF77FFA02A96846FDF7E7FD0028D9
:102BF0003AD1300000F002FA0028C9D0029916F14B
:102C00002400FDF779FD300000F0C1F9FDF752FC1A
:102C10000028C2D15FF08050DFF8FC110860BFF3DC
:102C20004F8FBFF36F8FB8E73900300000F09AF98B
:102C30006D1EB563306900280ED016F11000FDF747
:102C400072FD002808D05FF08050DFF8CC110860DA
:102C5000BFF34F8FBFF36F8FFEF744FA01200EE0F2
:102C6000FEF740FA00200AE0300000F090F9FDF78E
:102C700021FC300000F0C2F900288ED00020FEBDFB
:102C800073B582B0060000240025002E07D1502025
:102C900080F31188BFF34F8FBFF36F8FFEE7306C67
:102CA000002807D0502080F31188BFF34F8FBFF367
:102CB0006F8FFEE7FDF763FE002802D1039800281E
:102CC00001D1012000E00020C0B200280CD150202A
:102CD00080F31188BFF34F8FBFF36F8FFEE7300093
:102CE00000F055F9FDF7E6FBFEF7E2F9B06B0028BE
:102CF0004BD10398002865D0002C03D16846FDF71E
:102D00004FFD0124FEF7EEF9FDF7CEFBFEF7D0F9FB
:102D100096F9440010F1010F02D1002086F844001A
:102D200096F9450010F1010F02D1002086F8450008
:102D3000FEF7D8F903A96846FDF740FD00284FD1FA
:102D4000300000F05BF90028C9D03068002807D1B6
:102D5000FEF7AEF9B068FDF722FE0500FEF7C2F9F6
:102D6000039916F12400FDF7C7FC300000F00FF9BD
:102D7000FDF7A0FB0028B7D15FF08050264908601E
:102D8000BFF34F8FBFF36F8FAEE7401EB063306865
:102D9000002802D1FDF702FFB060306900280DD095
:102DA00016F11000FDF7BFFC002807D05FF080503F
:102DB00019490860BFF34F8FBFF36F8FFEF792F989
:102DC000012026E0002D07D0502080F31188BFF3AA
:102DD0004F8FBFF36F8FFEE7FEF784F9002018E0F6
:102DE000300000F0D4F8FDF765FB300000F006F984
:102DF00000283FF479AF002D0AD0FEF759F93000D2
:102E000000F063F80100B068FDF770FEFEF76AF9A4
:102E1000002004B070BD000004ED00E02DE9F8438F
:102E200005000E001400002D07D1502080F31188FA
:102E3000BFF34F8FBFF36F8FFEE7002E02D1286CD8
:102E4000002801D1012000E00020C0B2002807D1F5
:102E5000502080F31188BFF34F8FBFF36F8FFEE7D1
:102E6000FEF76AF9EFF31188502080F31188BFF361
:102E70004F8FBFF36F8FAF6B002F21D095F9449028
:102E80003100280000F06EF87F1EAF6348465FF007
:102E9000FF3140B288420DD1286900280ED015F1CB
:102EA0001000FDF740FC002808D0002C06D00120BF
:102EB000206003E019F1010985F84490012000E049
:102EC000002088F31188BDE8F283416A002904D00C
:102ED000006B0068D0F1070000E0002070472DE98A
:102EE000F041060015000027B46B306C002809D1B2
:102EF0003068002831D1B068FDF79EFD0700002042
:102F0000B0602AE0002D0FD1326C75682800FEF702
:102F100081FF7068316C084470607068B1688842E5
:102F20001BD33068706018E0326CD6F80C804046D5
:102F3000FEF770FFF068316C49420844F060F068B9
:102F40003168884204D2B068316C49420844F0606C
:102F5000022D02D1002C00D0641E641CB463380022
:102F6000BDE8F08110B50C00016C00290ED0C168DD
:102F7000026C1144C160C1688268914201D301684A
:102F8000C160026CC1682000FEF744FF10BD70B53F
:102F90000400FEF78DF894F9455008E014F1240080
:102FA000FDF7C1FB002801D0FDF749FC6D1E28008C
:102FB00040B2012802DB606A0028EFD15FF0FF35E4
:102FC00084F84550FEF78EF8FEF772F894F94460E5
:102FD00008E014F11000FDF7A6FB002801D0FDF772
:102FE0002EFC761E300040B2012802DB206900284A
:102FF000EFD184F84450FEF775F870BD10B50400A9
:10300000FEF756F8A06B002801D1012400E000244F
:10301000FEF768F8200010BD10B50400FEF748F870
:10302000A06BE16B884201D1012400E00024FEF78F
:1030300059F8200010BD000080B5274827490160DD
:103040004FF4164141604FF4805181600021C1600E
:10305000002101610C214161002181610021C161D8
:10306000FEF740FF002801D000F0BCFA01BD10B50A
:1030700086B004001422002101A800F0B5FA2068EF
:103080001649884225D1002000901548016851F466
:1030900000310160006810F40030009000980020BA
:1030A00000901048016851F001010160006810F0C3
:1030B0000100009000980C20019002200290002056
:1030C0000390032004900720059001A90648FFF70C
:1030D00071F906B010BD00008C4200200044004091
:1030E0004038024030380240000002400148006889
:1030F000704700BFA84300202DE9F04104000E00F6
:10310000002C01D1012092E0634D286810F00700E7
:10311000B04207D22E70286810F00700B04201D0EC
:10312000012084E02078800716D52078400704D558
:103130005A48016851F4E05101602078000704D535
:103140005648016851F46041016054490A6832F000
:10315000F002A06802430A602078C00735D5606895
:10316000012805D14E480068800313D401205EE099
:103170006068022802D06068032805D148480068CA
:10318000800107D4012052E045480068800701D43F
:1031900001204CE0414F396889088900606801438B
:1031A0003960FFF7A3FF8046386810F00C006168B3
:1031B000B0EB810F09D0FFF799FFB0EB080041F2A7
:1031C00089318842F0D3032031E0286810F00700ED
:1031D000864207D22E70286810F00700B04201D056
:1031E000012024E02078400706D52C490A6832F4F3
:1031F000E052E06802430A602078000707D52748BC
:10320000016831F46041226951EAC201016000F0B5
:10321000F5F92449214A1268C2F30312895CC840B7
:10322000214908602148006800F028FA0020BDE824
:10323000F0811D480068704780B5FFF7FAFF1C4910
:10324000164A1268C2F38222895CC84002BD80B56A
:10325000FFF7EFFF1649114A1268C2F34232895C48
:10326000C84002BD0F2202600C4A136813F003032A
:103270004360136813F0F0038360136813F4E053A2
:10328000C3601268D20812F4E0520261024800687A
:1032900010F0070008607047003C02400838024008
:1032A00000380240145100080C00002008000020E3
:1032B0006C510008BBBBE1B1B2F5803F80F07E806D
:1032C000022A1ED98C46B1FBF2F102FB11C31B048A
:1032D00043EA1043B3FBF2FC02FB1C3380B240EA2A
:1032E0000343B3FBF2F002FB103240EA0C40002330
:1032F0007047022A05D98446B0FBF2F002FB10C2E7
:1033000070474AB105D100F0010249085FEA300078
:10331000704700220023704700F0F2B90B00020052
:10332000002100207047904271EB030CF6D3B3F5F7
:10333000803F2FD2F0B5B3FA83F7B1FA81F4A7F149
:103340000F0E3D1B5340CEF1200602FA0EF2F34160
:103350005340B5F10F0746D80F3C2C444140C4F10F
:103360002006A040F1414140B1FBF3F603FB1611EA
:10337000A2FB0645001BA94102D2761E80185941C6
:1033800080EA010221FA0EF362FA0EF200215A409D
:103390003046F0BD30B4B1FBF3FC03FB1C11A2FBC3
:1033A0000C45001BA94103D2ACF1010C8018594116
:1033B00030BC02460B46604600217047B2F1807F68
:1033C00065D3F0B5B2FA82F7B1FA81F4C7F10F060E
:1033D0003D1B22FA06F307F1110EF24120355A4047
:1033E000B5F10F07B8D94140C4F12006A040F14122
:1033F0004140B1FBF3FC03FB1C11A2FB0C45001B7D
:10340000A94103D2BCF1010C801859410F2F12D3EE
:103410000F3FC90341EA5041B1FBF3F603FB16111C
:10342000A2FB0645D4EBC030A94102D2761E80181B
:10343000594146EACC3C07B34140C7F12006B840A9
:10344000F1414140B1FBF3F603FB1611A2FB064527
:10345000001BA94102D2761E8018594180EA010260
:1034600021FA0EF3C7F1200462FA0EF20CFA07F00B
:103470005A402CFA04F13043F0BD80EA010221FAEF
:103480000EF3002162FA0EF260465A40F0BD8C46FF
:10349000B1FBF2F102FB11C31B0243EA1063B3FB61
:1034A000F2FC02FB1C331B024CEA002043EA1063CF
:1034B000B3FBF2FC02FB1C331B024CEA002043EA84
:1034C0001063B3FBF2FC02FB1C331B024CEA00202E
:1034D00043EA1063B3FBF2FC02FB1C324CEA00200F
:1034E0000023704710B500F00DF900F016F800F059
:1034F00023F900F069FAFFF79FFD00F0DBFA354C85
:103500000821200000F045FC0C21200000F041FCC7
:10351000FDF759FEFEF716FBFEE780B592B03022AC
:10352000002106A800F060F81422002101A800F094
:103530005BF8002000902848016851F0805101603C
:10354000006810F080500090009800200090234800
:10355000016851F480410160006810F480400090DF
:103560000098012006905FF48030079002200C90B4
:103570005FF480000D9008200E904FF4A8700F901B
:10358000022010900720119006A800F0C9FF002823
:1035900001D000F027F80F200190022002900020B7
:1035A00003904FF4A05004904FF4805005900521F3
:1035B00001A8FFF7A1FD002801D000F013F813B017
:1035C00000BD80B500680649884201D101F08AF942
:1035D00001BD00004442002040380240007000401D
:1035E0000000014072B6FEE710B5044610460A46D8
:1035F0000146204601F082F9204610BD10B500209A
:103600000020002000201948006810F00C0000285D
:1036100004D0042804D0082804D025E0144824E06D
:10362000144822E0144C226812F03F022068400245
:1036300009D52068C0F388100E49A1FB00010023C2
:10364000FFF738FE08E02068C0F388100849A1FBA6
:1036500000010023FFF72EFE2168C1F30141491C40
:103660004900B0FBF1F000E0014810BD083802400D
:103670000024F40000127A000438024018B587B024
:103680000100002000200022192001F0BFF91920BC
:1036900001F0CDF9002000901548016851F00101BA
:1036A0000160006810F001000090009801A902A8D4
:1036B000FFF7D8FDFFF7CBFD40000E49B0FBF1F05E
:1036C000401E0D4C0D49216040F2E731E160606021
:1036D000002020610020A060200000F093FA002864
:1036E00003D1200000F0C5FA00E0012008B010BDB1
:1036F0004438024040420F00FC41002000000140DD
:103700007047000080B50B48016851F400710160FA
:10371000016851F480610160016851F480710160B9
:10372000032001F06FF90F20FFF7A8FF01F08EF9D9
:10373000002002BD003C02402DE9F84386B014226F
:1037400000216846FFF750FF002005909848016867
:1037500051F010010160016811F010010591059907
:1037600000210591016851F004010160016811F028
:1037700004010591059900210591016851F080012E
:103780000160016811F08001059105990021059102
:10379000016851F001010160016811F0010105911A
:1037A000059900210591016851F00201016001684D
:1037B00011F002010591059900210591016851F070
:1037C00008010160006810F0080005900598794C28
:1037D000002243F288112000FEF7D7FE764D012229
:1037E00001212800FEF7D1FE4FF21706734F002289
:1037F00031003800FEF7C9FE08200090012001903A
:10380000002002900020039069462000FEF7D2FDC0
:1038100001200090012001900020029000200390E0
:1038200069462800FEF7C6FD08200090022001909E
:103830000020029000200390052004906946280093
:10384000FEF7B8FD012000905FF49018CDF80480D9
:1038500000200290DFF8689169464846FEF7AAFD0D
:103860001020009002200190002002900020039080
:103870000620049069464846FEF79CFDE020009033
:103880000220019000200290002003900520049067
:1038900069464846FEF78EFD4FF204000090002076
:1038A000019000200290DFF81C9169464846FEF71F
:1038B00081FD4FF4C0700090012001900220029021
:1038C0000120039069462000FEF774FD4FF4C060AC
:1038D0000090002001900020029069462000FEF731
:1038E00069FD4FF4405000900120019002200290A9
:1038F0000020039069462000FEF75CFD4FF48060D5
:1039000000900220019000200290002003900520EA
:10391000049069464846FEF74DFD4FF472600090F2
:10392000002001900020029069463800FEF742FD19
:10393000009601200190002002900020039069462B
:103940003800FEF737FD4FF4A4500090022001909C
:103950000020029000200390062004906946280071
:10396000FEF728FD4FF41070009012200190012006
:103970000290002003900420049069464846FEF718
:1039800019FD8020009000200190012002906946DE
:103990004846FEF70FFD02200090CDF8048000207D
:1039A000029069462000FEF705FD07B0BDE8F083F0
:1039B000303802400010024000080240000C024073
:1039C000000002400004024080B535485FF0A0418D
:1039D0000160082181600121C16000210161022193
:1039E00081610021C16101F055F8002801D0FFF785
:1039F000F9FD01BD10B586B004001422002168460F
:103A0000FFF7F2FD2068B0F1A04F46D100200590ED
:103A10002448016851F001010160006810F00100C4
:103A2000059005984FF40070009000200190002050
:103A300002901D4C69462000FEF7BCFC4FF48060EC
:103A400000900220019000200290032003900A20A1
:103A5000049069462000FEF7ADFC4FF4C050009082
:103A60000220019000200290002003900A20049080
:103A700069462000FEF79EFC0C48016851F0800169
:103A80000160002005900A48016851F480410160FE
:103A9000006810F480400590059806B010BD000045
:103AA000183C002030380240000002403438024008
:103AB0004438024018B58DB01022002109A8FFF744
:103AC00093FD082200216846FFF78EFD1C2200218D
:103AD00002A8FFF789FD464C464820600020606040
:103AE0000020A06043F67F60E0600020206100209D
:103AF000A061200000F086F8002801D0FFF772FDD9
:103B00004FF48050099009A9200000F00BFB002819
:103B100001D0FFF767FD200000F004F9002801D074
:103B2000FFF760FD302000900020019069462000E2
:103B300000F0ECFF002801D0FFF754FD7020029048
:103B4000002003900220049000200690082202A981
:103B5000200000F06CFA002801D0FFF743FD0C2292
:103B600002A9200000F063FA002801D0FFF73AFD17
:103B7000200000F015F80EB010BD81B000681D499E
:103B800088420BD1002000901B48016851F00201CF
:103B90000160006810F002000090009801B07047CA
:103BA00010B586B004001422002101A8FFF71CFD07
:103BB00020681049884219D1002000900F48016800
:103BC00051F002010160006810F0020000900098BE
:103BD0000320019002200290002003900020049016
:103BE0000220059001A90648FEF7E4FB06B010BDCF
:103BF0004442002000040040403802403038024077
:103C00000004024010B50400002C01D101202FE077
:103C100094F83D00002805D1002084F83C002000E5
:103C2000FFF7ABFF022084F83D00211D206800F063
:103C3000F0FA012084F84600012084F83E000120BB
:103C400084F83F00012084F84000012084F84100FE
:103C5000012084F84200012084F84300012084F808
:103C60004400012084F84500012084F83D00002034
:103C700010BD90F83D10012901D0012043E0022140
:103C800080F83D100168C96851F001010268D160F7
:103C90000168DFF87420914221D00168B1F1804FB2
:103CA0001DD00168DFF86420914218D00168DFF868
:103CB0006020914213D00168DFF8582091420ED065
:103CC0000168DFF85420914209D00168DFF84C20E8
:103CD000914204D00168DFF8482091420CD101687C
:103CE000896811F0070106290CD00168096851F0B4
:103CF00001010068016005E00168096851F00101F7
:103D0000006801600020704700000140000400408E
:103D100000080040000C0040000401400040014049
:103D20000018004010B50400002C01D101202FE044
:103D300094F83D00002805D1002084F83C002000C4
:103D400000F038FF022084F83D00211D206800F0BB
:103D500060FA012084F84600012084F83E0001202A
:103D600084F83F00012084F84000012084F84100DD
:103D7000012084F84200012084F84300012084F8E7
:103D80004400012084F84500012084F83D00002013
:103D900010BD10B50400002902D194F83E000BE0DC
:103DA000042902D194F83F0006E0082902D194F8D2
:103DB000400001E094F84100012801D001206BE0AF
:103DC000002904D1022084F83E00C0B211E0042989
:103DD00004D1022084F83F00C0B20AE0082904D1CF
:103DE000022084F84000C0B203E0022084F84100C1
:103DF000C0B20122206800F07FFBDFF8A01020682D
:103E0000884204D02068DFF89820904201D1012038
:103E100000E00020C0B2002805D02068406C50F4BB
:103E20000040226850642068884221D02068B0F1A8
:103E3000804F1DD02068DFF86C10884218D02068B1
:103E4000DFF86410884213D02068DFF860108842E1
:103E50000ED02068DFF84810884209D02068DFF8CB
:103E60005010884204D02068DFF8481088420CD1F6
:103E70002068806810F0070006280CD020680068D1
:103E800050F001002168086005E02068006850F0EB
:103E9000010021680860002010BD00000000014002
:103EA000000401400004004000080040000C0040F5
:103EB000004001400018004010B50400206800696F
:103EC00080071AD52068C068800716D57FF00200E9
:103ED00021680861012020772068806910F0030FB5
:103EE00003D0200000F067FE05E0200000F064FE33
:103EF000200000F062FE0020207720680069400763
:103F00001AD52068C068400716D57FF004002168E4
:103F10000861022020772068806910F4407F03D078
:103F2000200000F048FE05E0200000F045FE2000E3
:103F300000F043FE002020772068006900071AD5B2
:103F40002068C068000716D57FF008002168086166
:103F5000042020772068C06910F0030F03D02000F0
:103F600000F029FE05E0200000F026FE200000F011
:103F700024FE0020207720680069C0061AD520683A
:103F8000C068C00616D57FF01000216808610820BF
:103F900020772068C06910F4407F03D0200000F033
:103FA0000AFE05E0200000F007FE200000F005FEFC
:103FB0000020207720680069C0070AD52068C06803
:103FC000C00706D57FF00100216808612000FFF7D7
:103FD000F8FA2068006900060AD52068C068000663
:103FE00006D57FF0800021680861200000F0E6FD22
:103FF0002068006940060AD52068C068400606D5DA
:104000007FF0400021680861200000F0D8FD2068A2
:10401000006980060AD52068C068800606D57FF052
:10402000200021680861200000F0CAFD10BD70B5B5
:1040300004000E00002594F83C00012801D1022064
:104040006FE0012084F83C00002A06D0042A1BD02F
:10405000082A31D00C2A46D05DE03100206800F0FB
:1040600037F92068806950F008002168886120686D
:10407000806930F0040021688861206881693069B6
:1040800001432068816147E03100206800F052F967
:104090002068806950F40060216888612068806928
:1040A00030F480602168886120688069316950EA55
:1040B0000120216888612FE03100206800F072F94A
:1040C0002068C06950F008002168C8612068C06994
:1040D00030F004002168C8612068C169306901437B
:1040E0002068C16118E03100206800F091F9206873
:1040F000C06950F400602168C8612068C06930F46C
:1041000080602168C8612068C069316950EA012077
:104110002168C86100E00125002084F83C002800E7
:10412000C0B270BD38B50400002594F83C000128E9
:1041300001D102206CE0012084F83C00022084F8C8
:104140003D002068806830F0770030F47F402268BE
:104150009060086800284DD010284BD0202849D006
:10416000302847D040283BD0502825D060282DD07B
:10417000702807D0B0F5805F03D0B0F5005F0ED097
:104180003DE03DE0CB684A688968206800F0A9F905
:104190002068806850F077002168886030E0CB6844
:1041A0004A688968206800F09CF92068806850F4AB
:1041B00080402168886023E0CA684968206800F070
:1041C00063F95021206800F084F919E0CA68496851
:1041D000206800F06BF96021206800F07AF90FE0A8
:1041E000CA684968206800F04FF94021206800F053
:1041F00070F905E00968206800F06BF900E001251E
:10420000012084F83D00002084F83C002800C0B262
:1042100032BD10B40468DFF84432984212D0B0F1D5
:10422000804F0FD0DFF8382290420BD0DFF83422D5
:10423000904207D0DFF83022904203D0DFF82C22E2
:10424000904203D134F070044A681443984227D056
:10425000B0F1804F24D0DFF80822904220D0DFF860
:10426000042290421CD0DFF80022904218D0DFF8E0
:10427000FC21904214D0DFF8F821904210D0DFF8F2
:10428000F42190420CD0DFF8F021904208D07B4A14
:10429000904205D07A4A904202D07A4A904203D1A5
:1042A00034F44074CA68144334F080044A691443F7
:1042B00004608A68C2620A688262984202D06B4ACD
:1042C000904201D1096901630121416110BC70472D
:1042D00070B4026A520852000262046A4568836937
:1042E00033F070039B089B000A68134334F0020408
:1042F0008A681443594EB04202D05C4A904205D1BC
:1043000034F00804CA68144334F00404B04202D004
:10431000564A904207D135F4807535F400754A69E4
:1043200015438A69154345608361496841630462A6
:1043300070BC704770B4026A32F010020262036A05
:104340004468826932F4E04232F440720D6852EA05
:10435000052233F020038D6853EA05133F4DA84230
:1043600002D0424EB04206D133F08003CE6853EA09
:10437000061333F04003A84202D03C4DA84209D1B5
:1043800034F4806434F400644D6954EA85048D6922
:1043900054EA85044460826149688163036270BCA9
:1043A0007047000070B4026A32F480720262046ADC
:1043B0004568C36933F070039B089B000A68134388
:1043C00034F400748A6854EA0224244A904202D0E9
:1043D000264EB04206D134F40064CE6854EA062476
:1043E00034F48064904202D0204A904209D135F4DE
:1043F000805535F400554A6955EA02158A6955EA2F
:1044000002154560C3614968C163046270BC7047AE
:1044100030B4026A32F480520262036A4468C269AC
:1044200032F4E04232F440720D6852EA052233F46D
:1044300000538D6853EA0533084DA84202D00B4D56
:10444000A84204D134F480444D6954EA8514446090
:10445000C26149680164036230BC704700000140DA
:104460000004004000080040000C0040000401402F
:104470000040014000440140004801400018004055
:10448000001C00400020004010B4046A036A5B086E
:104490005B000362836933F0F00353EA021334F0E4
:1044A0000A0421438361016210BC704710B4036A9F
:1044B00033F0100303628369046A33F4704353EAF0
:1044C000023334F0A00454EA01148361046210BC86
:1044D0007047826832F07002114351F00701816029
:1044E000704710B4846834F47F442143114351EA87
:1044F0000321816010BC704710B4012411F01F0328
:1045000014FA03F3046A34EA03030362036A11F042
:104510001F0112FA01F11943016210BC704700003B
:104520002DE9FC410400002C01D10120C4E12078D8
:10453000C0075FD5DFF88403016811F00C0104297E
:1045400009D0006810F00C0008280ED1DFF87003C5
:104550000068400209D5DFF86C030068800349D584
:104560006068002846D10120A6E16068B0F5803F70
:1045700006D1DFF85003016851F48031016018E082
:104580006068B0F5A02F0AD1DFF83803016851F454
:1045900080210160016851F48031016009E0DFF899
:1045A0002403016831F480310160016831F4802115
:1045B0000160606800280ED0FEF798FD0500DFF866
:1045C00004030068800315D4FEF790FD401B6528A6
:1045D000F5D3032070E1FEF789FD0500DFF8E40262
:1045E0000068800306D5FEF781FD401B6528F5D3E2
:1045F000032061E1207880071DD5B048016811F0E3
:104600000C0F08D0006810F00C0008282AD1AC4824
:104610000068400226D4AB480168890704D5E168E8
:10462000012901D0012047E1016831F0F801226938
:1046300051EAC20101602078000751D56069002865
:104640003DD00120A0490860FEF750FD05009F48BD
:104650000068800744D4FEF749FD401B0328F6D3C9
:10466000032029E1E068002818D00120984908605B
:10467000FEF73CFD050093480168890706D4FEF764
:1046800035FD401B0328F6D3032015E1016831F006
:10469000F801226951EAC2010160CCE700208C498F
:1046A0000860FEF723FD0500864800688007C2D534
:1046B000FEF71CFD401B0328F6D30320FCE000207E
:1046C00081490860FEF712FD0500804800688007F8
:1046D00006D5FEF70BFD401B0328F6D30320EBE0C5
:1046E000207840076FD500267A4D2868C0000BD48B
:1046F00000200090286850F080502860286810F052
:104700008050009000980126734F3868C00511D47E
:10471000386850F480703860FEF7E8FC80463868EE
:10472000C00507D4FEF7E2FCB0EB08000328F6D37F
:104730000320C1E0A068012805D16848016851F054
:104740000101016015E0A068052809D163480168EE
:1047500051F004010160016851F00101016008E0BD
:104760005E480168490849000160016831F00401B0
:104770000160A06800280FD0FEF7B8FC070057487A
:104780000068800718D4FEF7B1FCC01B41F28931E4
:104790008842F4D303208FE0FEF7A8FC07004F48BF
:1047A0000068800708D5FEF7A1FCC01B41F28931E3
:1047B0008842F4D303207FE0F6B2012E03D12868AB
:1047C00030F080502860A069002874D03B48006811
:1047D00010F00C00082843D0A06902282FD1404EC9
:1047E00000203060FEF782FC0700364D286880010B
:1047F00006D5FEF77BFCC01B0328F6D303205BE045
:10480000E169206A0143606A51EA8011A06A4008A8
:10481000401E51EA0041E06A51EA00612848016007
:1048200001203060FEF762FC04002868800142D459
:10483000FEF75CFC001B0328F7D303203CE00020BC
:1048400027490860FEF752FC04001E4800688001FA
:1048500031D5FEF74BFC001B0328F6D303202BE0D9
:10486000A069012801D1012026E015480068A1694E
:1048700001291ED010F48001E269914219D110F093
:104880003F01226A914214D147F6C0710140626A29
:10489000B1EB821F0DD110F44031A26A5208521EB2
:1048A000B1EB024F05D110F07060E16AB0EB016F1F
:1048B00001D0012000E00020BDE8F6810838024068
:1048C0000438024000380240800E474274380240EB
:1048D00000004742403802400070004070380240FB
:1048E0006000474203480168034A12788918016052
:1048F000704700BFA84300201500002062F30F227C
:1049000062F31F42401810F0030308D0C91A1FD3E6
:10491000DB0748BF00F8012D28BF20F8022D130047
:1049200030B414461546103928BF20E93C00FAD8A7
:10493000490728BF20E90C0048BF40F8042D890032
:1049400028BF20F8022D48BF00F8012D30BC704769
:10495000C91818BF00F8012DCB0728BF00F8012D9A
:104960007047000010F00700334B1A684FF6FF0144
:104970000A4052EA0022314802431A6070472E482A
:104980000068C0F302207047010049B2002908D432
:10499000012210F01F018A40294940B2400941F824
:1049A00020207047020052B2002A04D40901254A8F
:1049B00040B2115407E00901234A40B210F00F0041
:1049C000104400F8041C704710B410F00700D0F138
:1049D0000703052B01D3042301E0D0F10703041DD5
:1049E000072C01D2002000E0C01E012414FA03F3BA
:1049F0005B1E1940814014FA00F0401E104008432D
:104A000010BC704780B5FFF7ADFF01BD70B5040065
:104A10000D0016000020FFF7B2FF32002900FFF75B
:104A2000D3FF0100200040B2FFF7BCFF70BD80B58E
:104A300040B2FFF7A9FF01BD0CED00E00000FA0550
:104A400000E100E000E400E018ED00E080B50020A7
:104A500000900E48016851F480410160006810F434
:104A6000804000900098002000900948016851F0B3
:104A700080510160006810F0805000900098002282
:104A80000F217FF00100FFF7C1FF01BD4438024054
:104A90004038024038B58AB00400002C01D1012012
:104AA00031E0256894F8F902002805D1002084F847
:104AB000F8022000FEF79EFF032084F8F902E86B5D
:104AC000C00501D400202061206800F0BBF8211D42
:104AD00083B068463422FDF7ADF90EBC206800F0C3
:104AE00071F80121206800F0B3F8211D83B06846F9
:104AF0003422FDF79FF90EBC206800F057F9012021
:104B000084F8F90200200BB030BD000010B490F81A
:104B10003C20012A01D102203CE0012280F83C2007
:104B2000022280F83D20026854680268936834F0DD
:104B300070040A681443026854600268164CA2426A
:104B40001BD00268B2F1804F17D00268134CA2420A
:104B500013D00268124CA2420FD00268114CA2423C
:104B60000BD00268104CA24207D002680F4CA24240
:104B700003D002680E4CA24205D133F0800349688D
:104B80000B4301688B60012180F83D10002180F803
:104B90003C10002010BC70470000014000040040A1
:104BA00000080040000C00400004014000400140AB
:104BB0000018004070477047704770477047704753
:104BC000704700000EB418B504000898012817D1EA
:104BD000A06B30F48030A063E168DFF8740101401D
:104BE000E160E06830F44010E0600F98012803D1E4
:104BF000E06850F48010E060200000F0B1F812E0AE
:104C0000E06850F04000E060200000F0A9F80C9946
:104C1000002904D1A16B51F48031A16303E0A16BA1
:104C200031F48031A1630699012907D1A16851F0BF
:104C30000601A160A16851F02001A160C0B212BCC0
:104C40005DF810FB816849084900816000207047C9
:104C500038B504000025E06830F0C040E06008008E
:104C6000C0B2012812D1E06850F00050E06001208D
:104C700000F02AF96D1C200000F06EF8012801D028
:104C8000322DF4D3322D16D1012015E0C9B20029FE
:104C90000FD1E06850F08040E060012000F014F98E
:104CA0006D1C200000F058F80028EBD0322DF4D312
:104CB000E8E7012000E0002032BD81B00022009230
:104CC000009A521C0092DFF88C20009B934203D282
:104CD0000369002BF4D501E0032012E000230093C8
:104CE000890151F0200101610099491C009100994E
:104CF000914203D201698906F6D401E0032000E065
:104D0000002001B0704781B0002100910099491C3A
:104D10000091DFF84010009A8A4203D20269002A0B
:104D2000F4D501E0032010E000220092102202617D
:104D3000009A521C0092009A8A4203D20269D2065B
:104D4000F6D401E0032000E0002001B0704700002D
:104D5000BFFFBDFF410D0300406910F00100704727
:104D600081B0002100910099491C0091DFF84011A9
:104D7000009A8A4203D20269002AF4D501E0032096
:104D800012E000220092026952F001020261009AD0
:104D9000521C0092009A8A4203D20269D207F6D4CA
:104DA00001E0032000E0002001B070470EB478B5A8
:104DB000040000252600002016F560610860A06B45
:104DC00050F40010A063A06B30F40020A063A06B2F
:104DD00030F48020A063E06BC00514D5079801284B
:104DE00008D116F58060006850F0040016F5806167
:104DF000086010E016F58060006830F0040016F5D9
:104E00008061086007E016F58060006830F00400FB
:104E100016F58061086010212000FFF74EFF002882
:104E200000D001252000FFF76EFF002800D00125EB
:104E300000200DE016EB401111F5A0615FF0FF328C
:104E40008A6016EB401111F5A0610022CA60401C77
:104E500006998842EED30020A0615FF0FF306061C8
:104E6000E06BC0050AD54FF400706062DFF84400C3
:104E7000A062DFF84400C4F8000108E0802060620E
:104E8000DFF83800A062DFF83800C4F800010898A5
:104E9000002803D1A06950F01000A061A169DFF8DB
:104EA00024000143A1612800C0B272BC5DF810FB70
:104EB000410D0300000200010003E00080006000DB
:104EC000E0004000080020A338B50400FEF70EF90A
:104ED000050014F1010F02D0044800782418FEF7F1
:104EE00005F9401BA042FAD331BD00BF15000020D8
:104EF00030B4002512E050F8042BD30744BF4A44D5
:104F0000521E091F042942F8045BFAD213468C078B
:104F100044BF15809B1CC90748BF1D7050F8041B77
:104F20000029E8D130BC7047FEE7FEE7FEE7FEE768
:104F3000FEE7704780B50548FEF7BEFF01BD80B5AE
:104F400003480068FCF7A1FE01BD0000FC41002001
:104F50008843002010B5074979441831064C7C4439
:104F6000163404E00A68081D114488470146A1422E
:104F7000F8D110BD2C0000004C0000004EF6885106
:104F8000CEF20001086840F470000860BFF34F8F54
:104F9000BFF36F8F4FF00170E1EE100A7047000011
:104FA00051FFFFFFD4430000180000200000000064
:104FB0000BCFFFFF180000000803000000000020D6
:104FC0000000000000F00DF8002801D0FFF7C2FF3C
:104FD000AFF300800020AFF30080FEF783FA00F00B
:104FE00002F80120704700F001B80000074638467B
:104FF00000F002F8FBE7000080B5AFF30080024A42
:1050000011001820ABBEFBE7260002004451000847
:10501000E512000800000000000000008000000011
:105020000000000000000000B4500008EF1200086B
:1050300001000000000000008000000000000000EF
:1050400000000000C45000084D13000801000000DB
:1050500000000000800000000000000000000000D0
:10506000D4500008BD13000801000000000000003B
:105070000001000000000000000000005051000886
:1050800083150008FFFF0000000000008000000002
:1050900000000000000000000548014603B4684617
:1050A00080F30988AFF30080FFF768FFFFF78AFFFE
:1050B000A5EDF5FE76656869636C654D6F74696F83
:1050C0006E000000766F696365436F6D6D616E649D
:1050D0000000000076656869636C654D6F74696FE8
:1050E0006E5F50000200000004000000000000009D
:1050F00000000000020000000400000000000000AA
:10510000000000000000803F0000000000000000E0
:105110000000000000000000000000000102030485
:105120000607080901488047014800473551000833
:10513000995000080248016851F4700101607047FD
:1051400088ED00E064656661756C745461736B0092
:105150007374617475734C45445300000000000083
:1051600000000000000000000000404100000000BE
:105170000102030449444C450000000008000000FF
:10518000F0E300E0FFF7FEBFFFF7FEBFFFF7FEBF53
:10519000FFF7FEBFFFF7FEBFFFF7FEBFFFF7FEBF43
:1051A000FFF7FEBFFFF7FEBFFFF7FEBFFFF7FEBF33
:1051B000FFF7FEBFFFF7FEBFFFF7FEBFFFF7FEBF23
:1051C000FFF7FEBFFFF7FEBFFFF7FEBFFFF7FEBF13
:1051D000FFF7FEBFFFF7FEBFFFF7FEBFFFF7FEBF03
:1051E000FFF7FEBFFFF7FEBFFFF7FEBFFFF7FEBFF3
:1051F000FFF7FEBFFFF7FEBFFFF7FEBFFFF7FEBFE3
:10520000FFF7FEBFFFF7FEBFFFF7FEBFFFF7FEBFD2
:10521000FFF7FEBFFFF7FEBFFFF7FEBFFFF7FEBFC2
:10522000FFF7FEBFFFF7FEBFFFF7FEBFFFF7FEBFB2
:10523000FFF7FEBFFFF7FEBFFFF7FEBFFFF7FEBFA2
:10524000FFF7FEBFFFF7FEBFFFF7FEBFFFF7FEBF92
:10525000FFF7FEBFFFF7FEBFFFF7FEBFFFF7FEBF82
:10526000FFF7FEBFFFF7FEBFFFF7FEBFFFF7FEBF72
:10527000FFF7FEBFFFF7FEBFFFF7FEBFFFF7FEBF62
:10528000FFF7FEBFFFF7FEBFFFF7FEBFFFF7FEBF52
:10529000FFF7FEBFFFF7FEBFFFF7FEBFFFF7FEBF42
:1052A000FFF7FEBFFFF7FEBFFFF7FEBFFFF7FEBF32
:1052B000FFF7FEBFFFF7FEBFFFF7FEBFFFF7FEBF22
:1052C000022B073DAAAAAAAA100000000024F4009D
:0852D0007F3E200301010000F4
:040000050800509906
:00000001FF
